:10000000800D0020DD210000C95F00000D220000EE
:100010000D2200000D2200000D2200000000000053
:100020000000000000000000000000004D21000062
:100030000D2200000000000005210000A35F000069
:100040009D2100009D2100009D2100009D210000B8
:100050009D2100009D2100009D2100009D210000A8
:100060009D2100009D2100009D2100009D21000098
:100070009D2100009D2100009D2100009D21000088
:100080009D2100009D2100009D2100009D21000078
:100090009D2100009D2100009D2100009D21000068
:1000A0009D2100009D2100009D2100009D21000058
:1000B0009D2100009D2100009D2100009D21000048
:1000C0009D2100009D2100009D2100009D21000038
:0C00D0009D2100009D2100009D210000EA
:0400DC00FFFFFFFF24
:1000E00070B54FF0FF0C4CF4E06C1CEA11541DBFCE
:1000F0001CEA135594EA0C0F95EA0C0F00F0DEF899
:100100002C4481EA030621EA4C5123EA4C5350EA7D
:10011000013518BF52EA033541F4801143F48013CE
:1001200038D0A0FB02CE4FF00005E1FB02E506F05F
:100130000042E0FB03E54FF00006E1FB03569CF0B4
:10014000000F18BF4EF0010EA4F1FF04B6F5007FBA
:1001500064F5407404D25FEA4E0E6D4146EB06062C
:1001600042EAC62141EA55514FEAC52040EA5E50B5
:100170004FEACE2EB4F1FD0C88BFBCF5E06F1ED85F
:10018000BEF1004F08BF5FEA500E50F1000041EB96
:10019000045170BD06F0004646EA010140EA020043
:1001A00081EA0301B4EB5C04C2BFD4EB0C0541EA65
:1001B000045170BD41F480114FF0000E013C00F37A
:1001C000AB8014F1360FDEBF002001F0004170BD9E
:1001D000C4F10004203C35DA0C341BDC04F11404B7
:1001E000C4F1200500FA05F320FA04F001FA05F243
:1001F00040EA020001F0004221F0004110EBD37010
:1002000021FA04F642EB06015EEA430E08BF20EA3B
:10021000D37070BDC4F10C04C4F1200500FA04F3DE
:1002200020FA05F001FA04F240EA020001F0004170
:1002300010EBD37041F100015EEA430E08BF20EAE3
:10024000D37070BDC4F1200500FA05F24EEA020E2B
:1002500020FA04F301FA05F243EA020321FA04F05A
:1002600001F0004121FA04F220EA020000EBD37011
:100270005EEA430E08BF20EAD37070BD94F0000F11
:100280000FD101F00046400041EB010111F4801F45
:1002900008BF013CF7D041EA060195F0000F18BFF6
:1002A000704703F00046520043EB030313F4801F32
:1002B00008BF013DF7D043EA0603704794EA0C0FEC
:1002C0000CEA135518BF95EA0C0F0CD050EA410602
:1002D00018BF52EA4306D1D181EA030101F000417F
:1002E0004FF0000070BD50EA410606BF10461946A7
:1002F00052EA430619D094EA0C0F02D150EA0136B3
:1003000013D195EA0C0F05D152EA03361CBF1046F3
:1003100019460AD181EA030101F0004141F0FE4192
:1003200041F470014FF0000070BD41F0FE4141F416
:10033000780170BD81F0004102E000BF83F000430E
:1003400030B54FEA41044FEA430594EA050F08BF70
:1003500090EA020F1FBF54EA000C55EA020C7FEA34
:10036000645C7FEA655C00F0E2804FEA5454D4EBB1
:100370005555B8BF6D420CDD2C4480EA020281EA7B
:10038000030382EA000083EA010180EA020281EAB3
:100390000303362D88BF30BD11F0004F4FEA013105
:1003A0004FF4801C4CEA113102D0404261EB410114
:1003B00013F0004F4FEA03334CEA133302D052429A
:1003C00063EB430394EA050F00F0A780A4F1010456
:1003D000D5F1200E0DDB02FA0EFC22FA05F2801890
:1003E00041F1000103FA0EF2801843FA05F3594176
:1003F0000EE0A5F120050EF1200E012A03FA0EFCF5
:1004000028BF4CF0020C43FA05F3C01851EBE3711E
:1004100001F0004507D54FF0000EDCF1000C7EEB3B
:1004200000006EEB0101B1F5801F1BD3B1F5001F79
:100430000CD349085FEA30004FEA3C0C04F1010498
:100440004FEA445212F5800F80F09A80BCF1004FC1
:1004500008BF5FEA500C50F1000041EB045141EA43
:10046000050130BD5FEA4C0C404141EB0101013C0C
:1004700028BFB1F5801FE9D291F0000F04BF0146FB
:100480000020B1FA81F308BF2033A3F10B03B3F1CD
:1004900020020CDA0C3208DD02F1140CC2F10C025D
:1004A00001FA0CF021FA02F10CE002F11402D8BFBB
:1004B000C2F1200C01FA02F120FA0CFCDCBF41EA87
:1004C0000C019040E41AA2BF01EB0451294330BD56
:1004D0006FEA04041F3C1CDA0C340EDC04F1140433
:1004E000C4F1200220FA04F001FA02F340EA03000A
:1004F00021FA04F345EA030130BDC4F10C04C4F150
:10050000200220FA02F001FA04F340EA030029462F
:1005100030BD21FA04F0294630BD94F0000F83F479
:10052000801306BF81F480110134013D4EE77FEA5C
:10053000645C18BF7FEA655C29D094EA050F08BFA8
:1005400090EA020F05D054EA000C04BF1946104689
:1005500030BD91EA030F1EBF0021002030BD5FEACD
:10056000545C05D14000494128BF41F0004130BDF5
:1005700014F580043CBF01F5801130BD01F0004549
:1005800045F0FE4141F470014FF0000030BD7FEABC
:10059000645C1ABF194610467FEA655C1CBF0B46B7
:1005A000024650EA013406BF52EA033591EA030FCE
:1005B00041F4002130BD00BF90F0000F04BF0021C6
:1005C000704730B54FF4806404F132044FF00005F9
:1005D0004FF0000150E700BF90F0000F04BF002172
:1005E000704730B54FF4806404F1320410F00045D8
:1005F00048BF40424FF000013EE700BF42004FEAD3
:10060000E2014FEA31014FEA02701FBF12F07F434F
:1006100093F07F4F81F06051704732F07F4208BF06
:10062000704793F07F4F04BF41F40021704730B50D
:100630004FF4607401F0004521F000411CE700BF59
:1006400050EA010208BF704730B54FF000050AE0DC
:1006500050EA010208BF704730B511F0004502D5DD
:10066000404261EB41014FF4806404F132045FEADF
:10067000915C3FF4D8AE4FF003025FEADC0C18BF88
:1006800003325FEADC0C18BF033202EBDC02C2F17A
:10069000200300FA03FC20FA02F001FA03FE40EA0C
:1006A0000E0021FA02F11444BDE600BF4FEA4102F8
:1006B000B2F1E04324BFB3F5001CDCF1FE5C0DD9C0
:1006C00001F0004C4FEAC0024CEA5070B2F1004F0A
:1006D00040EB830008BF20F00100704711F0804F0D
:1006E00021D113F13872BCBF01F00040704741F4D2
:1006F00080114FEA5252C2F11802C2F1200C10FAD6
:100700000CF320FA02F018BF40F001004FEAC123B9
:100710004FEAD32303FA0CFC40EA0C0023FA02F35D
:100720004FEA4303CCE77FEA625307D150EA013333
:100730001EBF4FF0FE4040F44000704701F0004003
:1007400040F0FE4040F40000704700BF80F00040E1
:1007500002E000BF81F0004142001FBF5FEA410399
:1007600092EA030F7FEA226C7FEA236C6AD04FEA99
:100770001262D2EB1363C1BFD218414048404140DE
:10078000B8BF5B42192B88BF704710F0004F40F490
:10079000000020F07F4018BF404211F0004F41F4AC
:1007A000000121F07F4118BF494292EA030F3FD078
:1007B000A2F1010241FA03FC10EB0C00C3F120038B
:1007C00001FA03F100F0004302D5494260EB40001A
:1007D000B0F5000F13D3B0F1807F06D340084FEA85
:1007E000310102F10102FE2A51D2B1F1004F40EB7A
:1007F000C25008BF20F0010040EA030070474900E2
:1008000040EB0000013A28BFB0F5000FEDD2B0FA7E
:1008100080FCACF1080CB2EB0C0200FA0CF0AABFA1
:1008200000EBC25052421843BCBFD040184370473F
:1008300092F0000F81F4000106BF80F40000013245
:10084000013BB5E74FEA41037FEA226C18BF7FEA1C
:10085000236C21D092EA030F04D092F0000F08BF5E
:100860000846704790EA010F1CBF0020704712F045
:100870007F4F04D1400028BF40F00040704712F184
:1008800000723CBF00F50000704700F0004343F0E9
:10089000FE4040F4000070477FEA226216BF08461F
:1008A0007FEA23630146420206BF5FEA412390EAE2
:1008B000010F40F4800070474FF0000304E000BFD8
:1008C00010F0004348BF40425FEA000C08BF704789
:1008D00043F0964301464FF000001CE050EA01024D
:1008E00008BF70474FF000030AE000BF50EA010262
:1008F00008BF704711F0004302D5404261EB41014F
:100900005FEA010C02BF84460146002043F0B64373
:1009100008BFA3F18053A3F50003BCFA8CF2083A98
:10092000A3EBC25310DB01FA02FC634400FA02FCA1
:10093000C2F12002BCF1004F20FA02F243EB0200A8
:1009400008BF20F00100704702F1200201FA02FC0A
:10095000C2F1200250EA4C0021FA02F243EB0200FD
:1009600008BF20EADC70704753B94AB9002908BFB4
:1009700000281CBF4FF0FF314FF0FF3000F06CB982
:10098000ADF1080C6DE904CE00F006F8DDF804E0E6
:10099000DDE9022304B070472DE9F047089E0D46BB
:1009A00004468E46002B40F082808A42174646D984
:1009B000B2FA82F24AB1C2F1200105FA02F320FA3A
:1009C00001F1974041EA030E94404FEA1748230C87
:1009D000BEFBF8FCB9B208FB1CEE43EA0E430CFB6D
:1009E00001F098420AD9FB180CF1FF3580F016810E
:1009F000984240F21381ACF1020C3B441B1AA4B2A2
:100A0000B3FBF8F008FB103344EA034400FB01F1A8
:100A1000A14209D93C1900F1FF3380F00181A142C4
:100A200040F2FE8002383C44641A40EA0C40002147
:100A30001EB1D4400023C6E90043BDE8F08702B9E7
:100A4000FFDEB2FA82F2002A4FD1CB1B4FEA174EDB
:100A50001FFA87F80121B3FBFEFC250C0EFB1C33AB
:100A600045EA034508FB0CF3AB4207D97D190CF1AD
:100A7000FF3002D2AB4200F2E7808446ED1AA3B207
:100A8000B5FBFEF00EFB105543EA054408FB00F8E9
:100A9000A04507D93C1900F1FF3302D2A04500F26E
:100AA000D7801846A4EB080440EA0C40C0E78B420C
:100AB00008D9002E00F0AF800021C6E900050846E5
:100AC000BDE8F087B3FA83F100294BD1AB4202D3E2
:100AD000824200F2B780841A65EB030301209E4630
:100AE000002EAAD0C6E9004EA7E7C2F1200C01FAF9
:100AF00002F3974020FA0CF04FEA174E21FA0CFC53
:100B00001843BCFBFEF1050C0EFB11CC1FFA87F855
:100B100045EA0C4501FB08F3AB4204FA02F409D99B
:100B20007D1901F1FF3C80F08B80AB4240F2888060
:100B300002393D44EB1A85B2B3FBFEF00EFB1033D5
:100B400045EA034500FB08F3AB4207D97D1900F1E4
:100B5000FF3C71D2AB426FD902383D44EB1A40EAF8
:100B6000014178E7C1F1200C8B4022FA0CF71F43BA
:100B700020FA0CF405FA01F34FEA174E25FA0CF5AA
:100B80001C43230CB5FBFEF91FFA87F80EFB195521
:100B900043EA054509FB08FAAA4502FA01F200FA00
:100BA00001F308D97D1909F1FF3047D2AA4545D98B
:100BB000A9F102093D44A5EB0A05A4B2B5FBFEF07C
:100BC0000EFB105544EA054400FB08F8A04507D980
:100BD0003C1900F1FF352DD2A0452BD902383C44F9
:100BE00040EA0940A4EB0804A0FB02894C45C64634
:100BF0004D4619D316D05EB1B3EB0E0264EB05047B
:100C000004FA0CFCCA404CEA0202CC40C6E90024BB
:100C10000021BDE8F087314630460EE7AC46EDE6F0
:100C2000184601E74345E6D2B8EB020E69EB07052B
:100C30000138E0E72846D3E760468FE78146BAE708
:100C4000614677E708464BE7ACF1020C3D4415E7F7
:100C500002383C4426E700BF704700BF0000000098
:100C600037B5054601A800F007FD019B1A0444BFF3
:100C70005B42019304460198FFF722FEFFF7BEFC9A
:100C800005A3D3E90023FFF72BFAFFF70FFD286038
:100C9000204603B030BD00BF7B14AE47E17A743FFD
:100CA000F0B5012387B0834002930C230026049300
:100CB000294F01960A230546ADF8143003978DF8A5
:100CC000166000F003FD254B1A78954204460CD0BF
:100CD000234A1D70167070B900241F480C22002191
:100CE00005F0C8F9C4B91F482EE00028F4D01C4B09
:100CF0001B78002BF1D11C490B7965F304030135F6
:100D00000B714D71A36820461B6898470028E3D1FA
:100D1000134B01221A70E0E7A36801A95B68204623
:100D200098470028DFD1B7F90000431CDBD0FFF75C
:100D300053FC07A3D3E90023FFF7D2F90B4B0022A2
:100D4000FFF7CEF9FFF7B2FC07B0F0BDAFF30080BC
:100D5000CDCCCCCCCCCC0C40580500205C01002084
:100D600065050020000080BF540100200000503FB6
:100D70002DE9F0432548DFF8988089B004F0FBFFA7
:100D800000F08CF800F0E6F800F076FB00F0F2FAE4
:100D900004F02AFF00F01CFC00F038FC00F09CFC82
:100DA0004FF0000900F0CCFB28B9012000F0D4FC82
:100DB000012000F0EBFC05A8CDF81490FFF750FFE0
:100DC0000420FFF76DFF07A9054606A800F0EEFA1C
:100DD00000F062F904460598FFF710FC079B0393A7
:100DE0000646069B029328460F46FFF707FC32464D
:100DF000CDE900013B462146404602F0C5F80021FE
:100E00004FF4804004F0A2F8CCE700BF946D0000DE
:100E1000B66D000070B5064688B00D4614460D4804
:100E200003F0A4FC0DF107020292012203920022BA
:100E30008DF810200222CDE905548DF807608DF859
:100E40001C20836802A95C681923A047C0B208B0BF
:100E500070BD00BFF76D000070B5064688B00D4646
:100E600014460D4803F082FC0DF1070202920122A4
:100E7000039200228DF810200722CDE905548DF849
:100E800007608DF81C20836802225C6802A9192380
:100E9000A047C0B208B070BDF76D000030B58DB08E
:100EA000204803F063FC20B91F4804F064FF0DB034
:100EB00030BD1E4B019319221A701D4A08921D4A1B
:100EC00009921D4A0A920822ADF814200C228DF8CE
:100ED0000C20684646228DF8162004F077FDE0B914
:100EE000164804F048FF1649B62004F05EFD2120A4
:100EF000002104F02BF8684600F0DEF978B91148BB
:100F0000114D6C4604F037FF0FCC0FC50FCC0FC549
:100F100094E80F0085E80F00C9E70C48E1E70C48AA
:100F2000EEE700BFF76D0000FD6D000064050020D6
:100F3000590E0000150E0000E95400001C6E000060
:100F4000000200205E6E000030020020396E0000BA
:100F5000786E000070B53E4D0FCD8CB06C460FC45E
:100F60000FCD0FC495E80F0084E80F006946B62046
:100F700004F01BFD044688B9364804F0FCFE00214D
:100F8000212003F0E3FF684604F020FD044360B233
:100F900084B22CB1304804F0EEFE3BE02F48ECE781
:100FA0002F4804F0E8FE6946012004F0D9FC84B221
:100FB0004CB92C4804F0DFFE684604F0D2FD84B240
:100FC0001CB12948E7E72948E5E7294804F0D3FEA2
:100FD000684600F071F984B20CB12648DBE7264878
:100FE00004F0C9FE01216A46084604F017FD84B2E8
:100FF0000CB12248CFE7224804F0BDFE20466B46E4
:101000000122022104F0F6FC84B234B11D482146CD
:1010100004F0B1FE20460CB070BD1B4804F0ABFEDE
:101020006946012004F071FD84B214B117482146CD
:10103000EEE71748064E6D4604F09DFE0FCD0FC635
:101040000FCD0FC695E80F0086E80F001148A2E704
:1010500030020020996E0000FC6E0000C76E000098
:10106000286F00004D6F0000AA6F00006A6F00003B
:101070008E6F0000CD6F0000F26F00000F70000057
:10108000327000004E7000008A700000AF700000E7
:10109000DE700000F670000030B50C4D0FCD8FB043
:1010A00002AC0FC40FCD0FC495E80F0084E80F0009
:1010B000002302A901A8019304F07BFD10B10448AC
:1010C00004F059FE01980FB030BD00BF300200207F
:1010D0000E710000F7B50546294600208DF8040082
:1010E0008DF8050004F069FBAB6A696804464FF4AB
:1010F000E17098474CB92B46012201A9592004F010
:1011000080FB0446002800F08780204603B0F0BD35
:1011100073092F698DF806302846C6F34303374418
:101120008DF8073004F0E2F9002872D1002F70D05A
:101130002B4601220DF107015B2004F062FB0446FF
:1011400078B92B4601220DF106015C2004F059FB11
:10115000044630B9AA8A2B4639465E2004F00BFAC1
:101160000446AB8A1E44B6B2AB8DB342D0D8002C35
:10117000CBD101262B46324601A959208DF80460B7
:1011800004F03FFB04460028BFD1AB6A69682548DC
:10119000984732462B460DF105012A2004F085FAC6
:1011A0009DF8056006F00F068DF8056004460028DE
:1011B000ABD1012E32D12946304604F0FEFA044666
:1011C0000028A2D18DF806008DF80700284604F00B
:1011D0008DF90446002898D12B4632460DF10601C0
:1011E0005B2004F091F9044600288ED12B4632464C
:1011F0000DF107015C2004F087F90446002884D132
:101200009DF8063003F00F03EB759DF807302B7641
:101210007BE74FF0FF34A4E70646A5E76FF0040430
:1012200073E700BFF0490200F7B51C46214B164694
:101230001A889B788DF80630074645F2567320468B
:101240000D46ADF80420ADF8003004F04FF970BB46
:101250002346032201A9562004F027FA38BB02AB2B
:10126000012E03EB07064FEA152217BF16F8041CE0
:1012700006F8045C21EA050506F8045C16BF9DF833
:1012800006308DF80620934301A918BF8DF806306B
:1012900016F8080C23460122394404F0B2FA30B99A
:1012A000234601220DF10601582004F0AAFA03B0EA
:1012B000F0BD00BF836C000090B10378162B12D1F3
:1012C000838A9A1E92B241F2FE718A420ED8DA07E0
:1012D00044BF03F1FF338382064B0361FFF7FABE7D
:1012E0004FF0FF3070476FF0030070476FF0090058
:1012F000704700BF2B71000030B5054685B00C4625
:101300000A4803F033FA02228DF800508DF80140AC
:10131000CDF804D002928DF80C20836801225C681D
:1013200001A95723A047C0B205B030BDF76D00003A
:1013300030B5054689B00C460D4803F017FA0DF19B
:10134000070202920122CDE9054203920021072201
:101350008DF807508DF810108DF81C20836802223C
:101360005C6802A95723A047C0B209B030BD00BFD6
:10137000F76D000013B5FF200DF10701FFF7D8FF4F
:10138000044650B99DF80730152B0CBF044805489A
:1013900004F0F1FC204602B010BD0348F8E700BF9E
:1013A0002B8900004D890000768900002DE9F0416D
:1013B00090B0182206460D4604A8002104F05AFEFB
:1013C000284B0024186802909B882C600DF10601C0
:1013D00034600420ADF80C30FFF7AAFF0DF10601D0
:1013E000062002AFFFF7A4FF1F4803F0BFF9072252
:1013F0000DEB02010A9101210B9106218DF80720C6
:101400008DF830400D970E918DF83C2083680222B4
:10141000D3F804800AA95723C04704AB013417F856
:10142000012B43F8042B062CF8D1059B049A1B02D0
:1014300003EB0243069A13443360089B079A1B028E
:1014400003EB0243099A13442B603368C3F311037F
:1014500033602B680020C3F311032B6010B0BDE88C
:10146000F08100BF866C0000F76D0000014804F0B9
:1014700082BC00BFAA89000070B5274803F076F946
:10148000044628B9BDE870402349244804F073BCE1
:10149000112140F2111204F003FC014630B11E4A42
:1014A0001F481123BDE8704004F065BC11214FF4C2
:1014B000A822204604F0E0FB014618B1164A19485C
:1014C0001123EFE71849194B4B604FF400338B6041
:1014D000A368DB6913B10122204698470E4803F048
:1014E00045F9054640B90C49114804F044FC114B3C
:1014F0001C60114B1D6070BD0A214FF4007204F096
:10150000CFFB01460028F2D0034A0C480A2304F01E
:1015100032FC0025EBE700BFBB890000C289000058
:10152000E0890000098A0000600200206D140000BC
:101530003F8A00006C020020700200205A8A0000DE
:10154000024B1968024B186804F0BDBB7002002002
:101550006C02002030B5054689B00C460D4803F0FA
:1015600005F90DF1070202920122CDE9054203922D
:10157000002107228DF807508DF810108DF81C20DF
:10158000836802225C6802A95023A047C0B209B058
:1015900030BD00BFF76D000030B5054685B00C4684
:1015A0000A4803F0E3F802228DF800508DF801405C
:1015B000CDF804D002928DF80C20836801225C687B
:1015C00001A95023A047C0B205B030BDF76D00009F
:1015D00013B5FF200DF10701FFF7BCFF044650B91A
:1015E0009DF80730302B0CBF0548064804F0C3FBBC
:1015F000204602B010BD0146034804F0BCFBF7E7EB
:101600008E8A0000B08A0000D98A000010B500213F
:101610000120FFF7C1FF002104460420FFF7BCFFB3
:10162000002104430520FFF7B7FFA4B204430021C3
:101630000620FFF7B1FFA4B204430F210920FFF7F2
:10164000ABFFA4B204431A210A20FFF7A5FFA4B2FE
:101650000443C1211420FFF79FFFA4B20443A4B2A6
:1016600024B9034804F087FB204610BD0148F9E780
:10167000108B00002B8B0000F7B50023036004469D
:10168000C1211420FFF788FF0DF10701054608204E
:10169000FFF760FF0DF1070108209DF80770FFF7C5
:1016A00059FF9DF8076006EB072626600DF107013C
:1016B0000520FFF74FFF266015B1034804F05BFBE0
:1016C000284603B0F0BD00BF4D8B0000014803F079
:1016D0004DB800BF728B000070B5194803F046F892
:1016E000064630B91748164904F045FB4FF0FF3065
:1016F00070BD4FF40072042104F00AFB044638B1B7
:10170000042311480E4A214604F035FB20B2EFE7CE
:101710000B4803F02BF805460028E3D040F20122E5
:10172000032104F0F5FA044608B10323E9E707486A
:1017300004F021FB064B1E60064B20461D60D7E7D8
:10174000BB890000788B00008F8B0000BF8B0000EE
:10175000740200207802002038B50B4D4FF47A74E3
:1017600028680122042104F0E6FAFA2005F017F9AE
:1017700028680022042104F0DEFAFA2005F00FF9AF
:10178000013CEDD1012038BD7402002010B50B4C96
:101790000346206873B10022032104F0CCFA002133
:1017A0004FF4804003F0D2FB20680122032104F0B3
:1017B000C2FA10BD01220321F9E700BF7802002020
:1017C0000B6801330B60014B1B681847A000002019
:1017D0002DE9F04F85B09B460E9CDFF89090012CD0
:1017E000B8BF0124012B0CBF302320231546064629
:1017F0008A46029301274FF00A080022B5FBF9F34D
:1018000001930AB9A9451FD8019B514603F1300045
:10181000B04701370122019B08F1FF38B8F1010FF1
:1018200009FB13554FF00A03B9FBF3F9E6D1514612
:1018300005F13000B047BBF1030F02D1E41B002CCF
:101840000EDC05B0BDE8F08F4445E4DBBBF1020FD0
:10185000E1D8029803925146B0470137039ADAE77C
:1018600051462020B047013CE9E700BF00CA9A3B3F
:10187000014B1860704700BFA00000202DE9F04F19
:101880008DB01C460027531E05468B4603934FF030
:10189000FF39B846002605E06EB9252800F07181B1
:1018A0005946A847039B13F8010F03930028F3D16F
:1018B0000DB0BDE8F08F7A280AD8622810D83028F9
:1018C00054D045D8252800F05A812D2800F05F819A
:1018D00059462520A847039B18785946A847D9E7B9
:1018E000A0F16303172BF3D801A252F823F000BF35
:1018F000771B0000BB190000D1180000D1180000B0
:10190000D11800009D190000BB190000D11800007B
:10191000D11800009D190000D1180000D118000056
:10192000D11800005D1A0000D1180000D118000085
:10193000471B0000D11800002B1A0000D11800002E
:10194000D118000059190000D11800009D1900009D
:1019500039281AD95828BBD1039B1B78702B40F02B
:10196000888054F8043B0693002290E0B9F1000F00
:101970000EDAB8F1000F00F00D81A0F13009B8F1D6
:10198000000F08BF4FF002088CE7B9F1000FF4DB3D
:101990000A2303FB0909A9F13009F0E7682803D1FC
:1019A000682F06D148277DE76C2802D16C2F00F004
:1019B000F480002F8CD1074674E77A2F02D154F8B7
:1019C000046B21E06C2FFAD04C2FF8D1073424F0AF
:1019D0000704F4E80223CDE90423049B13F100413A
:1019E000059B089143F100010991DDE908230021DD
:1019F0004FF0FF30994208BF904204D25946284622
:101A000004F0ABF946E7049E002E05DA59462D2076
:101A1000A847764209F1FF39CDF800904346324697
:101A200059462846FFF7D4FE34E77A2F02D154F8FE
:101A3000042B0FE06C2FFAD04C2FF8D1073424F090
:101A40000704F4E8022300214FF0FF30994208BF59
:101A50009042D3D3CDF800904346E1E75946302079
:101A6000A84759467820A8474FF008094FF00108C9
:101A700072E76C2F3FF475AF4C2F7FF472AFE31D0C
:101A800023F007031C4654F8082B06925A680021DD
:101A90001023049107914FF0400AAAF1040A069915
:101AA000CAF1200EAAF1200C21FA0AF002FA0EFE69
:101AB00040EA0E0022FA0CFC40EA0C0010F00F0085
:101AC00007D1079911B9BAF1000F25D14FF0300CA9
:101AD00005E009288CBF4FF0570C4FF0300C6044E4
:101AE000594640B20A920793A847049B0A9A0133C9
:101AF0000493079BBAF1000F23D1B8F1030F7FF4D1
:101B0000C9AE049BC3EB4906002E7FF7C3AE59460E
:101B10002020A847013EF7E7591E99450A9107DBA7
:101B2000B8F1010F06D10B9259463020A8470B9A05
:101B30000A9BB2E7B8F1020FFAD10B925946202066
:101B4000F4E70796A9E754F8046BB24653461AF82F
:101B5000010B68B9B8F1030F21D19E1BA9EB060652
:101B6000002E7FF797AE59462020A847013EF7E7A1
:101B70005946A847EAE754F8040B5946AEE65946D9
:101B8000ACE63746B0464FF0FF3901268AE64FF003
:101B9000030887E64FF0010884E64C2782E60646F4
:101BA00080E600BF07B50B460021024601910348BD
:101BB00001A9FFF763FE03B05DF804FBC117000045
:101BC00010B50748074C02F0D1FD074B18602046BE
:101BD00001F0CAF92046FFF74BFE002010BD00BF00
:101BE000DA8B0000ED1B00007C0200200A2838B5CB
:101BF000074D044604D1286883680D215B68984727
:101C000028688368E1B25B689847204638BD00BF0A
:101C10007C020020F8B5124EF3680C2404FB00345B
:101C20000123054663724FF02003EFF3118183F324
:101C30001188BFF36F8F23682BB160681A68226028
:101C4000834208BF626081F31188BFF36F8F03B9CD
:101C5000F8BDD3E9017229463046B847E3E700BF33
:101C6000600100202DE9F8434668D0F80CE00C46EE
:101C7000CFB24AB10C237B435EF803309A425ED068
:101C800013B11B68002BF9D14FF02003EFF3118C37
:101C900083F31188BFF36F8F0C2179430EEB01039F
:101CA0001D7A0135EDB21D728CF31188BFF36F8F71
:101CB00062B34FF0804C4FF00308CCF8088393F8E0
:101CC00009C0BCF1000F15D14FF02008EFF31189C6
:101CD00088F31188BFF36F8FC2F800C0D3F8048077
:101CE000B8F1000F27D15A604EF8012089F311880E
:101CF000BFF36F8F4FF080430321C3F80413BCF18F
:101D0000000F03D0D2E9013221469847012D10D1AE
:101D1000012C07D10C4D2B7823B94FF4A57004F09A
:101D20003EFE2C7006EB87060122B37803F1804358
:101D30001A60002005E0C8F800205A60D6E76FF06E
:101D40000F00BDE8F88300BF66050020154B07B5FE
:101D50001A6882B14FF08042D2F80423D1070AD525
:101D600000221A601B680093009B0F4BDB68587AB7
:101D700008B9FFF74FFF0D4B1A6882B14FF0804250
:101D8000D2F8042392070AD500221A601B68019337
:101D9000019B012003B05DF804EBFFF73BBF03B0EC
:101DA0005DF804FB000100406001002004010040D8
:101DB000821C084B22F07F42C3F84025D3F804254B
:101DC000904200D17047D3F80405821C22F07F4274
:101DD000F2E700BF00100140044B002282B01A60FD
:101DE0001B680193019B02B0704700BF4011014086
:101DF00008B5FFF7F1FF074B074AD3F84005136812
:101E0000C01A20F07F4003441360BDE8084003F08F
:101E10004FBA00BF001001409802002038B51448A6
:101E200002F0A4FC00B38368124D1B68012100245A
:101E30009847C5F80845FFF7CFFF0F4B4FF4003226
:101E4000C3F880214FF48033C5F8043322460121C2
:101E5000112000F0E7F8112000F0D4F8074A012320
:101E6000136020462B6038BD4FF0FF30FBE700BF0A
:101E7000E18B00000010014000E100E0081001408B
:101E800070B52A4B2A4C1968D4F80425294D521AEA
:101E9000B0F1FF3F08BF284622F07F43120234D43E
:101EA000013820EAE070A842A8BF284601334FF469
:101EB00080361844C4F80863A84294BF0D184D1921
:101EC000D4F80405D4F84015FFF786FF091A21F06D
:101ED0007F4120F07F430129C4F84035C4F84463B2
:101EE00004D10F2004F05BFDFFF776FF124B4FF497
:101EF0000032C3F88021D4F804052B1A23F07F4365
:101F0000012B04D1FFF754FF0BE00020CEE725F0B2
:101F10007F43C4F84035D4F804052D1A023D2B0246
:101F2000F0D44FF48033C4F8043370BD980200201D
:101F300000100140FFFF7F0000E100E04FF02002B1
:101F4000EFF3118382F31188BFF36F8F064AD2F843
:101F50000405064A1268801A20F07F4083F3118836
:101F6000BFF36F8F704700BF001001409802002040
:101F700010B5114C114AA2610323C4E90433104B7C
:101F8000E36122664FF480630E4A0F492362626662
:101F900000231022E01DA3626362E3622367E3660D
:101FA0006367A26604F017F80849204604F013F8A6
:101FB0002023A37110BD00BF9C020020F18B000004
:101FC0007705002067050020FA8B0000FE8B0000DB
:101FD000094A0A499368096819670949D8664B682C
:101FE00043F080534B60002383F31188BFF36F8F5E
:101FF0009368186F704700BF18050020886D0000B7
:1020000000ED00E043B2002B08DB012200F01F00CE
:1020100002FA00F05B09024A42F82300704700BF51
:1020200000E100E043B2002BA8BF03F1604301F1DF
:102030000101B8BF064B4FEA4111ACBF03F5614344
:1020400000F00F00C9B2B4BF195483F800137047F1
:1020500014ED00E0C0E918120A44203A22F0070209
:1020600008491360009B5360019B9360029BD360FF
:102070004FF08073D36121F001010023916102656B
:10208000C3667047915D0000F8B506460C461746DA
:102090001D4600F0CDF9094B3C4424F007049E6036
:1020A000284684F30988002163B681F31188BFF3C1
:1020B0006F8F0022002303F06BFE00BF1805002085
:1020C0000E4A08B50E4B22F07F029A60BFF34F8F85
:1020D000BFF36F8FD3F8882022F47002C3F88820F2
:1020E000EFF3148323F0040383F3148802F07CFBE2
:1020F00002F084FB00F06AF902F0BEFB0000000071
:1021000000ED00E00F498A684FF030001044EFF313
:10211000098C80E8F01F202080F31188BFF36F8FB7
:10212000094F4FF000664A6A8A603E60D06E002315
:10213000D36680F3118802F1300090E8F01F8CF331
:10214000098870471805002004ED00E01EF0040F18
:102150000CBFEFF30880EFF30980816911F8021CCE
:102160000229FFD001B503F02BFF01BD0149102268
:102170000A60704710ED00E072B6404080F31188AD
:10218000BFF36F8FBFF34F8F30BF62B6BFF36F8F58
:10219000704700BF30BFFFF7FDBF00BF01B572B68B
:1021A0000B4A106A00281EBF0021116204F0F8FAE1
:1021B00062B6EFF30580A0F110004FEAC0000549B8
:1021C000014409C99847BDE8014003490847000098
:1021D000180500203C6B00002122000003F0E8FFFE
:1021E000202080F3118808484FF40061401880F3E4
:1021F0000988EFF314800221084380F31488BFF3A9
:102200006F8FFFF75DFF0000C00E0020EFF3088026
:10221000EFF30981724601B500F05CF801BD00BF23
:10222000044B9968586A884203D003494FF08052A2
:102230000A6070471805002004ED00E00C4B9A6A14
:102240009A6A9A6A920708D55A6B9A6A120604D556
:1022500018B19A6A22F080029A62054B9A6A9A6AC9
:102260009A6A9A6A002042F0FF029A6208707047E8
:1022700000ED00E00D4B9A6A9A6A9A6A920508D5B9
:102280009A6B9A6A120404D518B19A6A22F4004231
:102290009A62064B9A6A9A6AD20558BF9A6A9A6AF3
:1022A000002042F47F429A620870704700ED00E01F
:1022B000074B9A6A9A6A9A6A9A6A9A6A9A6A9A6AB0
:1022C0006FEA02426FEA12429A620020704700BF32
:1022D00000ED00E070B5364B5B688AB00E46C3F384
:1022E0000803002585F31188BFF36F8F02F07F414B
:1022F000B1F17F4F11D102F00C0108290DD0110767
:1023000001D4064601250022033B8DF80720032B4C
:1023100047D8DFE803F0043E423B2E46F3E7244B68
:10232000DA6A92073DD4DC6A14F0804408D028337E
:102330001B78EBB10DF107010120FFF77FFF044689
:102340009DF8073093B92022314602A803F067FEBA
:10235000099B45B3C3F3080222B96FEA53236FEA1E
:102360004323099302A9204603F028FE0AB070BD5A
:10237000104B1B782BB10DF107010120FFF77AFFFD
:10238000DDE70D4B188884B2002CD9D0FFF790FF01
:10239000D5E70DF107010020CFE70DF1070100207F
:1023A000ECE70024CCE723F4FF7323F00103D8E724
:1023B00000ED00E029ED00E02AED00E0024A53695B
:1023C00043F010035361704700ED00E00448002320
:1023D0002021C2180133272B82F80013F9D170474E
:1023E00000E100E038B504464FF02003EFF311851B
:1023F00083F31188BFF36F8F02F070FC0A4B9B6868
:10240000A3420BD1094B5A68C2F3080212B92846FD
:10241000FFF7DEFD5A6842F080525A602846BDE858
:10242000384004F0F3B900BF1805002000ED00E0CB
:102430001FB5084B0193084B0293084B039301AB64
:102440000093074A074B0121684600F093F805B056
:102450005DF804FB000000200000000000000B06F7
:102460000000002000000120DFF884C0F0B506461F
:10247000002710468F4200DBF0BD56F827E0DEF85B
:10248000044094B343B1651E2C4219D11F2C17D9B7
:10249000DEF80020154213D1202CC2B2DEF8005025
:1024A000DEF808000FD9B4F1004F0ED8013CB4FAA1
:1024B00084F4C4F11F046400072A44EA000406D926
:1024C0006FF01500D8E70824F6E73E24F4E725F07E
:1024D0001F05154345F0100544F00104CCF8082011
:1024E000501CCCF80C50CCF810400137C2E700BFAC
:1024F00090ED00E0034B05225A60BFF34F8FBFF30E
:102500006F8F704790ED00E0BFF35F8F014B0022AB
:102510005A60704790ED00E013490868082810B52C
:102520001ED8FFF7F1FF114C49680022904201F1DB
:102530000C0105D10E4B1870FFF7DCFF002010BD19
:10254000A26051F80C3C23F01F03134343F0100327
:10255000E36051F8043C43F0010323610132E5E7F5
:102560004FF0FF30EBE700BFAC6C000090ED00E0F7
:102570007709002010B5034C01232278FFF774FF80
:10258000207010BD770900202DE9F04FA1B01E4644
:102590000023039089460293134613F8010B069318
:1025A00058B1252800F081804946039B98470130A7
:1025B00040F04A844FF0FF330293029821B0BDE807
:1025C000F08F2B2D65D05CD8202D65D0232D66D0C3
:1025D000002DF2D0CDF81880DDF81880A44818F846
:1025E000015B294603F001FD0028EAD12A2D63D1C1
:1025F00056F8043B0793002BBFBF5B4207930123B0
:102600000D93069B98F8005003F102082E2D78D107
:1026100098F800302A2B71D156F8044B08F10108C4
:1026200018F8015B934829462F4603F0DEFC00288A
:102630006AD04346682F13F8015B069307D1682DD3
:1026400005D108F1020398F8015006934827782D28
:1026500008D8572D5CD8252D00F0F28300F2A28017
:10266000002DAAD0039B4946252098470130A1D0D0
:10267000039B49462846984701309BD0029B023372
:10268000E4E32D2D0ED0302D089B08BF01230893C5
:10269000A0E7012309939DE701230C939AE74FF0EC
:1026A000010A97E701230D9394E7002308930C9305
:1026B00009930D939A468FE7A5F13003092B0790F4
:1026C000A4D80A22DDF8188018F8015BA5F13003C0
:1026D000092B9BD8079B02FB0355A5F13003CDE9DD
:1026E0000683EFE701FB0434303C9046424612F883
:1026F000013BA3F130000928F4D991E700240A2115
:10270000F4E74FF0FF348DE7CDF8188007469EE7D9
:10271000A5F15803202BA5D801A252F823F000BF41
:10272000A52D000065260000652600006526000036
:10273000652600006526000065260000652600006D
:102740006526000065260000652600007928000047
:102750004F290000B1270000B1270000B127000079
:10276000652600004F290000652600006526000050
:102770006526000065260000312D0000A52D000013
:102780005B2D000065260000652600007D2D000001
:1027900065260000A52D00006526000065260000C6
:1027A000A52D0000A5F14503DBB2022B3FF65AAF81
:1027B000073626F007031946F1E80223D80240EA5B
:1027C0005250D60220F0004004960590DDE90467DF
:1027D000002A0191C3F30A5173F10003CDE9146794
:1027E00080F2E5802D238DF864300DF1650740F20D
:1027F000FF73994240F0F680DDE904120A43A5F127
:10280000410507F1030340F0E280192D00F2D98061
:1028100049223A704E227A704622002419AEBA70CC
:10282000FC709B1BA246A346099A002A40F07D82B9
:102830000C9A002A40F079829DF86480A8F12D025C
:10284000D2F1000848EB02080BEB0A0633441E19CC
:1028500020AB434413F81C3C303B092B00F2FE82B2
:10286000089B002B00F0FD82079B19AF9B1B14E017
:10287000058C00000B8C000032464FF0000852F827
:10288000043B01928DF864300126444619AF04EBF5
:10289000080300249B1BA246A34623EAE3739A196C
:1028A0000892079A9919551A0D9A12B9002D00F33A
:1028B000ED8207EB0802BA4240F0EA82013B80F069
:1028C000F582A6EB0806BBF1000F10D0387807EBB5
:1028D0000608A0F13003092BA8EB070640F2F182AD
:1028E000D846B8F1010880F0F582A6EB0B06BAF1E4
:1028F000000F16D007EB060817F801BB039B4946EB
:102900005846984701303FF455AEBBF12E0FA8EB67
:102910000706F1D1D046B8F1000F00F3E482A6EB30
:102920000A0694B1387807EB0608A0F13003092BAA
:10293000A8EB070640F2E2822E2800F0DF82A046D4
:10294000B8F1000F00F3E382361B3E44F2E2356833
:10295000331D002D01931CDA2D238DF8643069425C
:102960000DF1650630460A2203F0A7FB099B0644D9
:1029700019A8361A002B40F06C820C9B002B40F0FB
:1029800068824FEAD578002C80DA0024A246A3465C
:1029900066E7099B23B12B238DF864302946DFE7D6
:1029A0000C9B0BB12023F7E7294619AEDAE7099B08
:1029B0000BB12B2317E70C9B0BB1202313E719AFA7
:1029C00015E769223A706E227A70662225E7192D82
:1029D00099BF4E2241216E22612194BF3A703A7014
:1029E00079701AE7049B05980B430E93CB170343AA
:1029F0000F93DDE90E23462D08BF6625134300F033
:102A00000781002900F09F80159B43F00043A1F24D
:102A1000FE381593002618F1020FC0F2A880B8F115
:102A2000000F00F3D48014A808F1010803F069FB3B
:102A3000B8F1040FF7D1002C05F0DF03B8BF06246E
:102A4000472B40F0EE80F11C02DBB44280F2E380C1
:102A5000023DEDB2002C00F0EA80013CBAF1000F1B
:102A600040F0E580002CD4BF4FF000084FF0010883
:102A7000662D40F0DE8014EB060B4FF0660500F18A
:102A8000DB80BBF1100FA8BF4FF0100B1023139386
:102A900000224FF00063CDE91623BBF1010B80F05B
:102AA000CE80149B169A17999B18159A41EB020237
:102AB000CDE9143202F07043109300231193DDE945
:102AC0001023134306D014A803F02DFB14A803F021
:102AD00018FB0136662D40F0CF80002E40F3B68003
:102AE000139B002B07DD13A914A803F045FB013E3F
:102AF00007F8010BF4D1B3463B460026BAF1000FAC
:102B000001D1002C15DD2E2203F8012B002E00F040
:102B1000AE80002C40F3AD80C6F1000AA245A8BFEC
:102B2000A246A4EB0A04002C03DD139A002A00F34A
:102B30009480B8F1000F40F0B480002219AE1A70F2
:102B40009B1B71E60139049BDB180493059B5B41D9
:102B50000593DDE90423002A73F10003F2DADDE9CD
:102B60000423CDE914234FE714A803F0CAFADDE9E2
:102B7000142C0023CDF828C00B93DDE90A010029AD
:102B800008BFB0F1333F08F10108EDD20520A2FBE8
:102B9000002300FB0C33CDE91423013E4FF0000E5F
:102BA00000214FF0000C6FF0004B8C4508BF9B4597
:102BB00006D2BEF1000F3FF42EAFCDE914232AE771
:102BC00092185B4108F1FF384FF0010EE8E714A8B6
:102BD00003F0A9FADDE9141008F1FF3801364FF0CF
:102BE000000E00234FF0000C6FF0004B9C4508BF17
:102BF000834506D2BEF1000F3FF411AFCDE91410AA
:102C00000DE74918404108F1FF384FF0010EE8E7A1
:102C10000026B04607E7A41BBAF1000F04D16625D1
:102C200020E74FF0000823E74FF0000823E74FF0BC
:102C3000000804F1010B24E74FF0000B26E716A86B
:102C400003F071FA16A803F05CFA26E73B4630223F
:102C500003F8012B4FF0000B50E713A914A80A93B7
:102C600003F08AFA0A9B013C03F8010B5BE7B246CA
:102C700059E74FF0000A5CE713A914A803F07CFAA7
:102C80003028387018BF06F1FF36BAF1000F37D17F
:102C9000002C35DC7B1CB8F1000F43D04FF0000B4B
:102CA000DA46194613F8012D302AFAD02E2A18BF19
:102CB0000B46002405F0DF02452A7FF43EAF002ECC
:102CC0001946BABF76422D222B22632E01F8025BF1
:102CD0005A7008DD642096FBF0F202F13005D91C31
:102CE0009D7000FB12660A200B4696FBF0F200FB7B
:102CF000126602F13005303603F8025B4E701CE7B5
:102D00002E22BB1C7A70002CC5DD139A002AC2DD6E
:102D100013A914A80A9303F02FFA0A9B013C03F8A5
:102D2000010BF0E7C346C246C4E74FF001088BE54C
:102D30003246682F52F8043B019206D06C2F09D01E
:102D4000482F07D1029A1A7001E0029A1A80019E58
:102D5000069A21E4029A1A60F9E747F63003ADF8C3
:102D600064303346102253F8041B01930DF16600C2
:102D700003F0A3F94FF00208861C04E63346002C4A
:102D800053F8047B0193B8BF6FF000440026B442AF
:102D900003D126460024A04679E5BB5D002B5BD01D
:102DA0000136F4E7331D6F2D3168019319D1BAF163
:102DB000000F08D030238DF8643079B98DF8651094
:102DC00088460126DFE519AD2846082203F075F98B
:102DD00019AEAD1B2E184FF00008D4E50DF16505B6
:102DE000F2E7752D05D10A2219A803F066F9064607
:102DF000F1E7BAF1000F11D047F63003ADF86430B7
:102E00000DF166071022384603F057F9582D07D008
:102E100019AEBF1B3E184FEA4A08B4E519AFF1E7F7
:102E200019AA12F8013BA3F16101192903D8203B2B
:102E300002F8013CF5E712F8013C002BF1D1E7E77D
:102E400049462846FFF7B1BB029B0133CDE9016338
:102E50007DE74FF0010896E51C469CE719AF00237B
:102E60001DE5089B19AF1AE509934946039B079294
:102E7000202098470130079A099B3FF49BAB013A09
:102E8000F2D2029929440291154612E52A46F6E744
:102E9000099317F8010B039B0792494698470130A5
:102EA000079A099B7FF407ADFFF784BB0793494658
:102EB000039B302098470130079B7FF4FFACFFF75E
:102EC00079BB039B4946984701303FF473AB17F831
:102ED000010FFEE4039B49463020984701307FF400
:102EE00000ADFFF767BB039B494630209847013090
:102EF00008F1FF387FF40FADFFF75CBB039B494639
:102F0000984701303FF456AB17F8010F0DE5039BCE
:102F1000494630209847013008F1FF387FF410AD62
:102F2000FFF748BB17F8010B039B49469847013050
:102F30003FF440ABF31B002BF4DC029B089A002DFE
:102F4000134402937FF703AF2C4606E0039B4946E8
:102F50002020984701303FF42DAB013CF6D2029B74
:102F60002B440293F3E600BF014B1860704700BF8B
:102F7000A4000020022902D1024B1B6818474FF021
:102F8000FF307047A40000200FB407B504AB022146
:102F900053F8042B04480193FFF7F6FA03B05DF8E9
:102FA00004EB04B0704700BFAD6100004FF0200398
:102FB000EFF3118283F31188BFF36F8F064901236A
:102FC000C1F840354FF08041C1F8783582F311885F
:102FD000BFF36F8F0020704700E001404FF0804347
:102FE000C0B2C3F81C05BFF34F8F0549054BCA6833
:102FF00002F4E0621343CB60BFF34F8F00BFFDE7E5
:1030000000ED00E00400FA0520B1034B800143F01D
:1030100001031847704700BF906C0000054A012368
:10302000C2F8003508B1D36070471360024A1360DC
:10303000704700BF0070004004700040087970B510
:1030400000F01F04072C1FD80B78092B1CD8DFE8D1
:1030500003F006060606061B051E1B2005234A78FC
:10306000032A18D0042A0FD100254A8844F20A0600
:10307000B24244D011D844F20306B2423BD044F2EB
:103080000506B24239D0D2B36FF0150032E0062304
:10309000E5E70723E3E70125E7E744F21406B24238
:1030A0002FD044F22806B2422DD044F20F06B2428D
:1030B000EAD10322C0F340101B0243EA005343EA63
:1030C000053343EA0243220102F1804202F5E04265
:1030D0000020C2F81835230103F1804303F5E043D3
:1030E0008A79C3F81425C3F81005084B1C444B79A2
:1030F00084F8983070BD0022DCE70122DAE7022272
:10310000D8E70422D6E70522D4E700BF000000205C
:10311000F7B50546406810B96FF01500A7E030F02C
:10312000FF03F9D15C4C5D4F1A4620FA03F111F010
:10313000010133D0F91891F898C0BCF1000FEBD021
:1031400004EB031E6E7CDEF81815003E18BF012646
:1031500021F0807141EA0661CEF8181503F15101A2
:103160000901013244F801C0D2B20133082BDCD18D
:103170002B7C083B062BCFD801A151F823F000BFD0
:103180007B32000019310000A73100001931000026
:1031900073320000193100007732000003F151064C
:1031A0003601A151E1E701213B4B012AC3F8F0159B
:1031B000697C64D90029AFD1C3F8F415296853009C
:1031C00011B1098901FB0333E968994261D3324B9C
:1031D000A968C3F82C162F46C3F830260FCF2F4C02
:1031E00004F174060FC63B6833602A680026A666A1
:1031F000002A47D007CA04F1880383E80700636701
:10320000A4F8946000283DD0BFF35B8F54E8003FE2
:1032100044E80062002AF9D1BFF35B8FD4F888300C
:103220004FF4004040F2E736002703F2E7334FF453
:103230007A71B3FBF1F1E0FB01674FF47A7200237E
:1032400030463946FDF790FB0022CDE9000100230E
:1032500004F1080002F0C0F894F87030BBB91048CF
:103260004FF0FF324FF0FF3301F0BCFEA06E03B011
:10327000F0BD022198E7032196E7002194E7082991
:103280009AD949E794F88600FFF7C8FEE4E70020E2
:10329000EDE76FF00B00EAE700700040000000204F
:1032A0005000002070B50C4616460D4D4FF0FF3211
:1032B0004FF0FF3305F1380001F094FE0123204662
:1032C00085F87030EE66FFF723FF95F870300446FE
:1032D00003B110B1034801F05FFE204670BD00BF8E
:1032E0000000002038000020384B1A6813B5002A6F
:1032F0005BD000221A601B680093009B344C354B56
:1033000001211960C3F8F824636F002B3DD0D4F875
:103310008C3043B1B4F8942004F17401984701282B
:1033200014D002282BD0B4F89430B4F890209A42EC
:1033300025D90133A4F89430274BD3F82C26D3F8A1
:10334000341689B202EB4102C3F82C26D4F8883037
:1033500033B994F8860002B0BDE81040FFF75EBEB6
:10336000BFF35B8F54E8003F5A1E44E80021002958
:10337000F8D1BFF35B8F012BEBDC02B010BDD4F8AA
:10338000883013B1154803F050FB94F8703053B1F6
:10339000E06E10B1002102F06DF8114802B0BDE8F6
:1033A000104001F0F9BD0F48F8E70F4B19680029EC
:1033B000E3D01A601B680193064A019B0123136046
:1033C00042F8083C42F8043CD7E700BF04710040D3
:1033D000000000200870004000700040080000203D
:1033E00038000020500000201071004013B5104B31
:1033F00000241C601B680193019B0E4B1C601B6822
:103400000093009B0C4B1222C3F804230720FEF705
:10341000F9FD224601210720FEF704FE0748036C50
:1034200013B9383001F0B8FD002002B010BD00BF64
:103430000471004010710040007000400000002046
:1034400038B50C460C4D4FF0FF324FF0FF3305F10D
:10345000380001F0C7FD0023204685F87030EB6688
:10346000FFF756FE95F87030044603B110B10348DB
:1034700001F092FD204638BD0000002038000020F9
:1034800008B5094B1A786AB901211970062005217F
:10349000FEF7C8FD0620FEF7B5FD044B4FF00042D5
:1034A000C3F80423002008BD780900200060004014
:1034B0002B4BF0B546682B481340834240D00DD8C3
:1034C000062B15D005D89BB1022B3BD06FF0150011
:1034D00035E0B3F5801FF9D1012309E0224883428A
:1034E00032D0B3F5A00F31D0B3F5800FEED1022367
:1034F000D00654BFC2F34015032582F480749705AB
:10350000C2F34020C4F3002407D512F4006F77689B
:103510001ED001228A40C7F80825327A01F01F0127
:1035200041EA421140EA440242EA032301F5E07114
:103530004FF0A04243EA850342F821300020F0BD5D
:103540000723D5E70423D3E70523D1E70323CFE7F8
:10355000520542BF01228A40C7F80C25DDE700BFB3
:103560000600F000060010000200400073B543683A
:103570004F4C1A7AC568D4F8040301F01F0343EADC
:103580004213C0B2002202F5A27654F82660C6F3B8
:103590000426B34272D120FA02F6F6076ED59000E7
:1035A00000F1804000F5C040D0F8106526F001061B
:1035B000C0F81065012000FA02F2C4F808239C004C
:1035C00004F1A044E868D4F80027C84022F440324F
:1035D00010F00100C4F800274ED02869C84010F050
:1035E000010049D0A869C84010F0010050D0EA6934
:1035F000CA40D20758BF6A692D4D5FBFCA4002F06A
:103600000102C2F10202D2B248BF0322002404F533
:10361000A27155F8210010F0030033D1A10001F18F
:10362000804101F5C0411B02D1F8106503F4F85345
:1036300043EA024226F4473604F1400326F440767A
:103640009B00C1F810659BB2D1F8106503F180436F
:1036500003F5C0433243C1F8102518601B6801937D
:10366000019BD1F8103543F00103C1F81035012357
:1036700003FA04F4C5F8044302B070BD0132082A0D
:1036800081D19CE70134082CC1D16FF01200F3E71F
:103690006A69D4F80037CA4002F00102C2F103029D
:1036A00023F4403141EA0242C4F80027E4E700BFB6
:1036B000006000402DE9F34153490D68002D66D0AC
:1036C000524BDA68D3F804C0D2E903030340D2E9CD
:1036D0000604204323EA0003DCF804005269D0F812
:1036E0001045544023EA040401200026002B38D161
:1036F0000B600B680093009B4548002301261F4682
:10370000D0F8042306FA03F1114213D09A0002F113
:10371000804202F5C242116861B103F5A27150F80E
:103720002110176012680192C1F3042106FA01F119
:10373000019A0C430133082BE2D154BB75B1334BD2
:10374000D8685E68D0E903231340D0E906210A4314
:1037500023EA020301240025002B37D102B0BDE883
:10376000F081034210D09CF8087006F01F0242EA74
:103770004712920002F1A04223EA0003D2F8007738
:1037800027F44037C2F8007701364000AEE72C46F8
:10379000B2E71E4FD7F80C80D8F804100029CDD01E
:1037A0000E68002E38BF00268A68D8F810302240F4
:1037B0001A4202D04B6838469847002EBED0336874
:1037C000002B38BF002331461E46EDE71C4217D0C0
:1037D000317A05F01F0242EA41129200416902F17A
:1037E000A042E940D2F8007701F00101C1F10301E4
:1037F00027F4403747EA0141C2F8001723EA0403DF
:1038000001356400A8E700BF7C6100409001002002
:103810000060004010B50446002201210320FEF79D
:1038200001FC6068064A234600F1080100F098FE9A
:10383000044B984214BF6FF00F00002010BD00BF72
:10384000213900000000AD0B2DE9F04F054687B08F
:103850000C4617469946C0684FF0FF324FF0FF33D1
:1038600001F0C0FB6868DFF8B4A000F0BDFE4FF0C7
:103870000008B84501D3002429E094F808B01BF0F3
:10388000080643D11422314601A802F0F3FB626816
:1038900002920BF0010322688DF804301BF0020F36
:1038A0008DF8059004921CD17A1E424502D9227DE2
:1038B000520718D553BB2022686801A900F0BEFE4C
:1038C000504512D0144B984223D06FF0040468681E
:1038D00000F09AFEE86801F05FFB204607B0BDE803
:1038E000F08F3246E8E74022E6E7E86818304FF00C
:1038F000FF334FF0FF3201F075FBEB681B6B534554
:1039000004F10C04E1D108F10108B2E76FF02204E0
:10391000DDE76FF00F04DAE70B00AD0B0000AD0B35
:103920000278CB68012A08D0022A08D04AB9064A90
:103930001A6303F1180001F02FBB044AF8E7044AA8
:10394000F6E7044AF4E700BF0000AD0B0100AE0B40
:103950000200AE0B0100AD0B10B5044600220121A0
:103960002320FEF75FFB6068084A234600F1080148
:1039700000F0E2FB064B984204D1E06802F034FD0F
:10398000002010BD6FF00F00FBE700BF29640000AE
:103990000000AD0B30B5C568EA6C6B6D85B082B9BF
:1039A00073BB1C4600221146284602F0F3FC6C63F0
:1039B00005F11C0001F0F0FA002385F85C3005B039
:1039C00030BD114613B19A4228BF1946AC6CA965A7
:1039D0000094BCB1002A18BF0A4601922A6D0292D7
:1039E00092B1002B18BF0B46406803930022694632
:1039F00000F03EFC054B9842E1D06FF00404D1E7A3
:103A00001946E3E72246E8E71346EDE70000AD0B71
:103A10002DE9F74FC46880460F4616461D4604F14F
:103A2000040A4FF0FF334FF0FF32504601F0DAFA4C
:103A3000D8F80C90D9F800309F4268D0BB8841F686
:103A40000902134240F0B680C3F34513082B40F03F
:103A5000B1803A68594B9A4240F2AC80D8F80430B1
:103A60000093BB68C9F800700BB31868F8B15968C7
:103A7000D0F80CB08368C9B21B6801914FF4007292
:103A8000984748B90199012303FA01F1DBF80030A6
:103A900023EA0103CBF80030D9F800209368B2F98B
:103AA000042019791868D243D20F02F063FC009BFE
:103AB0001968BB88980703F0040258D5002A14BF80
:103AC00003220222022AC3F3001354D0032A55D042
:103AD000012A01D143F00203394AC1F854353B6849
:103AE00093424ED9374A93424ED9374A93424ED9E0
:103AF000364A93424ED9364A93424ED9354A93427A
:103B000034BF4FF080434FF00043C1F82435012308
:103B100084F85C30002E43D033687268A363E2639C
:103B20001A685B68A264E364002D3ED02B686A6863
:103B3000236462641A685B682265636500226263BD
:103B40000121204602F026FC4046FFF723FF4FF0FC
:103B5000FF3204F11C004FF0FF3301F043FA646BB5
:103B6000504601F019FA204603B0BDE8F08F003A44
:103B700018BF0122A6E743F00403ADE743F00603B4
:103B8000AAE74FF00073C0E74FF08063BDE74FF046
:103B90000063BAE74FF08053B7E74FF00053B4E744
:103BA000C4E90E66C4E91266BEE7C4E91055C4E96B
:103BB0001455C3E76FF01504D2E700BF47E80100D2
:103BC0008FD003001FA107003F420F007F841E001B
:103BD000FF083D0000127A00024BD3F88004C3F8BE
:103BE000800470470020004030B54B79012B21D173
:103BF0008B79032B1ED1CA7922B1012A1AD14368CD
:103C00001B78BBB10C7914B1022C13D10E240B68B4
:103C1000B3F5164F5FD02BD8B3F5165F5DD014D82F
:103C2000B3F5966F5BD008D8B3F5967F5AD0B3F54D
:103C3000167F5AD06FF022004CE0B3F5166F57D0C4
:103C4000B3F5965FF6D1344B39E0B3F5E14F52D07E
:103C500007D8B3F5615F50D0B3F5964FEAD12F4B3B
:103C60002DE047F61225AB42E4D14FF4000326E0E5
:103C7000B3F5613F44D011D8B3F5963F42D008D890
:103C80004DF6C025AB423FD0B3F5614FD2D1244BA6
:103C900015E0B3F5E13FCDD1224B10E0B3F5612F34
:103CA00035D007D8204DAB4233D0B3F5E12FC1D189
:103CB0001E4B04E01E4DAB42BCD14FF080531D4D56
:103CC0002243C5F82435C5F86C25C36803C983E8C9
:103CD0000300002030BD184BF1E7184BEFE74FF41D
:103CE0009E23ECE74FF4A033E9E74FF41C33E6E7FB
:103CF0004FF41D23E3E7124BE1E74FF46C13DEE7CB
:103D0000104BDCE7104BDAE74FF46503D7E70F4BB6
:103D1000D5E74FF08063D2E700B0130000A04E005B
:103D200000F0EB0000E0D70190D0030000705F07C7
:103D300040420F000020004000509D00005027002E
:103D400000F0750000B0AF0300903A0100D0BE0E45
:103D5000084B1A6882B052B1002018601B680193AA
:103D6000019B054BD3F818350B7002B070474FF02C
:103D7000FF30FAE70821004000200040F7B50E466A
:103D800002F007FE1B4DC0B964240127BFF35B8F0F
:103D900055E8003F002B03D145E80072002AF7D117
:103DA000BFF35B8F0BD021200021013C01F0CEF846
:103DB00014F0FF04EAD103B0F0BD01232B600E4CD8
:103DC0000022226022680192019A0C4A01211160AE
:103DD000C2F814654FF47A76236823B9012002F003
:103DE00070FB013EF8D1064B01221A6000232B60C4
:103DF000E1E700BF640300201C21004008200040D0
:103E00000C2000404FF0A04337B5164C4022C3F8B9
:103E10000825032100220825C3F81817C3F8202716
:103E2000C4F814550625C4F80C552025C3F80855C8
:103E3000C3F81417C3F81C270523C4F80835072353
:103E4000C168C4F81035FFF7CFFE48B90423C4F8A1
:103E50000035054B18601B680193019B012323600B
:103E600003B030BD00200040082100400B4B1B6810
:103E70005A1C05BF0A4B0B4A0B4A10680ABF1B7835
:103E80001068C0F30310062B05D1033803288CBF3C
:103E90000020012070470020704700BF3001001053
:103EA000E00F00F0E80F00F034010010074B1B7822
:103EB000062B09D1064B1B68C3F30313033B032BEB
:103EC00002D8044AD05C704700207047E00F00F031
:103ED000E80F00F02D8C000008B5FFF7C7FF28B1F0
:103EE0007E4B7F4A1B68C3F304231360FFF7DEFF9A
:103EF00010B17C4B7C4A1A60FFF7B8FF28B17B4BAE
:103F00007B4A1B68C3F342331360FFF7CFFF20B136
:103F1000784AD36823F08073D360FFF7A7FF40B1DE
:103F20004FF080430022C3F80C21C3F81021C3F8DE
:103F30003825FFF7BBFF10B16F4B03221A60FFF764
:103F4000B5FF40B16D4B05221A6001229A6700222D
:103F50009A603F225A606A4B1A68511C0BBF694B2A
:103F6000694B1A781B6802BF08331B68C3F303133D
:103F7000062A4DD1033B032B4AD8644AD35C002B5D
:103F800046D04FF08052624BD2F80414C3F820158B
:103F9000D2F80814C3F82415D2F80C14C3F8281565
:103FA000D2F81014C3F82C15D2F81414C3F8301535
:103FB000D2F81814C3F83415D2F81C14C3F84015FD
:103FC000D2F82014C3F84415D2F82414C3F84815C5
:103FD000D2F82814C3F84C15D2F82C14C3F8501595
:103FE000D2F83014C3F85415D2F83414C3F860155D
:103FF000D2F83814C3F86415D2F83C14C3F8681525
:10400000D2F84014C3F86C15D2F84424C3F87025D4
:10401000FFF72CFF28B13F4B3F4A1B6803F04F03CB
:104020001360FFF723FF48B14FF08043D3F800241B
:10403000D20744BF6FF00102C3F80024304B1B6865
:10404000062B0CD1304B1B68033B032B07D8334A9C
:10405000D35C23B1324A136843F4806313604FF09A
:104060001023D3F80022002A03DBD3F80432002BFC
:104070002FDA2C4B0122C3F80425D3F80024002AA0
:10408000FBD04FF010221521C2F80012D3F8002403
:10409000002AFBD04FF010231522C3F80422214B35
:1040A0001A46D3F800140029FBD00021C3F80415E8
:1040B000D2F80034002BFBD0BFF34F8F1A491B4BB3
:1040C000CA6802F4E0621343CB60BFF34F8F00BFB6
:1040D000FDE7174B174A1A6008BD00BF2403001004
:1040E0004035014074C007400DF0ADBA44020010E5
:1040F0003C050040F0ED00E0A005004010560040F7
:1041000030010010E00F00F034010010258C000099
:1041100000C0004058020010E40E0040298C00004E
:104120003C17004000E0014000ED00E00400FA050B
:10413000480100200090D0032DE9F0470479494D53
:1041400028266643AF1997F81CC0BCF1000F40F059
:104150008680AA517B6091F800E00F7B4FF0A0466B
:10416000012303FA0EF3012F94BFC6F80C35C6F8ED
:1041700008350EF5E0734FF0010C46F823C04B787C
:10418000FF2B1FBF0CFA03FCC6F80CC503F5E07C3F
:104190004FF0030818BF46F82C808E7808BF4FF008
:1041A000FF33FF2E1FBF91F80EC006F5E0794FF0E8
:1041B000A0484FEA8C0C18BF48F829C091F803C0FA
:1041C00008BF4FF0FF36BCF1FF0F0DD04FF0A049F4
:1041D0004FF0010808FA0CF8C9F808850CF5E078EA
:1041E0004FF0030A49F828A04FF0280808FB0458AC
:1041F00088F81EC00068C0F808E5C0F80C358B6868
:10420000C0F81065C0F824354B7B003B18BF012374
:10421000022F1ED0032F1FD0012F01D143F0020324
:10422000C0F85435282303FB04534979D977012377
:10423000C0F800351AB140F30730FDF7E3FE28233C
:1042400003FB045400236377074801232377BDE869
:10425000F08743F00403E3E743F00603E0E7034895
:10426000F5E700BF680300200000AD0B0500AD0BB3
:104270002DE9F7430579414E28236B439646F21802
:104280000F46517F8046002975D156F803C0BCF116
:10429000000F01D00123537797E80F00282404FB77
:1042A000056404F10C0989E80F00A27F0023FF2AAE
:1042B00084F824301FBF012393404FF0A042C2F87E
:1042C0000C352823BEF1000F07D003FB05652C48F1
:1042D00000236B7703B0BDE8F083D8F800400422D8
:1042E000C4F8082303FB0563C4F808E1D4F80821E7
:1042F000C3F820E00092009A7A688AB13B681B7884
:10430000C4F81C35012A0DD93B685B78C4F81C350C
:10431000BCF1000F0ED00423C4F804331948D9E7C8
:10432000DB7FEDE7FB68012BF2D9282303FB056354
:10433000DB7FEBE705EB850106EBC1016746D4F8AF
:104340000831002BFBD0C4F80871D4F80831019370
:104350002046019B02F0B7F80028F0D1282303FB88
:104360000565AA7FFF2AD9D0012393404FF0A042D0
:10437000C2F80835D2E70448ACE700BF6803002064
:104380000300AD0B0000AD0B0B00AD0B0149024863
:1043900002F0CCB8900300200030024037B5344B17
:1043A00001930D464FF48271044602F0E1F84FF498
:1043B000927102F0DDF84FF48E7102F0D9F84FF4EB
:1043C000847102F0D5F800236B6385F82F30AB6A57
:1043D000012B17D12B6A5B0614D40223C4F80032D8
:1043E0000123236295F82D20022A18BF23602B6831
:1043F00093B140F28623AB60AB681E48C4F8043327
:1044000003B030BD0123E9E72946204602F0D5F884
:1044100028B1019B013B0193019B002BF4DC95F833
:104420002F305BB91348019B002BE9DC0023C4F853
:10443000003505231048C4F80035E1E7D4F8C4344A
:10444000C4F8C4348BB10D4A0B4813F0010F18BFE8
:10445000104613F0020F02F1010218BF104613F0CC
:10446000040F074B18BF1846DDE70348DBE700BF22
:10447000A08601000000AD0B0100AD0B0000AE0BEB
:104480000200AE0B37B5314B01930D464FF48271EC
:10449000044602F06DF84FF4927102F069F84FF49F
:1044A0008E7102F065F84FF4847102F061F8002318
:1044B000C0F800326B6385F82F300123036295F852
:1044C0002D209A4218BF8360294602F059F82B68C4
:1044D00083B140F28623AB60AB681D48C4F8043357
:1044E00003B030BD2946204602F067F828B1019B91
:1044F000013B0193019B002BF4DC95F82F305BB955
:104500001348019B002BEBDC0023C4F80035052386
:104510001048C4F80035E3E7D4F8C434C4F8C43410
:104520008BB10D4A0B4813F0010F18BF104613F062
:10453000020F02F1010218BF104613F0040F074BDF
:1045400018BF1846DDE70348DBE700BFA08601007F
:104550000000AD0B0100AD0B0000AE0B0200AE0B76
:10456000F8B507791D4D4FF03C0C0CFB07FC05EB33
:104570000C0494F82E607EBB63604B7BA66084F8CD
:104580002D6084F8306084F8316084F838300C682D
:1045900045F80C204FF0A04604F5E07340F20C6C97
:1045A00046F823C04B68006803F5E07E46F82EC04D
:1045B000C0F80845C0F80C358B68C0F824351AB12E
:1045C00040F30730FDF71EFD3C2303FB075504486D
:1045D000012385F82E30F8BD0248FCE7B80300201F
:1045E0000000AD0B0500AD0B026803790521C2F890
:1045F0000015044A3C2101FB0323022283F82E20EC
:10460000704700BFB803002003680A490279C3F865
:104610000813D3F8001221F00301C3F8001200219F
:10462000C3F80015044B3C2101FB0233012283F83F
:104630002E20704786420400B80300202DE9F04781
:10464000324E90F80480D0F800903C2303FB0863BE
:104650000C4693F82D30012B174604D10B78012B13
:1046600006D12B4811E0022B02D10B78012BF8D197
:104670003C25284BC9F8083305FB086595F8303010
:104680002BB1AB682448C9F80433BDE8F08787F044
:104690000403C3F3800385F830302F62A646BEE8DA
:1046A0000F0005F10C0CACE80F00DEF80030CCF880
:1046B00000306368AB62E3686B626378C9F8883581
:1046C0002378C8EB081A012B06EB8A0A19D0B3B974
:1046D000C7F340173C2303FB0863514683F82C7053
:1046E0004846FFF7CFFE3C2303FB08F806EB080221
:1046F00056F80830002BC8D182F83030C5E70127C2
:10470000E8E751464846FFF749FEECE7B8030020CA
:104710000500AD0B864204000B00AD0B08B5064941
:10472000064801F04AFF28B9BDE80840024903489D
:1047300001F0CDBF08BD00BFB8030020003000402D
:10474000F8B5094B53F820400130002753F820609A
:10475000A64200D8F8BDD4E900352846984708B1EC
:1047600005B1AF600834F3E7746D00000F4B70B50E
:104770000F4C05461E469C4204D10D4CB44208D154
:10478000002410E0A26812B12268AA420BD01034B3
:10479000F1E7A3680BB91034F0E72168284601F06F
:1047A00032FC0028F7D1204670BD00BFD0010020A8
:1047B0006001002008B50B4D4FF02002EFF311838C
:1047C00082F31188BFF36F8F02F001F901210228F3
:1047D0000446D8BF084602F00AF92C62FDF7CCFC6B
:1047E000EAE700BF180500200248034A0021121A18
:1047F00001F040BCF80100207C09002008B5064803
:10480000064A0749121A01F00AFCBDE80840054AA9
:104810000549064801F003BC00000020F801002013
:10482000708C000000000000708C00000000002070
:1048300008B50C4B012202201A70FFF781FF0A4ACB
:104840000A490B4801F097FA0320FFF779FF00F0BF
:1048500019FCFCF78DFA074A137B23F0010313734D
:1048600008BD00BF79090020B56D0000318C000043
:10487000418C0000A40400202DE98048DFF8F4906A
:10488000A5B089F30888344D344E6B69DFF8E8A091
:10489000DFF8E880324F43F4007300246B61E023BB
:1048A00085F82230EC772C766C76AC766B6A43F424
:1048B000E0236B62FDF782FDFDF758FC4FF0FF33FC
:1048C000AB62EB62274D40F20113ADF8283007AB25
:1048D000AB602046CDE91F44FFF732FF0120FFF710
:1048E0002FFF4FF0010B00F0D7FA1F4B6E624FF411
:1048F00080624146059330465346CDE9034BCDE9EE
:104900000144009400F098FB737B304623F00403CD
:10491000737301F09BFF0F23CDE902431349144B3E
:104920004FF4A0723846CDE904B4CDE9004400F05C
:1049300083FB7B7BEF6023F004037B7305F118039B
:10494000C5E906332C75C5F8049053464FF48062D0
:1049500041463046FDF798FB00ED00E0A40400203E
:104960003004002018050020688C0000800D002015
:10497000B5470000C0160020314800008009002023
:1049800010B5084C23685BB1FDF7D8FA03462068E0
:10499000054A0344BDE810401361002102F027B826
:1049A00010BD00BF5005002018050020F8B50546D1
:1049B0000C464FF02003EFF3118683F31188BFF309
:1049C0006F8F0D4B00224FF4004740F2E73000217B
:1049D0001A61E7FB05014FF47A720023FBF7C4FF6D
:1049E000064B1860064B1C60FFF7CAFF86F3118860
:1049F000BFF36F8FF8BD00BF1805002050050020E1
:104A00004C0500204FF02003EFF3118183F3118850
:104A1000BFF36F8F044B9A68D37B013BD37381F351
:104A20001188BFF36F8F704718050020094B03F101
:104A30002802824205D19B688B4202D14B7BDB0668
:104A400006D1D1E9003213605A600023C1E9003376
:104A5000704700BF1805002070B5104C064604F1E1
:104A6000280001F0E9FEA368597B0546880644BF8B
:104A700041F00801597305B9E5684EB95A7BD20671
:104A800006D1AA6922B9DA897F2A01D9636270BD89
:104A9000AB4201D0FFF774FF6562F8E7180500200C
:104AA00010B54FF02003EFF3118483F31188BFF3A7
:104AB0006F8F084B9A68D37B0133D3730020FFF7C5
:104AC000CBFF84F31188BFF36F8FBDE8104001F076
:104AD000A9BE00BF1805002070B4437BDB062AD1B5
:104AE000836943BB154A114651F8284F8C4218BFC1
:104AF0002346002BD46A38BF0023B3B190F90E606F
:104B000093F90E50AE4203DBA3420ED01B68F4E7CC
:104B10005A68C0E9003210605860437B63F07F033D
:104B2000437370BC0020FFF797BFC0E90014D36A3D
:104B30001860D062F1E770BC704700BF1805002014
:104B400010B54FF02002EFF3118482F31188BFF308
:104B50006F8F427B510704D484F31188BFF36F8FAA
:104B600010BD22F004024273FFF7B6FF214602484F
:104B7000BDE8104001F03FBE7A090020F8B50146BB
:104B80004FF02003EFF3118483F31188BFF36F8F8D
:104B900090F90D30002B02DA1948FFF747FF194A48
:104BA0001046D56A50F8283F834208BF0023002BE7
:104BB00038BF0023EBB191F90E7093F90E60B74244
:104BC00003DB9D4215D01B68F4E75868C1E900304B
:104BD000016059604B7B906863F07F034B73431A0D
:104BE00058425841FFF738FF84F31188BFF36F8FA5
:104BF000F8BDC1E90005D36A1960D162EAE700BFD8
:104C0000400500201805002038B5154A154B1468DA
:104C100001469868A0421C4603D1BDE83840FFF722
:104C2000AFBE00251560104A1268B2B1C2897F2A52
:104C300013D80E4A90F90E50126895420DDB0C4ABB
:104C400090420AD0826942B91A698A4202DCFFF7AF
:104C500095FFE2E7521A1A6138BD00232361FBE792
:104C60004805002018050020500500204C050020B4
:104C70003004002070B50446183001F092FE4FF069
:104C80002003EFF3118683F31188BFF36F8F94F93C
:104C90000D30002B07DA0F482146FFF7C7FE637B74
:104CA00003F07F0363730C4D637BA86843F010032C
:104CB0006373031B58425841FFF7CEFE86F31188F9
:104CC000BFF36F8FAB68A34203D1BDE8704001F022
:104CD000A9BD70BD4005002018050020836D2DE999
:104CE000F041044603B1984704F1180001F059FE61
:104CF0004FF02003EFF3118683F31188BFF36F8F1A
:104D0000637BD80623D1A2690ABB190607D51F48C1
:104D10002146FFF78BFE637B03F07F0363731C4B1D
:104D20009868021B50425041FFF796FE637B43F0A8
:104D30000803637304F128080027A56A454500D0DD
:104D400095B986F31188BFF36F8FBDE8F0819B079B
:104D5000ECD5A0682146FFF769FE637B23F00203D0
:104D600063730023A360E1E705F1180001F019FE69
:104D7000A8682946FFF75AFE6B7BAF6023F0020359
:104D80006B732F672846FFF7A7FED6E74005002084
:104D90001805002008B590F90D30002B014606DA01
:104DA0000748FFF743FE4B7B03F07F034B73054B34
:104DB0009868431A58425841BDE80840FFF74CBE76
:104DC0004005002018050020F8B5054601F029FE31
:104DD0002C184FF02003EFF3118783F31188BFF3F2
:104DE0006F8F0D4E0D4BB068186001F06AFDB06812
:104DF0000B492A46EB17183000F0E0F9B268537BF4
:104E000043F0100353733846FDF7E2F801F009FE52
:104E1000201A20EAE070F8BD18050020480500209F
:104E20006D6800002DE9F041064614461D464FF01E
:104E30002003EFF3118783F31188BFF36F8F01F025
:104E400050FD87F31188BFF36F8F6B1C08BFB4F15F
:104E5000FF3F08D022462B4606F118000349BDE863
:104E6000F04100F0ABB9BDE8F08100BF6D68000013
:104E700010B5074B9868074B0C4618601146DDE9E2
:104E80000223FFF7CFFF2046BDE81040FDF7A0B892
:104E90001805002048050020044B002103F12802DA
:104EA000C3E90A220846FFF781BD00BF18050020AC
:104EB000F8B5244C244BA2689A4230D04FF020031E
:104EC000EFF3118583F31188BFF36F8FA16804F1AD
:104ED0002800FFF7ABFDA36AA268E16A834208BF1E
:104EE0000023002B38BF00232BB392F90E7093F9E7
:104EF0000E60B74203DB8B421DD01B68F4E7596894
:104F0000C2E900310A605A60537B63F07F03537338
:104F10000120FFF7A1FD85F31188BFF36F8F4FF0DC
:104F20002003EFF3118083F31188BFF36F8FBDE887
:104F3000F840FDF74DB8C2E90001E36A1A60E26289
:104F4000E2E700BF18050020300400200B460133C3
:104F500008BFB0F1FF3F10B506D10B4B9868FFF7C3
:104F600089FE4FF0FF3010BD044648B9FFF7A0FF9F
:104F70004FF47A7084FB0034D80B40EA4440F2E7E7
:104F8000FFF722FF0446F3E718050020014B98685D
:104F9000704700BF1805002038B504464FF02003C5
:104FA000EFF3118583F31188BFF36F8F01F0C4FC19
:104FB00048B10022026701F049FC29460848BDE8D3
:104FC000384001F018BCD4E902329A4218BF0133CC
:104FD000A360022104F1100001F064FDEDE700BFC1
:104FE0007A09002037B514461D464FF02003EFF331
:104FF000118183F31188BFF36F8F836843B1013B45
:10500000836081F31188BFF36F8F002003B030BD40
:1050100054EA050306D181F31188BFF36F8F6FF057
:105020000F00F3E70246CDE900450248FFF720FFF5
:10503000ECE700BF7A090020F0B587B0DDE90F6723
:1050400000F12805CDE9036786730E9E0296C0E93C
:105050000A550D9E019604250C9E45730025C0E956
:1050600006550773C57300960446FCF7F3FF044B1F
:105070009B68C4E9155503B19B6EA36607B0F0BDEC
:10508000180500202DE9F04FDFF8B4902B4D87B0C4
:10509000C8464D4505F130040DD3FFF7B3FC274C4E
:1050A000DFF8A0A04FF40049444521D307B0BDE884
:1050B000F04FFFF7F5BC54F8043C059354F8103C4E
:1050C000049354F8143C039354F8183C029354F896
:1050D0001C3C019354F8203C009354E90A2354E902
:1050E0000C01FFF7A9FF54F8303C5D652546D0E779
:1050F000616A4B1C17D021EAE17140F2E73B4FF0A7
:10510000000CC9FB01BC00234FF47A72584661467B
:10511000FBF72AFC0027064656EA0703256804D158
:105120002846FFF70DFD3034BEE702463B465146A8
:1051300005F1180000F042F8F5E700BFD0010020AB
:10514000D00100206D680000034B1B680BB9FCF711
:10515000F5BE0020704700BF54050020036840B131
:10516000074A5268904204D01BB19A6881680A4489
:105170009A60426813605A600023C0E900337047A8
:105180004C0100200B4B10B51C689C4208BF00244A
:10519000FFF7DAFF54B1A368181A20EAE070064B53
:1051A0001B6913B19842A8BF184610BD6FF00040AC
:1051B000F5E700BF4C010020180500202DE9F74F4E
:1051C000019119464B1C08BFB2F1FF3F824661D0E6
:1051D000541C6FF0010341F100054FF0FF3BB3EBAE
:1051E00004086BEB0509B8F1000F79F100030FDB40
:1051F000FFF7AAFF2C4AD2E9001C6FF001035B1AEB
:105200006BEB0C021E1B62EB0507341A67EBE075B3
:10521000019BCAF80C304FF02003EFF3118683F3A3
:105220001188BFF36F8FFFF78FFF012C75F100031B
:105230001E4B1A68B8BF012404449A42CAF80840B9
:1052400001D05C6852B95A68CAF804205A68CAF892
:105250000030C2F800A0C3F804A00DE09068DAF8AE
:105260000810884219DD411A91605168CAE900218D
:10527000C1F800A0C2F804A01A689A4206D092456C
:1052800004D1FFF77FFF0021FCF7FAFD86F31188B8
:10529000BFF36F8F03B0BDE8F08F091A9442CAF8CC
:1052A0000810D0D01268CDE7F80100204C01002092
:1052B0002DE9F0470646FFF7A7FC4FF02003EFF378
:1052C000118483F31188BFF36F8F204DDFF8808046
:1052D000DFF880A02E60C146DAF800002A68504549
:1052E000D8E9006705D020B18368934213DD9B1A8B
:1052F0008360B61847EBE277C9E9006700262E60A5
:10530000FFF740FF3146FCF7BBFD84F31188BFF384
:105310006F8FBDE8F087F61847EBE377D31A2B6061
:1053200000238360C8E90067FFF718FF84F3118842
:10533000BFF36F8FC36898474FF02003EFF31184DA
:1053400083F31188BFF36F8FC6E700BF54050020B9
:10535000F80100204C01002010B54FF02003EFF3BE
:10536000118483F31188BFF36F8FFCF7E7FD064BC1
:10537000D3E90023121843F1000384F31188BFF32B
:105380006F8F1046194610BDF8010020F8B5D0E91E
:105390000823561C43F10007002F08BF022E0446C5
:1053A00002D30C49FFF70AFFA36A0133A362A36982
:1053B0000BB12046984754F8105FA54208D03DB184
:1053C000284601F0FFF9284601F040FA00232B6738
:1053D000F8BD00BF8D5300002DE9F34DDDE90A450E
:1053E00054EA0501804616461F4616D06FF00101AB
:1053F000B1EB040A4FF0FF3161EB050BBAF1000F7E
:105400007BF1000109DA14F1FF3445F1FF35012C7D
:1054100075F10001BCBF012400256FF00101891A5C
:1054200000914FF0FF3161EB03010191DDE90001D3
:10543000002871F1000109DA12F1FF3643F1FF375C
:10544000002E77F10003BCBF00260027404601F084
:10545000A8FA00230649C8F8283032463B464046A1
:10546000C8E9084502B0BDE8F04DFFF7A7BE00BF90
:105470008D53000038B503464FF02002EFF311853D
:1054800082F31188BFF36F8FC160012181600068D2
:10549000834206D185F31188BFF36F8F0024204625
:1054A00038BDD0E9003213605A600023C0E90033F0
:1054B00001F0DDFA29460446014801F09CF9EEE7C7
:1054C0007A09002038B5064C064DAC4201D30020C5
:1054D00038BDD4E90112204601F0F2FA1434F4E7A1
:1054E000D0010020D001002001F059BA48B1036A70
:1054F0003BB1436A2BB14068B0FA80F040094042AA
:1055000070474FF0FF3070472DE9F84F834600AFEA
:105510001846884615461C46FFF7E8FF40BB39B3DE
:10552000E27A2A44D31D23F00703E946ADEB030DCD
:10553000237AEA460BB94BF0800B266A6368514622
:105540005846B047607288B16FF00100CD46BD4645
:10555000BDE8F88FE17A0AEB0206715C08F80210E8
:105560009AB2954203F10103F4D8EFE70346F7E757
:105570004FF0FF30EBE770B5054618461C46FFF7C5
:10558000B5FFB8B9B1B1237A0BB905F07F0528464C
:10559000666A6368B0470546607270B994F82E2059
:1055A000A36A6168012A0CBF02204FF4E17098479A
:1055B000284670BD4FF0FF35FAE76FF00105F7E7B9
:1055C00013B5002304468DF806308DF80730FFF739
:1055D0008DFF48B9234601220DF106015B20FFF73C
:1055E00093FF18B16FF0010002B010BD23460122F5
:1055F0000DF107015C20FFF787FF0028F2D19DF82D
:1056000006209DF8073002F00F0242EA0312A38A37
:1056100002EB530202F00F0312098DF806308DF8E9
:105620000720234601220DF106015B20FFF7A3FFAF
:105630000028D9D1234601220DF107015C20FFF794
:105640009AFFD1E710B50446FFF750FF80B9234613
:10565000012204F117015B20FFF78DFF40B92346BB
:1056600004F118010122BDE810405C20FFF783BF60
:1056700010BD13B50023044608468DF80730FFF728
:1056800035FF78B974B10B4601220DF107017C207A
:1056900000F00BF820B99DF8073003F001032370E8
:1056A00002B010BD4FF0FF30FAE72DE9F3471D4679
:1056B0000746002328460E4614468DF80730FFF7AC
:1056C00015FF8046002872D1002970D05E2F68D166
:1056D00029460DF10700FFF7CCFF9DF80730012B9D
:1056E000074609D12946404600F067F8AB6A696869
:1056F00007464FF4E170984714F001095AD1AB7D89
:10570000A34257D3002F55D1AF8AA74242D2B4FB50
:10571000F7FA2846FFF796FF07FB1A47C8460446E4
:105720005FFA89F39A4520D847B1D4B92B463A4657
:1057300006EB08015E20FFF7E7FE04468CB9284619
:10574000FFF780FF044660B99DF80700012808D1E3
:10575000294600F032F8AB6A696804464FF4E170FC
:105760009847204602B0BDE8F087AA8A2B4606EB90
:1057700008015E20FFF7C8FE044640B92846FFF73F
:105780001FFF044618B9AB8A98441FFA88F809F13C
:105790000109C5E72B46224631465E20FFF7B4FEDD
:1057A000D0E72B463846FFF7AFFE0446D9E74FF067
:1057B000FF34D6E76FF00904D3E737B50023054679
:1057C00008460C468DF80730FFF790FEB8B90B4637
:1057D00001220DF107017C20FFF767FF78B99DF8E2
:1057E000073005F0010023F0010318438DF807008E
:1057F000234601220DF107017C2000F002F803B0DE
:1058000030BD2DE9F74F1D460446002328460F46BC
:1058100016468DF80730FFF769FE002873D100297E
:1058200071D05E2C69D129460DF10700FFF721FFE9
:105830009DF80730012B044609D140B92946FFF7EE
:10584000BCFFAB6A696804464FF4E170984716F0F4
:10585000010A5BD1AB7DB34258D3002C56D1B5F8C9
:1058600014B0B34542D22846FFF7ECFE044620BBF5
:10587000B6FBFBF8D1465FFA8AF3984521D80BFBBB
:1058800018623AB1CCB92B4607EB09015E20FFF74D
:1058900072FE04468CB92846FFF7D4FE044660B970
:1058A0009DF80700012808D12946FFF786FFAB6A5B
:1058B000696804464FF4E1709847204603B0BDE89C
:1058C000F08FAA8A2B4607EB09015E20FFF753FEF3
:1058D000044640B92846FFF773FE044618B9AB8A60
:1058E00099441FFA89F90AF1010AC4E72B463246A6
:1058F00039465E20FFF73FFED0E720462B46FFF7F4
:105900003AFE0446D9E74FF0FF34D6E76FF00904BA
:10591000D3E713B5002304468DF806308DF8073021
:10592000FFF7E4FD0246B0B9237ABBB90122E27267
:1059300023460DF10701FFF7B8FE024658B90122D0
:1059400023460DF106010020FFF7AFFE024610B915
:105950009DF806302370104602B010BDE072EEE7ED
:1059600037B50023044608460D468DF80730FFF78B
:10597000BDFDC0B90B4601220DF107017D20FFF7E7
:1059800094FE80B99DF80720A40022F0040204F0E0
:10599000040414432B4601220DF107017D208DF8EC
:1059A0000740FFF72EFF03B030BD07B58DF80700A5
:1059B0000846FFF79BFD30B90B4601220DF10701A8
:1059C0007E20FFF71EFF03B05DF804FB10B5044610
:1059D000FFF79FFF68B92378162B01BF4623A375F5
:1059E0004FF40473A38106BF4FF4C053A3856FF037
:1059F000030010BD30B43BB11C78162C08D101282F
:105A000009D830BCFBF710BC4FF0FF3030BC7047FA
:105A10006FF00300FAE76FF00800F7E770B592B097
:105A2000154604460E464222002101A8009100F0CE
:105A300021FB002D63D02B78162B63D12B464622F9
:105A400069465E20FFF731FEA0BB012E04F0010382
:105A500004F0020004F0040104F0080204F0100451
:105A60002AD12BB19DF83B3043F010038DF83B3029
:105A700028B19DF83B3043F020038DF83B3029B12D
:105A80009DF8403043F001038DF840302AB19DF875
:105A90003C3043F001038DF83C302CB19DF83E3092
:105AA00043F001038DF83E302B46462269465E20C6
:105AB000FFF7A7FE12B070BD2BB19DF83B3023F06D
:105AC00010038DF83B3028B19DF83B3023F02003C4
:105AD0008DF83B3029B19DF8403023F001038DF85B
