:102C52005553422044454255470055534220524560
:102C620041440010C4EA611A03530069006C006910
:102C72000063006F006E0020004C00610062007370
:102C8200001003550053004200200041005000494B
:102C9200000A0343003500310046000F80010001A5
:102EA200013F00014600014B00014D00014E0001AF
:102EB2004C000143000244000004470000000101ED
:082EC20040AA0141550142FF45
:101DE500E50E25E025E02459F582E43402F583E08B
:101DF500FEE50E25E025E0245AF582E43402F5835C
:101E0500E0FDEDFF22E50E25E025E02458F582E40E
:101E15003402F583E022142400F58274003CF58336
:101E2500EFF07459250EF582E43402F583E022E5DE
:101E35000E25E025E0245BF582E43402F583E075A8
:101E4500F024A4FDACF0227400250EF582E43402E2
:101E5500F58322FF0545E545AC4422142400F582AF
:101E650074003CF583EFF0E422751900751A1F74B0
:101E7500FFF51BF51C22751907751AE0E4F51BF52E
:101E85001C22E50E75F011A4FBAAF0227401250EA3
:061E9500F582E434022294
:1028630012278E30B6497F007EF81228C07FE07EA3
:10287300071228C07F1F7E00122DE47F327E0012D4
:102883002CA274FF1228B3E41228B31230667F32ED
:102893007E00122F81E4F509E509C3940150C4AF0A
:0F28A30009121D2E7F0A7E00122CA2050980E962
:1028B20022FFFE122DE47F327E00122CA222122D64
:0928C200E47F327E00122CA222F8
:102F8100E4FDFCC3ED9FEC9E5014E4FBFA0BBB0087
:0E2F9100010AEBF44A70F60DBD00010C80E55C
:012F9F00220F
:042CA2008E0A8F0BFC
:102CA600E4F50CF50D30B720E4FFFEC3EF950BEE0F
:102CB600950A501EE4FDFC0DBD00010CEDF44C70B0
:102CC600F60FBF00010E80E312302E7F0A7E00123F
:102CD6002F81050DE50D7002050CC39432E50C94A9
:032CE6000040C2E9
:012CE90022C8
:10302E0030B60512069E80F87FF47E01122F813095
:03303E00B6FD22BA
:10069E0078127C007D007BFF7A2C79A17E007F0191
:1006AE00120ACFE546700302074E750E01121E0A9E
:1006BE007008121DE512304A800D121E0A64017078
:1006CE0006121DE512305C050EE50EC3941040DDDA
:1006DE00000000000000000000000000000000000C
:1006EE00000000007A2C79521209D730E038750ECE
:1006FE0001121E0A7011121DE5121E34121E8712EF
:10070E001E7B12236A8016121E0A6401700F121DC0
:10071E00E5121E34121E87121E6E12236A050EE596
:10072E000EC3941040CB000000000000000000003B
:10073E0000000000000000000000E4F5460206B1D3
:10074E00E54C603CE4F50EE50EC3944050291209C9
:10075E0088121E5870020544121E1B121E5870027B
:10076E000544121E60B54508E544B402031209B8EB
:10077E00050E050E020755E4F54C1209F302074E5D
:10078E00E53F606790025BE06033750E04E50EC3D3
:10079E009424504E120988121E5870020544121EDF
:1007AE001B121E5870020544121E60B54508E54422
:1007BE00B402031209B8050E050E02079B750E044E
:1007CE00E50EC39424501BC2A0D2B17458250E124C
:1007DE001E12FF121E27FD1230ACD2A0050E050E02
:1007EE0080DEE4F53F1209F302078EE54E60767562
:1007FE000E04E50EC39424505B7458250E121E127F
:10080E007010121E27FE745A250E121DFE12304A4B
:10081E0080397458250E121E12B40110121E27FEB6
:10082E00745A250E121DFE12305C801F7458250E50
:10083E00121E126410701400000000000000000070
:10084E0000000000000000000000007404250EF5FA
:10085E000E020800E4F54EFB7A0079127D01FC12BF
:10086E0017DB0207F9E54B7003020949E4F50E1296
:10087E001E4CE4F0050EE50EB418F490025FE02570
:10088E00E0F51190025DE0FEA3E0FDEEF50FEDF553
:10089E001090025CE064017026AF10AE0F12304A69
:1008AE00E4F50EE50EC395115015123004121E4CD0
:1008BE00E4F0121E91F583EFF0050E050E80E4E4D0
:1008CE00F54B7B017A027900E511FD7C001217DBF6
:1008DE007F647E00122F817A2C795C1209D730E06A
:1008EE0084900260121E43121E7B7B11FAAF10AE73
:1008FE000F12236AE4F50EE50EC3951140030208AC
:10090E0073900260121E43C004C005E50EC313248B
:10091E0002FFE433FE7C007D11120B3BAA06AB07EF
:10092E00121E4CE0FE121E91121E03121E6ED005F8
:10093E00D00412236A050E050E80BCE54D603AE424
:10094E00F50E7418250EF582E43402F583E4F005F5
:10095E000EE50EB440EC9002187401F0A374C0F0D2
:10096E00A37401F0A37470F0E4F54D7B017A027963
:09097E00187D40FC1217DB80C259
:1009870022C2A0D2B17458250EF582E43402F58351
:10099700E0FF7459250EF582E43402F583E0FD1279
:1009A70030ACD2A07458250EF582E43402F583E00A
:1009B700227847120CB7122721900000E543F07FF9
:1009C700007E007D007C00122721E4F544F54522D6
:1009D7007BFFE4F518F519F51AF51B74FFF51CF5FF
:1009E7001DE4FDFC1222E090025BE022FB7A007915
:0809F700127D01FC1217DB2246
:1000460053D9BF75B283E4F5B943B980FF0FBFFF3B
:10005600FC43B9C0E5B930E5FBE4F5A943EF027509
:10006600F1FF75A4FF75A5FF75F2FF75A6FF75AEC6
:10007600FF75F4FF43A717C286C28743E10243E236
:010086004039
:010087002256
:10278E00120046122D78902C65E493FE740193FF8F
:10279E00902C67E493FC740193FD90020774FFF094
:1027AE00A3742CF0A37483F0A374FFF0A3742CF025
:1027BE00A37493F0902C9DE49390020DF0902C9EB8
:1027CE00E49390020EF0902C9FE493FB740193908F
:1027DE00020FCBF0A3EBF07BFF7A2C796912157404
:0C27EE00122FBD75A17075F80F021C635E
:03003D00022E7719
:03008B000218EC6C
:1018EC00C0E0C0F0C083C082C0D075D000C000C0C2
:0D18FC0001C002C003C004C005C006C00743
:101909001230878F08E50830E27C7B017A0279582A
:101919007D40121F4D900258E0FFB5400FA3E0B57E
:10192900410AA3E0B54205754601805AEFB5421157
:10193900900259E0B5410AA3E0B54005754B018015
:1019490045900258E0B5410FA3E0B5400AA3E0B5C0
:101959004205754D01802F900258E0FFB5400FA355
:10196900E0B5420AA3E0B54105753F018018EFB51E
:101979004211900259E0B5400AA3E0B54105754E00
:10198900018003754C01E50830E70312003DE508C5
:1019990030E603120046E50830E4031219CCE508E5
:0819A90030E50505431219CCDD
:1019B100D007D006D005D004D003D002D001D0008A
:1019C100D0D0D082D083D0F0D0E03215751575A873
:1019D1007576010876BF7A007B007C017D6F7E0001
:0619E1007F0012247022B9
:102DB000AF1FAE1EAD1DAC1C120C91122FFAAF1F2F
:102DC00022E4F51FF51EF51DF51C227809120CA44E
:102DD0008F1F8E1E8D1D8C1C2274002DF582740099
:042DE0003CF5832219
:0C2FEE007FFF122FFA7FFF122FFA7FFFE7
:092FFA008FA330FFFDC2FFAFA35D
:0130030022AA
:0A30A10075A3FF30FFFDC2FFAFA3CF
:0130AB002202
:022CEA00AE0733
:102CEC00E4FB122FEE122FEEC2FAEE4440FF122F2D
:102CFC00FA7818122DB0AE1EAD1DAC1C7810120C4B
:102D0C0091122FFA7808122DB0122FFA7F95122FEC
:102D1C00FA7FFF122FFABFFF09AE030BEED39464B8
:042D2C0040EFD2FAA8
:012D30002280
:10213600E4FEFA75A90375A23BE4FD7FFF122FFAB0
:102146000DBD64F7122DC1FF1221B4940A5003BECF
:1021560001E7E4FA122DC17F371221B494644003DB
:102166007F0122BE01EEE4FA122DC27F291221BDA3
:1021760040037F0122EE70DCEE6012E4FA122DC1FC
:102186007F011221BD40037F0122EE70F0122DC1A6
:102196007F3B122CEAAE07E4F51F751E02F51DF50E
:0D21A6001C7F10122CEA75A201E4F5A9FFC0
:1021B30022122CEAAE070AEAD322122CEAAE070A4D
:0521C300EAD394642240
:082721008F168E158D148C1328
:10272900E4FA75A903AF16AE15AD14AC13122DCB8F
:102739007F18122CEAAE070AEAD3940A40037F01F4
:1027490022EE70E1C2FA7FFF122FFA7FFE122FFAF2
:10275900FDFC122DD9E0FF122FFA0DBD00010CE48A
:10276900B505EFECB402EB122FEEAE07EE541F6481
:10277900056003D2FA227FFF122FFAEF60F8D2FA2E
:04278900E4F5A9FFCB
:01278D002229
:082BFE008F1A8E198D188C1737
:102C0600E4FA75A903AF1AAE19AD18AC17122DCB9D
:102C16007F11122CEA0AEAD3940A40037F0122EFBD
:102C260070E3C2FA1230A1BFFEFAE4FDFC1230A135
:102C3600122DD9EFF00DBD00010CE4B505EFECB493
:0B2C460002EB122FF3D2FAE4F5A9FF15
:012C51002260
:10306600E4F9122136EF600809E9D3940140F3220E
:013076002237
:10008E00F800F80007E007E0001F001FFFFFFFFF6A
:10009E00000000182442424242424242241800000C
:1000AE00000000107010101010101010107C0000C6
:1000BE000000003C4242420404081020427E000030
:1000CE000000003C42420418040202424438000080
:1000DE00000000040C14242444447E04041E00007A
:1000EE000000007E40404058640202424438000046
:1000FE000000001C24404058644242422418000074
:10010E000000007E4444080810101010101000006B
:10011E000000003C4242422418244242423C00006D
:10012E000000001824424242261A0202243800001F
:10013E000000001010182828243C444242E700001A
:10014E00000000F8444444784442424244F800001F
:10015E000000003E42428080808080424438000091
:10016E00000000F8444242424242424244F800003B
:10017E00000000FC424848784848404242FC0000DB
:10018E00000000FC424848784848404040E00000EB
:10019E000000003C44448080808E8444443800003B
:1001AE00000000E7424242427E42424242E70000E5
:1001BE000000007C1010101010101010107C0000A9
:1001CE000000003E0808080808080808080888F01B
:1001DE00000000EE444850705048484444EE000081
:1001EE00000000E0404040404040404042FE0000E1
:1001FE00000000EE6C6C6C6C5454545454D60000D9
:10020E00000000C7626252524A4A4A4646E2000065
:10021E00000000384482828282828282443800004A
:10022E00000000FC424242427C40404040E0000060
:10023E0000000038448282828282B2CA4C380600A4
:10024E00000000FC4242427C4848444442E3000025
:10025E000000003E4242402018040242427C000050
:10026E00000000FE92101010101010101038000038
:10027E00000000E74242424242424242423C0000FB
:10028E00000000E7424244242428281810100000E1
:10029E00000000D692929292AAAA6C4444440000A6
:1002AE00000000E7422424181818242442E7000016
:1002BE00000000EE444428281010101010380000E2
:1002CE000000007E840408081020204242FC00003A
:1002DE00001E1010101010101010101010101E0014
:1002EE0000004040202010101008080404040202F0
:1002FE0000780808080808080808080808087800A0
:10030E00001C2200000000000000000000000000A1
:10031E00000000000000000000000000000000FFD0
:10032E00006010000000000000000000000000004F
:10033E00000000000000003C421E2242423F00002E
:10034E00000000C0404040586442424264580000E1
:10035E00000000000000001C22404040221C000053
:10036E00000000060202021E22424242261B00002C
:10037E00000000000000003C427E4040423C000075
:10038E000000000F1110107E10101010107C0000D5
:10039E00000000000000003E444438403C42423C15
:1003AE00000000C04040405C6242424242E7000012
:1003BE00000000303000007010101010107C000093
:1003CE000000000C0C00001C040404040404447817
:1003DE00000000C04040404E4850684844EE0000C7
:1003EE00000000701010101010101010107C000083
:1003FE0000000000000000FE4949494949ED000097
:10040E0000000000000000DC6242424242E70000B1
:10041E00000000000000003C42424242423C00000C
:10042E0000000000000000D864424242447840E0E0
:10043E00000000000000001E22424242221E02075F
:10044E0000000000000000EE3220202020F8000006
:10045E00000000000000003E42403C02427C0000D2
:10046E00000000000010107C10101010100C000086
:10047E0000000000000000C642424242463B00001F
:10048E0000000000000000E74224242810100000A5
:10049E0000000000000000D79292AAAA4444000077
:1004AE00000000000000006E2418181824760000CA
:1004BE0000000000000000E742242428181010E07D
:1004CE00000000000000007E44081010227E000094
:1004DE0000030404040404080404040404040300D4
:1004EE00080808080808080808080808080808087E
:1004FE000060101010101008101010101010600076
:10050E00304C43000000000000000000000000001E
:10051E0000000000000000000000000000000000CD
:10052E00000000101010101010100000181800001D
:10053E0000123624480000000000000000000000F9
:10054E00000000242424FE484848FE484848000085
:10055E0000001038545450301814145454381010DD
:10056E0000000044A4A8A8A8541A2A2A2A4400006D
:10057E0000000030484848506EA4948889760000E8
:10058E0000606020C00000000000000000000000BD
:10059E0000020408081010101010100808040200C1
:1005AE00004020101008080808080810102040000D
:1005BE00000000001010D63838D6101000000000D1
:1005CE000000000010101010FE101010100000009F
:1005DE00000000000000000000000000606020C06D
:1005EE0000000000000000007F000000000000007E
:1005FE00000000000000000000000000606000002D
:10060E0000000102020404080810102020404000DF
:10061E00000000000000181800000000181800006C
:10062E00000000000000001000000000001010206C
:10063E0000000002040810204020100804020000F0
:10064E00000000000000FE000000FE0000000000A0
:10065E000000004020100804020408102040000092
:10066E000000003C42426202040808001818000014
:10067E0000000038445AAAAAAAAAB442443800007C
:10068E00FFFFFFFFFFFFFFFFFFFFFFFFFFFFFFFF6C
:1016AB0015751575A87576010876BF7A007B007CD9
:1016BB00017D6F7E007F00122470C2A0D2B122FD8B
:1016CB00E43515FC851923851A24851B25851C26D5
:1016DB00AB18AA1722FFAE05EE33333354F84FFF86
:1016EB00122FDDED25E0227FFF122FDD7FFF022F72
:1016FB00DD7F7B122FDD7FEF122FDDA3E58222E44E
:10170B00F5A0F5C7C297D297055AE55A221575155C
:10171B0075A87522ED25E0FFEC33FEEF780322E58B
:10172B005E24FFFFE55D34FFFEEF22E55A25E0FF67
:10173B00E55933FEEF22FF122FDD0560E5602276BF
:10174B00010876BF7A007B007C017D6F7E007F00F5
:10175B0022C3940BE55B940022C39420E5599400BB
:10176B0022C3945CE565940022C43354E04DFF0220
:10177B002FDDC39410E55D940022C3940BE55F94B9
:10178B000022D3E55E9400E55D94002212305C7F6D
:10179B00017E0002305C122FDDAF05022FDD7E00D3
:1017AB0012305C7F537E0002304A08E62410FF188B
:1017BB00E436FE02305CF9E7FF7E0002305CFF127C
:1017CB002FDD055CE55C22F8E6FE08E6FF02305CE7
:072FD600E4FF122FDDE4FF10
:102FDD00E4FEEF25E0FF9296C297D2970EBE08F25F
:012FED0022C1
:093041007E0012305C7FFE7E006F
:0A304A00C2A0C2B1122FDDD2A022F5
:083054007E0012304AE4FFFE89
:0A305C00C2A0D2B1122FDDD2A022D3
:0830AC00122FDDAF05022FDD3C
:101C6300D2857F507E00122F81C2857F507E001265
:101C73002F81D2857FE07E01122F81123046121709
:101C83009A7F047E0012304A7FA07E0012305C7F70
:101C9300707E0012304A7F551230417F0A7E001257
:101CA300305C7F297E0012304A7F101230417F055D
:101CB3007E0012305C7F051230547FFE1230547F59
:101CC300517E0012304A7FAF1217A97F101217A955
:101CD3007F207E0012305C7F351230547F3A7E00C5
:101CE30012304A7F557E0012305C7F2A1230547FB7
:101CF300107E001217977F7F7E0012305C7F2B12BD
:101D03003054E4FFFE1217977FBF7E0012305C7FD2
:101D1300117E0012304A7FE07E01122F817F297EDF
:0B1D23000012304A7F507E00022F812A
:10247000121718A60208A603121718A60408A60524
:10248000121718A60608A6077F2A7E0012304AA94E
:10249000751217C2A8751217B5A8750808A900E724
:1024A000FE09E77818CEC313CE13D8F9FF12305CBB
:1024B000A87508081217B57F2B7E0012304AE57503
:1024C00024041217C1E57524041217D2E5752406F9
:1024D0001217C1E57524061217D27F2C7E00123028
:0824E0004AE5752408F5752298
:042DE4008E0A8F0BB9
:102DE8001216AB75A903E4FD1CE4FBFAE50AFF1211
:102DF8002FDDAF0B122FDD0BBB00010ABA01EDBBB3
:0F2E080070EA0DBD00010CBC01DFBDC0DCD2A023
:012E17002298
:101FFC00782F7C007D007BFF7A00798E7E007F102D
:10200C00120ACF1216ABE4FD1CE4F52BF52CE4F50B
:10201C002DF52EED25E0242FF8E6FEEE1216EA241F
:10202C002FF808E6FF122FDD052EE52E7002052D88
:10203C00C39470E52D940140DA052CE52C70020553
:10204C002BC39438E52B940040C40DBD00010CED5E
:10205C0064084C70B4E4F52BF52CC3E52B940050BC
:10206C002DE4F52DF52EE53DFF122FDDAF3E8FC78C
:10207C00122FDD052EE52E7002052DC39470E52D73
:10208C00940140E2052CE52C7002052B80CCD2A0EB
:01209C002221
:102A9D001216AB1216F2E4FD1C1216F20DBD00015A
:102AAD000CBC01F5BD6EF21216F2E4FBFA1216F231
:102ABD00E4FCFD122FD60DBD00010CBC01F5BD6E61
:102ACD00F21216F20BBB00010ABA01E1BBBEDE1217
:102ADD002FD6E4FCFD1216F20DBD00010CBC01F564
:082AED00BD6EF21216F2D2A038
:012AF50022BE
:021D2E008F0A1A
:101D300075A9031216ABE4751684751502F514F532
:101D400013AF0A1CFDFEAB16AA15A914A813120B9B
:101D500063EF2401F50EE43EF50DE43DF50CE43CA3
:101D6000F50BE50E2516F512E50D3515F511E50C0B
:101D70003514F510E50B3513F50FAF12AE11AD109C
:101D8000AC0FAB0EAA0DA90CA80BC3120C80504FC0
:101D9000AF0EAE0DAD0CAC0B122BFEE4FBFAC3EA9A
:101DA0009402502474002BF58274003AF583E0FF0E
:101DB00074012BF58274003AF583E0FD1230AC74A7
:101DC000022BFBE43AFA80D6E50E2401F50EE43549
:101DD0000DF50DE4350CF50CE4350BF50B809BD2BD
:041DE000A0E4F5A9DD
:011DE40022DC
:10117A001216ABE4FD1CE4F559F55A12170A70026F
:10118A0005596410455970F3E4F559F55AE4F55BCD
:10119A00F55CE55AAE597803C333CE33CED8F9128B
:1011AA002FD7055CE55C7002055B12175C40E3050E
:1011BA005AE55A7002055912176440D10DBD000153
:1011CA000CED64704C70AFE4FCFDE4F559F55A126D
:1011DA00170A700205596410455970F3E4F559F578
:1011EA005AE4F55BF55C1217367803CEC313CE13B7
:1011FA00D8F9FF122FDD1217367805C333CE33CE56
:10120A00D8F91217C97002055B12175C40D8055A43
:10121A00E55A7002055912176440C60DBD00010C4B
:10122A00ED64704C70A4E4FCFDE4F559F55A12170C
:10123A000A700205596410455970F3E4F559F55AD4
:10124A00E4F55BF55CE4FF122FDDAF5A1217CA70A2
:10125A0002055B12175C40ED055AE55A7002055902
:10126A0012176440DB0DBD00010CED64704C70B9BF
:10127A00E4FCFDE4F559F55A12170A70020559649F
:10128A0010455970F3E4F559F55AE4F55BF55C122B
:10129A0017367803CEC313CE13D8F9FFAE5AEE33FE
:1012AA00333354F84FFF122FDDAF5AEF25E0FEC457
:1012BA003354E04F1217C97002055B12175C40CF16
:1012CA00055AE55A7002055912176440BD0DBD0052
:0A12DA00010CED64704C709BD2A073
:0112E40022E7
:1019E7001216ABE4FD1CC3EC94005020E4F565F53A
:1019F70066122FD60566E56670020565C39470E525
:101A070065940140EC0DBD00010C80DAE4FCFDE4B7
:101A1700FBFAE4F565F566EDAE047803C333CE3320
:101A2700CED8F9122FD70566E5667002056512173D
:101A37006C40E4E4F565F56612171FCEC313CE13A9
:101A4700D8F91216EAFFEC33FEEF7805C333CE332D
:101A5700CED8F9FF122FDD0566E56670020565121F
:101A6700176C40D4E4F565F566E4FF1217A1056627
:101A7700E5667002056512176C40EEE4F565F566DC
:101A870012171FCEC313CE13D8F91216E01217740C
:101A97000566E5667002056512176C40E30BBB002F
:101AA700010AEB640E4A6003021A190DBD00010C0E
:0B1AB700ED64204C6003021A16D2A060
:011AC2002201
:102643001216ABE4FD1CC3EC94005020E4F567F5CF
:1026530068122FD60568E56870020567C39470E5B4
:1026630067940140EC0DBD00010C80DAE4FCFDE44D
:10267300FBFAE4F567F568EDAE047803C333CE33B4
:10268300CED8F9122FD70568E56870020567C394A1
:1026930070E567940140E00BBB00010AEB640E4A4E
:0F26A30070D00DBD00010CED64204C70C2D2A0B0
:0126B2002205
:1023EF001216ABE4FD1CC3EC94005020E4F569F524
:1023FF006A122FD6056AE56A70020569C39470E503
:10240F0069940140EC0DBD00010C80DAE4FCFDE4A1
:10241F00FBFAE4F569F56AEDAE047803CEC313CE8B
:10242F0013D8F9FF122FDDEDAE047805C333CE3389
:10243F00CED8F9FF122FDD056AE56A70020569C370
:10244F009470E569940140CF0BBB00010AEB640760
:10245F004A70BF0DBD00010CED64404C70B1D2A0AD
:01246F00224A
:10298C001216ABE4FD1CC3EC9400501AE4F583F56D
:10299C0082122FD6A3E582B470F7E583B401F20D51
:1029AC00BD00010C80E0E4FCFDE4FBFAE4F583F5EA
:1029BC0082E4FF122FDDAF05121703B470F3E58329
:1029CC00B401EE0BBB00010AEB640E4A70DE0DBDC8
:0B29DC0000010CED64204C70D0D2A074
:0129E70022CD
:1025D2001216ABE4FD1CC3EC94005020E4F56BF53D
:1025E2006C122FD6056CE56C7002056BC39470E516
:1025F2006B940140EC0DBD00010C80DAE4FCFDE4BB
:10260200FBFAE4F56BF56C12171FCEC313CE13D889
:10261200F91216E0121774056CE56C7002056BC3B3
:102622009470E56B940140DF0BBB00010AEB640E72
:102632004A70CF0DBD00010CED64204C70C1D2A0D8
:012642002275
:1024E8001216ABE4F56DF56EE4FDFCC3EC940050F8
:1024F8000A122FD60DBD00010C80F0E4FCFDE4FBB0
:10250800FAEDAE047802C333CE33CED8F97803CED1
:10251800C313CE13D8F9FFED25E0FE1216E425E02B
:10252800C43354E0FFED25E04FFF122FDD0BBB0055
:10253800010AEB64174A70C90DBD00010CED641067
:102548004C70BB056EE56E7002056DC394C0E56DF9
:0625580094014094D2A0A2
:01255E00225A
:102AF6001216ABE4F56FF570E4FDFC122FD60DBD92
:102B060000010CED64104C70F2E4FCFDE4FBFA12DB
:102B1600171FCEC313CE13D8F91216E01217740B73
:102B2600BB00010AEB640B4A70E50DBD00010CED1C
:102B360064204C70D70570E5707002056FC394C0B1
:082B4600E56F940140B2D2A03A
:012B4E002264
:100D14001216ABE4FD1CE4F55DF55E122FD6055EFC
:100D2400E55E7002055D12177D40F0E4F55DF55E49
:100D3400E4F55FF560E55EAE5D7803C333CE33CE94
:100D4400D8F9122FD70560E5607002055F12178588
:100D540040E3055EE55E7002055DC39420E55D94A5
:100D64000040CD0DBD00010CED644A4C70A8E4FCBC
:100D7400FD755D00755E20E4F55FF56012172A7855
:100D840003C333CE33CED8F9122FD70560E5607094
:100D940002055F12178540E4E55E155E7002155D7D
:100DA40012178D50D2E4F55DF55E122FD6055EE57F
:100DB4005E7002055D12177D40F00DBD00010CED63
:100DC400644A4C70ACE4FCFDE4F55DF55E122FD68C
:100DD400055EE55E7002055DC39430E55D940040F8
:100DE400ECE4F55DF55EE4F55FF560E55EAE5D7837
:100DF40003CEC313CE13D8F9FF122FDDE55EAE5D2B
:100E04007805C333CE33CED8F91217417002055F8B
:100E1400C39405E55F940040D2055EE55E7002056B
:100E24005DC39440E55D940040BC0DBD00010CED34
:100E3400644A4C7093E4FCFD755D00755E40E4F516
:100E44005FF56012172A7803CEC313CE13D8F9FFC7
:100E5400122FDD12172A7805C333CE33CED8F912F8
:100E640017417002055FC39405E55F940040D4E523
:100E74005E155E7002155D12178D50C2E4F55DF5C6
:100E84005E122FD6055EE55E7002055DC39430E503
:100E94005D940040EC0DBD00010CED644A4C70986B
:100EA400E4FCFDE4F55DF55E122FD6055EE55E70AB
:100EB40002055D12177D40F0E4F55DF55EE4F55F33
:100EC400F560E4FF122FDDAF5E1217427002055F7A
:100ED40012178540ED055EE55E7002055DC3942042
:100EE400E55D940040D70DBD00010CED644A4C70E3
:100EF400B2E4FCFD755D00755E20E4F55FF560E429
:100F0400FF122FDDE55E141217417002055F121700
:100F14008540ECE55E155E7002155D12178D50DAA2
:100F2400E4F55DF55E122FD6055EE55E7002055DA3
:100F340012177D40F00DBD00010CED644E4C70B4F1
:020F4400D2A039
:010F46002288
:102E18001216ABE4FD1C900000AF051217A1EDF4EB
:102E2800FF122FDDEDF4FF12170364B8458370E934
:102E38006305FF6304FF0BBB00010ABA01D8BBC0DE
:032E4800D5D2A040
:012E4B002264
:10209D007571007572701216ABE4FD1CC3ED95726F
:1020AD00EC95715017E4F583F5821216FCB470FAB5
:1020BD00E583B401F50DBD00010C80E0E4FCFDE508
:1020CD007225E0FFE57133FEC3ED9FEC9E5034E4C5
:1020DD00F583F5821216FC645C458370F7E4F58395
:1020ED00F582122FD6A3E58264B8458370F4E4F52A
:1020FD0083F5821216FC645C458370F70DBD0001FB
:10210D000C80BCE4FCFDC3ED9572EC95715017E4A9
:10211D00F583F5821216FCB470FAE583B401F50D62
:08212D00BD00010C80E0D2A00E
:012135002287
:10307700AD07AC06C2A0D2B1AF041217A1D2A022ED
:1029E800EFC3942050047F5F8050EFC39420400CC5
:1029F800EFD3942F5006EF2428FF803EEFC3943086
:102A0800400CEFD39439500674D02FFF802CEFC3BD
:102A1800943A400CEFD394405006EF241EFF801ADE
:102A2800EFC39441400CEFD3947E5006EF24C9FFC6
:0B2A38008008EFD3947E40027F5F22F5
:0621C8008F1EAF05AE04FE
:1021CE00EB240FFDE43A121718F608A605EF2407C4
:1021DE00FDE43EFC122470AF1E7E00D3EF945FEE42
:1021EE00940040027F5FEFC4F8540FC868FFEEC43E
:1021FE0054F048FE7528FF752900752A9EEF252A92
:10220E00F52AEE3529F529E4F527AB28052AE52A26
:10221E00AA297002052914F9120AF5FBE4FAEBA8B3
:10222E0002088002C333D8FC30E706AF24AE238009
:10223E0004AF26AE251230770ABA08E20527E52745
:05224E00C3941040C51F
:012253002268
:1022E0008B138A1489158C168D17AB13AA14A91594
:1022F000120AF57003D38001C34066AB130515E5E0
:1023000015AA147002051414F9120AF5FF1229E82F
:10231000851A23851B24851C25851D26AB19AA1823
:10232000AD17AC161221C8D3E5179467E5169401D2
:102330004012E4F516F51774102519F519E435184F
:10234000F518800B74082517F517E43516F516D324
:10235000E51994AFE51894014090E4F518F519805B
:0A2360008912171812174A022470A0
:10236A008E138F148C158D168A178B18D3E5169435
:10237A004FE5159401400675150175164FD3E518FA
:10238A0094AFE5179401400CE51824EFF518E5170A
:10239A0034FFF517E513C4540FFF1216CFAD16AC70
:1023AA00151221C8E513540FFFE51624081216CAA0
:1023BA001221C8E513C4F854F0C8E514C4540F48F0
:1023CA00540FFFE51624101216CA1221C8E5145438
:1023DA000FFFE51624181216CA1221C8121718126E
:0523EA00174A022470F7
:10300400C2A0D2B17FF47E01122F81AFA0ADC7D28E
:05301400A0EFFEEDFF3E
:013019002294
:102E4C008A738B74121718A60408A605AB05AA047E
:102E5C00AD07AC06122470C2A0D296D2B1E573FFB6
:0B2E6C00122FDDAF74122FDDD2A02268
:0C28CB008E4F8F508C518D528A538B54CD
:1028D700121718A65508A656AA53AB54AC51AD52B9
:1028E700AE4FAF50122470AB54AA53E5562401FFE4
:1028F700E43555FEC3EB9FEA9E5029855082854FEC
:1029070083E5522401FFE43551FEC3E5829FE58349
:102917009E500AAF58AE57123077A380E40BBB0026
:04292700010A80C75A
:01292B002289
:0426B3008E618F6243
:1026B70075630075640FC3E56494BFE563940150C7
:1026C7001C856355856456856157856258AB64AA36
:1026D700637D6F7C01E4FFFE12271280D9756300CA
:1026E70075640FC3E564946FE5639401501C7555D9
:1026F700017556BF856157856258E4FBFAAD64AC36
:0A27070063AF64AE6312271280D99D
:10271100221228CB74102564F564E43563F5632235
:0830B400545020544553540010
:10292C00E025E0249DF582E43402F58322E4FFFEE9
:10293C00FDFCE0F8A3E0F9A3E0FAA3E022FFEE34FB
:10294C00FFFEED34FFFDEC34FFFCE47A01F9F812E4
:10295C000B63E42225E0249FF582E43402F5832204
:10296C00E47E01FDFCE0F8A3A3A3E0020C80E0FCF4
:10297C00A3E0FDA3E0FEA3E022A3A3E0FEA3E022DC
:102F1900C294C295E49002D0F0EF20E704C2B280D7
:102F290002D2B2D295EF25E0FFC2959002D0E0041B
:052F3900F0E0B408E423
:012F3E002270
:1027FA009002CC120CE300000000C294D2B3E49021
:10280A0002CBF09002CBE0FFC3940C5042C2953049
:10281A00B333C3740B9FFF74017E00A807088005B9
:10282A00C333CE33CED8F9FFEE3395E0FDFC9002E8
:10283A00CC12293E4FFFEA4EFEE94DFDE84CFC90D2
:10284A0002CC120CD7D2959002CBE004F080B4D21D
:08285A00949002CC122985FFC5
:012862002253
:021AC300AB076F
:101AC500E490029AF0A3F0A3F0D2B590029AE0C395
:101AD500940B502320B520C294EB04FF122F19124A
:101AE50027FA90029A12292CEEF0A3EFF090029AB1
:101AF500E004F0D29480D490029AE07003021B9225
:101B0500E4A3F090029AE0F9A3E0C3995073E4A32B
:101B1500F090029BE0FF90029AE0C39FFF90029C29
:101B2500E0C39F5053E0FF122960E0FCA3E0FDEF06
:101B350012292DE0FEA3E0D39DEE9C403290029C3D
:101B450012292CE0FCA3E0FD900298ECF0A3EDF047
:101B5500EF122960E0FEA3E0FF90029CE0FB122952
:101B65002DEEF0A3EFF0EB122960ECF0A3EDF09071
:101B7500029CE004F0021B1690029BE004F0021B9D
:101B850008E9C31312292DE0FEA3E0FF22E4FEFFBE
:011B9500222D
:101436009002B3120CE3000000009002B7120CE316
:10144600000000009002BB120CE3000000009002B6
:10145600BF120CE3000000009002C3120CE3000070
:1014660000009002C7120CE30000000012154BD2D8
:10147600B520B5FD20B6030215457F327E00122F3A
:101486008130B50302153B7FD0121AC3E4FCFD90F0
:1014960002BB120CD79002BB12297A24BD7B7012B4
:1014A60029497B6B7A07F9F8120BEE9002B3120CFE
:1014B600D77F90121AC3E4FCFD9002BF120CD7909E
:1014C60002BF12297A245F7BC01229497BB87A06AB
:1014D600F9F8120BEE9002B7120CD77F0F7E0012AE
:1014E6002F8120B59C9002B3122939FBC3120C80C0
:1014F600408F7F709002B312296C50859002B7120C
:101506002939FBC3120C8050030214877FC0900256
:10151600B712296C40030214879002B3122985FF83
:10152600C006A3122985FDAC06D0067B007AF81208
:101536002E4C0214877F327E00122F8102147A12FB
:05154600154B02147AB0
:10154B00E4FFFE122DE47FB57EAD1226B37BFF7A4E
:10155B003079B4E4F518F519F51AF51B74FFF51C81
:09156B00F51DE4FDFC1222E02252
:100003001201100100000040C410000000000102B2
:1000130003010902200001010080FA090400000223
:10002300FF000000070502024000000705820240AE
:0A00330000000403090401000000AE
:10157400900200EEF0A3EFF0900204EBF0A3EAF087
:10158400A3E9F0E4900791F0900791E0FF90000345
:1015940093FE74402FF582E43407F583EEF0900750
:1015A40091E004F0E0B412E0E4900791F090079128
:1015B400E0FF90001593FE74522FF582E43407F592
:1015C40083EEF0900791E004F0E0B420E090020094
:1015D400E0FEA3E0900748F0EEA3F0A3EDF0ECA347
:1015E400F090077274FFF0A37400F0A37435F090C8
:1015F4000204E0F9A3E0FAA3E0900775C9F0A3EAB6
:10160400F0A3E9F0900207E0F9A3E0FAA3E0900761
:1016140078C9F0A3EAF0A3E9F090020AE0F9A3E0A4
:10162400FAA3E090077BC9F0A3EAF0A3E9F09002E3
:101634000DE0FFC394FA500590075AEFF090020EA4
:10164400E0900759F090020FE0FEA3E090074CF001
:10165400EEA3F0E59620E7FB759601759708E596ED
:1016640020E7FB75960775970FE59620E7FB7596BF
:101674000975970EE59620E7FB75960B7597077528
:10168400D7E0123095E4900793F0900792F090071A
:1016940094F0900786F043E602D2AFE59620E7FB8C
:0716A4007596017597012204
:102ECB009007867402F0E59620E7FB7596017597DF
:102EDB0001E490078EF0A37403F0A3F0E490079342
:072EEB00F090079204F022B1
:100F4700E59620E7FB75960EE4F597E59620E7FB17
:100F5700759691E59620E7FB90079EE597F0E0FFF1
:100F670030E210E59620E7FB759611E4F5979007B8
:100F77008EF022EF30E410E59620E7FB75961175A9
:100F87009780E490078EF090078EE0600302107858
:100F970090079EE020E0030210787596204396C0E4
:100FA700E4900791F0E59620E7FB900791E0247E17
:100FB700F582E43407F583E597F0900791E004F0B4
:100FC700E0B407E1E59620E7FBE4F596900791E0AA
:100FD700247EF582E43407F583E597F0900781E0F6
:100FE700FE900780E07C002400FFEC3E900795F020
:100FF700A3EFF0900785E0FE900784E02400FFEC64
:101007003E900797F0A3EFF090077FE0B40C0050F5
:101017005D90101FF8282873021043021048021031
:101027004D02105202107502105702105C02107523
:1010370002106102106602106B02107012255F80A9
:1010470030122B4F802B121B968026122BA7802144
:10105700122F61801C121E9B8017122D31801212D5
:101067002A43800D122EF2800812301A8003122FA5
:10107700A090078EE06401600302117990079E74C7
:1010870002F0C390078DE0944090078CE0940040F5
:1010970061E59620E7FB759620E4900791F09007AD
:1010A70091E0FFC394405022900787E0FBA3E0FA4A
:1010B700A3E0F98F82758300120B0EF597E5962052
:1010C700E7FB900791E004F080D4900788E475F07F
:1010D70040120B4D90078DE024C0F090078CE03450
:1010E700FFF090078BE02440F090078AE03400F08F
:1010F7008052E59620E7FB759620E4900791F090E3
:101107000791E0FFD390078DE09F90078CE0940054
:101117004026900787E0FBA3E0FAA3E0F990079148
:10112700E0F582758300120B0EF597E59620E7FB35
:10113700900791E004F080C790079EE04408F0E430
:1011470090078EF0900797E0FEA3E0FF90078AE0F4
:10115700B50611A3E0B5070C90079EE04408F0E43C
:1011670090078EF0E59620E7FB75961190079EE0B5
:03117700F59722C7
:102FA000E59620E7FB75960EE4F597E59620E7FB9E
:0D2FB00075961175972090078E7404F0221D
:10255F0090077EE0247F6007146006240270488095
:10256F002D90078FE0B40309900782E0B402028038
:10257F000E900790E0B40316900782E0B4820F909C
:10258F00078774FFF0A37400F0A37439800D9007D0
:10259F008774FFF0A37400F0A3743BF090078CE4F2
:1025AF00F0A37402F08003122FA090078EE0640452
:1025BF00601012301A90078E7401F0E490078AF0C1
:0325CF00A3F02254
:102B4F00900780E07041900782E0B4021DE5962067
:102B5F00E7FB75960E759702E59620E7FB759614C1
:102B6F00759780E490078FF08020E59620E7FB753E
:102B7F00960E759702E59620E7FB759611759740AF
:102B8F00E4900790F08003122FA0E59620E7FB75E5
:082B9F00960EE4F59702301ACE
:101B9600900796E020E003021C2C900794E030E0CA
:101BA6000854FEF04402F08007900794E054FDF0DC
:101BB600E59620E7FB75960E759702E59620E7FBFE
:101BC600759614759710E59620E7FB75961175972F
:101BD60008E59620E7FB759694E59620E7FB9007C7
:101BE6009DE597F0E020E4E9E59620E7FB7596147D
:101BF600759710E59620E7FB759691E59620E7FB2D
:101C060090079DE597F0E020E3E9E59620E7FB7570
:101C160096117597089007927408F0900794E0FF64
:101C260030E1034401F0900795E0FCA3E0FD30E1CC
:101C36000D9007867406F0900792E04410F0ED30A0
:101C4600E20D9007867404F0900792E04420F0E5D8
:0D1C56009620E7FB75960EE4F59702301A14
:102BA700900780E07040900782E0B4021BE5962012
:102BB700E7FB75960E759702E59620E7FB75961469
:102BC70075972090078F8019E59620E7FB75960E7D
:102BD700759702E59620E7FB759611759710900794
:102BE700907403F08003122FA0E59620E7FB7596FB
:072BF7000EE4F59702301A0D
:102F6100E59620E7FBE4F596900780E0FFF597EF03
:102F710090078660057403F080037402F002301A32
:101E9B00900781E024FE601B14603B240270699064
:101EAB0007877401F0A37407F0A37440F090074008
:101EBB00E0804A9007877401F0A37407F0A3745273
:101ECB00F0900755E0FE900754E07C002400FFECF7
:101EDB003E90078C802C900780E075F003A4247251
:101EEB00F582E43407F583E0FBA3E0FAA3E0F99075
:101EFB000787EBF0A3EAF0A3E9F0120AF5FF9007CE
:101F0B008CE4F0A3EFF08003122FA090078CE0FE7F
:101F1B00A3E0FF900797E0FCA3E0FDC39FEC9E506E
:101F2B000890078CECF0A3EDF090078EE064046052
:101F3B001012301A90078E7401F0E490078AF0A308
:021F4B00F02282
:102D3100900786E0FFB40414A374FFF0A37400F0BD
:102D4100A37439F090078CE4F0A304F0EFB40316F8
:102D510090078774FFF0A37400F0A3743BF0900711
:102D61008CE4F0A304F012301A90078E7401F0E4A1
:072D710090078AF0A3F02295
:102A4300900780E0D394004042900792E04440F026
:102A53009007867404F0E490078FF0A3F0E59620C6
:102A6300E7FB75960E759702E59620E7FB759612C0
:102A7300759784E59620E7FB759615759780E5961F
:102A830020E7FB75960EE4F597800C900786740398
:0A2A9300F090078FF0A3F002301A54
:102EF20090078774FFF0A37400F0A3743BF090076F
:102F02008CE4F0A304F012301A90078E7401F0E4FE
:072F120090078AF0A3F022F2
:10301A0090078EE06404600BE59620E7FB75961135
:04302A007597402234
:030043000212E5C1
:1012E500C0E0C0F0C083C082C0D075D000C000C0CF
:1012F50001C002C003C004C005C006C0079007A115
:10130500E596F0E59620E7FB75968EE59620E7FBDA
:101315009007A2E597F0E59620E7FB759686E5969A
:1013250020E7FB900799E597F0E030E30BE5962081
:10133500E7FB75960B759707900799E030E2031266
:101345002ECB900799E030E014900786E0FF640407
:101355006004EFB40607900792E04480F0E596201C
:10136500E7FB759682E59620E7FB900799E597F0F0
:10137500E030E003120F47900799E030E22AE59646
:1013850020E7FB75960E759702E59620E7FB7596A7
:1013950091E59620E7FB90079AE597F0E0540370F6
:1013A50007900792E04402F0E59620E7FB759684E6
:1013B500E59620E7FB900799E597F0E030E229E50F
:1013C5009620E7FB75960E759702E59620E7FB7567
:1013D5009694E59620E7FB90079AE597F0E030E0D4
:1013E50007900792E04404F0E59620E7FB75960E1A
:1013F5009007A2E0F597E59620E7FB9007A1E59613
:10140500F0E59620E7FB900794E030E0099007921D
:10141500E06003122F3FD007D006D005D004D003DB
:10142500D002D001D000D0D0D082D083D0F0D0E08F
:011435003284
:102D7800E5B964E0602E53A90FC0A943B280E5A964
:102D88005407D394014003E4F5A9E4F5B943B980A5
:102D9800E4D5E0FD43B9C0E5B930E5FBD0E0B402C5
:082DA8000343A90253A90F2205
:102E770053D7BF43C910E5A95402900791F043B255
:102E87008075A910E4F5B943B22000122D78900798
:0B2E970091E042A953C9EF43D740224D
:0E308700900792E0FFE4F022900792E0FF2213
:101F4D00900786E0B40606EDD3944040037F00224F
:101F5D00E59620E7FB75960E759702E59620E7FB53
:101F6D00759694E59620E7FB90079CE597F0E020A9
:101F7D00E003021FF9E59620E7FB759696E596209E
:101F8D00E7FB900793E597F0E0FFEDC39F5006AE9A
:101F9D0005AF068000900793EFF053E6FDE5962020
:101FAD00E7FB7596E2900793E06025FEEB60063047
:101FBD00E70F7F0022E59620E7FBA79709DEF68065
:101FCD000F89828A83E59620E7FBE597F0A3DEF57E
:101FDD00E59620E7FBE4F596E59620E7FB7596146C
:0F1FED00E4F59743E602900793E0FF227F00227E
:1017DB00900786E0B4060DED4C6009D3ED9400EC58
:1017EB0094104004E4FEFF2253E6FDE490079FF0C3
:1017FB00A3F090079BF089828A83C083C0829007F5
:10180B009BE030E0030218DCE59620E7FB75960EB3
:10181B00759702E59620E7FB759691E59620E7FB19
:10182B0090079BE597F0E030E020E59620E7FB750D
:10183B00960EE4F597E59620E7FB759691E59620D5
:10184B00E7FB90079BE597F080B4C3ED9440EC94D5
:10185B00009007A0E0401B2440F090079FE034006D
:10186B00F074C02DFD74FF3CFCE490079BF07840B6
:10187B0080132DF090079FE03CF090079B7401F0D4
:10188B00A805E4FCFDE59620E7FB759622D082D0F7
:10189B0083E8602BEB601130E71AE59620E7FBE459
:1018AB0093F597A3D8F48017E59620E7FB87970964
:1018BB00D8F6800BE59620E7FBE0F597A3D8F5C0AB
:1018CB0083C082E59620E7FB759611759701021888
:1018DB0009D082D08343E60290079FE0FEA3E0FF8E
:0118EB0022DA
:102FBD00900794E04401F0900792E0600BE59620B5
:092FCD00E7FB75960B75970F22C6
:0C309500E59620E7FB75960F75978922E1
:102F3F00D007D007D007D006D005D004D003D002D9
:102F4F00D001D000D0D0D082D083D0F0D0E002001A
:022F5F008B22C3
:0300000002225485
:0C225400787FE4F6D8FD75817502229BAE
:1009FF00E709F608DFFA8046E709F208DFFA803EDA
:100A0F0088828C83E709F0A3DFFA8032E309F608C6
:100A1F00DFFA8078E309F208DFFA807088828C832E
:100A2F00E309F0A3DFFA806489828A83E0A3F608E2
:100A3F00DFFA805889828A83E0A3F208DFFA804CBC
:100A4F0080D280FA80C680D4806980F28033801093
:100A5F0080A680EA809A80A880DA80E280CA8033FC
:100A6F0089828A83ECFAE493A3C8C582C8CCC58374
:100A7F00CCF0A3C8C582C8CCC583CCDFE9DEE78044
:100A8F000D89828A83E493A3F608DFF9ECFAA9F0C3
:100A9F00EDFB2289828A83ECFAE0A3C8C582C8CC19
:100AAF00C583CCF0A3C8C582C8CCC583CCDFEADE32
:100ABF00E880DB89828A83E493A3F208DFF980CC94
:100ACF0088F0EF60010E4E60C388F0ED2402B4048D
:100ADF000050B9F582EB2402B4040050AF23234534
:060AEF008223900A4F7300
:100AF500BB010689828A83E0225002E722BBFE02FF
:090B0500E32289828A83E4932231
:100B0E00BB010CE58229F582E5833AF583E022509C
:100B1E0006E92582F8E622BBFE06E92582F8E222E6
:0D0B2E00E58229F582E5833AF583E4932200
:100B3B00EF8DF0A4A8F0CF8CF0A428CE8DF0A42ECE
:020B4B00FE2288
:100B4D00C5F0F8A3E028F0C5F0F8E5821582700233
:060B5D001583E038F022D0
:100B6300E88FF0A4CC8BF0A42CFCE98EF0A42CFC31
:100B73008AF0EDA42CFCEA8EF0A4CDA8F08BF0A4AF
:100B83002DCC3825F0FDE98FF0A42CCD35F0FCEB0E
:100B93008EF0A4FEA9F0EB8FF0A4CFC5F02ECD39D3
:0F0BA300FEE43CFCEAA42DCE35F0FDE43CFC2240
:100BB20075F008758200EF2FFFEE33FECD33CDCCFA
:100BC20033CCC58233C5829BED9AEC99E58298407D
:100BD2000CF582EE9BFEED9AFDEC99FC0FD5F0D65A
:100BE200E4CEFBE4CDFAE4CCF9A88222B800C1B984
:100BF2000059BA002DEC8BF084CFCECDFCE5F0CBC2
:100C0200F97818EF2FFFEE33FEED33FDEC33FCEBFA
:100C120033FB10D703994004EB99FB0FD8E5E4F9B5
:100C2200FA227818EF2FFFEE33FEED33FDEC33FCA2
:100C3200C933C910D7059BE99A4007EC9BFCE99A96
:100C4200F90FD8E0E4C9FAE4CCFB2275F010EF2FDB
:100C5200FFEE33FEED33FDCC33CCC833C810D707DB
:100C62009BEC9AE899400AED9BFDEC9AFCE899F816
:0E0C72000FD5F0DAE4CDFBE4CCFAE4C8F922A9
:100C8000EB9FF5F0EA9E42F0E99D42F0E89C45F0CA
:010C90002241
:100C9100E8600FECC313FCED13FDEE13FEEF13FF41
:030CA100D8F12265
:100CA400E8600FEFC333FFEE33FEED33FDEC33FCAE
:030CB400D8F12252
:100CB7007401FF3395E0FEFDFC080808E6CF2FF628
:100CC70018E6CE3EF618E6CD3DF618E6CC3CF62201
:0C0CD700ECF0A3EDF0A3EEF0A3EFF02290
:100CE300A8828583F0D083D082120CFA120CFA12F8
:100CF3000CFA120CFAE473E493A3C583C5F0C5831D
:100D0300C8C582C8F0A3C583C5F0C583C8C582C85A
:010D130022BD
:10226000022863E493A3F8E493A34003F68001F209
:1022700008DFF48029E493A3F85407240CC8C3337F
:10228000C4540F4420C8834004F456800146F6DF4E
:10229000E4800B0102040810204080902EA2E47E0E
:1022A000019360BCA3FF543F30E509541FFEE49343
:1022B000A360010ECF54C025E060A840B8E493A30A
:1022C000FAE493A3F8E493A3C8C582C8CAC583CA35
:1022D000F0A3C8C582C8CAC583CADFE9DEE780BEED
:012ECA000007
:00000001FF
