:10000000D8D4002029330000A9740000593300001F
:10001000593300005933000059330000000000003C
:100020000000000000000000000000009932000005
:1000300059330000000000005132000083740000BA
:10004000E9320000E9320000E9320000E932000044
:10005000E9320000E9320000E9320000E932000034
:10006000E9320000E9320000E9320000E932000024
:10007000E9320000E9320000E9320000E932000014
:10008000E9320000E9320000E9320000E932000004
:10009000E9320000E9320000E9320000E9320000F4
:1000A000E9320000E9320000E9320000E9320000E4
:1000B000E9320000E9320000E9320000E9320000D4
:1000C000E9320000E9320000E9320000E9320000C4
:0C00D000E9320000E9320000E9320000D3
:0400DC00FFFFFFFF24
:1000E00070B54FF0FF0C4CF4E06C1CEA11541DBFCE
:1000F0001CEA135594EA0C0F95EA0C0F00F0DEF899
:100100002C4481EA030621EA4C5123EA4C5350EA7D
:10011000013518BF52EA033541F4801143F48013CE
:1001200038D0A0FB02CE4FF00005E1FB02E506F05F
:100130000042E0FB03E54FF00006E1FB03569CF0B4
:10014000000F18BF4EF0010EA4F1FF04B6F5007FBA
:1001500064F5407404D25FEA4E0E6D4146EB06062C
:1001600042EAC62141EA55514FEAC52040EA5E50B5
:100170004FEACE2EB4F1FD0C88BFBCF5E06F1ED85F
:10018000BEF1004F08BF5FEA500E50F1000041EB96
:10019000045170BD06F0004646EA010140EA020043
:1001A00081EA0301B4EB5C04C2BFD4EB0C0541EA65
:1001B000045170BD41F480114FF0000E013C00F37A
:1001C000AB8014F1360FDEBF002001F0004170BD9E
:1001D000C4F10004203C35DA0C341BDC04F11404B7
:1001E000C4F1200500FA05F320FA04F001FA05F243
:1001F00040EA020001F0004221F0004110EBD37010
:1002000021FA04F642EB06015EEA430E08BF20EA3B
:10021000D37070BDC4F10C04C4F1200500FA04F3DE
:1002200020FA05F001FA04F240EA020001F0004170
:1002300010EBD37041F100015EEA430E08BF20EAE3
:10024000D37070BDC4F1200500FA05F24EEA020E2B
:1002500020FA04F301FA05F243EA020321FA04F05A
:1002600001F0004121FA04F220EA020000EBD37011
:100270005EEA430E08BF20EAD37070BD94F0000F11
:100280000FD101F00046400041EB010111F4801F45
:1002900008BF013CF7D041EA060195F0000F18BFF6
:1002A000704703F00046520043EB030313F4801F32
:1002B00008BF013DF7D043EA0603704794EA0C0FEC
:1002C0000CEA135518BF95EA0C0F0CD050EA410602
:1002D00018BF52EA4306D1D181EA030101F000417F
:1002E0004FF0000070BD50EA410606BF10461946A7
:1002F00052EA430619D094EA0C0F02D150EA0136B3
:1003000013D195EA0C0F05D152EA03361CBF1046F3
:1003100019460AD181EA030101F0004141F0FE4192
:1003200041F470014FF0000070BD41F0FE4141F416
:10033000780170BD81F0004102E000BF83F000430E
:1003400030B54FEA41044FEA430594EA050F08BF70
:1003500090EA020F1FBF54EA000C55EA020C7FEA34
:10036000645C7FEA655C00F0E2804FEA5454D4EBB1
:100370005555B8BF6D420CDD2C4480EA020281EA7B
:10038000030382EA000083EA010180EA020281EAB3
:100390000303362D88BF30BD11F0004F4FEA013105
:1003A0004FF4801C4CEA113102D0404261EB410114
:1003B00013F0004F4FEA03334CEA133302D052429A
:1003C00063EB430394EA050F00F0A780A4F1010456
:1003D000D5F1200E0DDB02FA0EFC22FA05F2801890
:1003E00041F1000103FA0EF2801843FA05F3594176
:1003F0000EE0A5F120050EF1200E012A03FA0EFCF5
:1004000028BF4CF0020C43FA05F3C01851EBE3711E
:1004100001F0004507D54FF0000EDCF1000C7EEB3B
:1004200000006EEB0101B1F5801F1BD3B1F5001F79
:100430000CD349085FEA30004FEA3C0C04F1010498
:100440004FEA445212F5800F80F09A80BCF1004FC1
:1004500008BF5FEA500C50F1000041EB045141EA43
:10046000050130BD5FEA4C0C404141EB0101013C0C
:1004700028BFB1F5801FE9D291F0000F04BF0146FB
:100480000020B1FA81F308BF2033A3F10B03B3F1CD
:1004900020020CDA0C3208DD02F1140CC2F10C025D
:1004A00001FA0CF021FA02F10CE002F11402D8BFBB
:1004B000C2F1200C01FA02F120FA0CFCDCBF41EA87
:1004C0000C019040E41AA2BF01EB0451294330BD56
:1004D0006FEA04041F3C1CDA0C340EDC04F1140433
:1004E000C4F1200220FA04F001FA02F340EA03000A
:1004F00021FA04F345EA030130BDC4F10C04C4F150
:10050000200220FA02F001FA04F340EA030029462F
:1005100030BD21FA04F0294630BD94F0000F83F479
:10052000801306BF81F480110134013D4EE77FEA5C
:10053000645C18BF7FEA655C29D094EA050F08BFA8
:1005400090EA020F05D054EA000C04BF1946104689
:1005500030BD91EA030F1EBF0021002030BD5FEACD
:10056000545C05D14000494128BF41F0004130BDF5
:1005700014F580043CBF01F5801130BD01F0004549
:1005800045F0FE4141F470014FF0000030BD7FEABC
:10059000645C1ABF194610467FEA655C1CBF0B46B7
:1005A000024650EA013406BF52EA033591EA030FCE
:1005B00041F4002130BD00BF90F0000F04BF0021C6
:1005C000704730B54FF4806404F132044FF00005F9
:1005D0004FF0000150E700BF90F0000F04BF002172
:1005E000704730B54FF4806404F1320410F00045D8
:1005F00048BF40424FF000013EE700BF42004FEAD3
:10060000E2014FEA31014FEA02701FBF12F07F434F
:1006100093F07F4F81F06051704732F07F4208BF06
:10062000704793F07F4F04BF41F40021704730B50D
:100630004FF4607401F0004521F000411CE700BF59
:1006400050EA010208BF704730B54FF000050AE0DC
:1006500050EA010208BF704730B511F0004502D5DD
:10066000404261EB41014FF4806404F132045FEADF
:10067000915C3FF4D8AE4FF003025FEADC0C18BF88
:1006800003325FEADC0C18BF033202EBDC02C2F17A
:10069000200300FA03FC20FA02F001FA03FE40EA0C
:1006A0000E0021FA02F11444BDE600BF4FEA4102F8
:1006B00012F5001215D211D56FF47873B3EB6252B4
:1006C00012D94FEAC12343F0004343EA505311F0DB
:1006D000004F23FA02F018BF404270474FF000006D
:1006E000704750EA013005D111F0004008BF6FF0AB
:1006F000004070474FF00000704700BF4FEA4102D2
:10070000B2F1E04324BFB3F5001CDCF1FE5C0DD96F
:1007100001F0004C4FEAC0024CEA5070B2F1004FB9
:1007200040EB830008BF20F00100704711F0804FBC
:1007300021D113F13872BCBF01F00040704741F481
:1007400080114FEA5252C2F11802C2F1200C10FA85
:100750000CF320FA02F018BF40F001004FEAC12369
:100760004FEAD32303FA0CFC40EA0C0023FA02F30D
:100770004FEA4303CCE77FEA625307D150EA0133E3
:100780001EBF4FF0FE4040F44000704701F00040B3
:1007900040F0FE4040F40000704700BF80F0004091
:1007A00002E000BF81F0004142001FBF5FEA410349
:1007B00092EA030F7FEA226C7FEA236C6AD04FEA49
:1007C0001262D2EB1363C1BFD2184140484041408E
:1007D000B8BF5B42192B88BF704710F0004F40F440
:1007E000000020F07F4018BF404211F0004F41F45C
:1007F000000121F07F4118BF494292EA030F3FD028
:10080000A2F1010241FA03FC10EB0C00C3F120033A
:1008100001FA03F100F0004302D5494260EB4000C9
:10082000B0F5000F13D3B0F1807F06D340084FEA34
:10083000310102F10102FE2A51D2B1F1004F40EB29
:10084000C25008BF20F0010040EA03007047490091
:1008500040EB0000013A28BFB0F5000FEDD2B0FA2E
:1008600080FCACF1080CB2EB0C0200FA0CF0AABF51
:1008700000EBC25052421843BCBFD04018437047EF
:1008800092F0000F81F4000106BF80F400000132F5
:10089000013BB5E74FEA41037FEA226C18BF7FEACC
:1008A000236C21D092EA030F04D092F0000F08BF0E
:1008B0000846704790EA010F1CBF0020704712F0F5
:1008C0007F4F04D1400028BF40F00040704712F134
:1008D00000723CBF00F50000704700F0004343F099
:1008E000FE4040F4000070477FEA226216BF0846CF
:1008F0007FEA23630146420206BF5FEA412390EA92
:10090000010F40F4800070474FF0000304E000BF87
:1009100010F0004348BF40425FEA000C08BF704738
:1009200043F0964301464FF000001CE050EA0102FC
:1009300008BF70474FF000030AE000BF50EA010211
:1009400008BF704711F0004302D5404261EB4101FE
:100950005FEA010C02BF84460146002043F0B64323
:1009600008BFA3F18053A3F50003BCFA8CF2083A48
:10097000A3EBC25310DB01FA02FC634400FA02FC51
:10098000C2F12002BCF1004F20FA02F243EB020058
:1009900008BF20F00100704702F1200201FA02FCBA
:1009A000C2F1200250EA4C0021FA02F243EB0200AD
:1009B00008BF20EADC7070474FF0FF0C1CEAD052F1
:1009C0001EBF1CEAD15392EA0C0F93EA0C0F6FD0B2
:1009D0001A4480EA010C400218BF5FEA41211ED090
:1009E0004FF0006343EA501043EA5111A0FB01317C
:1009F0000CF00040B1F5000F3EBF490041EAD37151
:100A00005B0040EA010062F17F02FD2A1DD8B3F1CC
:100A1000004F40EBC25008BF20F00100704790F03B
:100A2000000F0CF0004C08BF49024CEA502040EA8D
:100A300051207F3AC2BFD2F1FF0340EAC250704753
:100A400040F400004FF00003013A5DDC12F1190F91
:100A5000DCBF00F000407047C2F10002410021FA03
:100A600002F1C2F1200200FA02FC5FEA310040F11B
:100A7000000053EA4C0308BF20EADC70704792F094
:100A8000000F00F0004C02BF400010F4000F013ACC
:100A9000F9D040EA0C0093F0000F01F0004C02BFC7
:100AA000490011F4000F013BF9D041EA0C018FE736
:100AB0000CEAD15392EA0C0F18BF93EA0C0F0AD03C
:100AC00030F0004C18BF31F0004CD8D180EA010062
:100AD00000F00040704790F0000F17BF90F0004FFB
:100AE000084691F0000F91F0004F14D092EA0C0FDD
:100AF00001D142020FD193EA0C0F03D14B0218BF70
:100B0000084608D180EA010000F0004040F0FE40B5
:100B100040F40000704740F0FE4040F44000704751
:100B20004FF0FF0C1CEAD0521EBF1CEAD15392EAD0
:100B30000C0F93EA0C0F69D0A2EB030280EA010CC0
:100B400049024FEA402037D04FF0805343EA111159
:100B500043EA10130CF000408B4238BF5B0042F1B7
:100B60007D024FF4000C8B4224BF5B1A40EA0C005C
:100B7000B3EB510F24BFA3EB510340EA5C00B3EB8E
:100B8000910F24BFA3EB910340EA9C00B3EBD10F7C
:100B900024BFA3EBD10340EADC001B0118BF5FEACE
:100BA0001C1CE0D1FD2A3FF650AF8B4240EBC250F7
:100BB00008BF20F0010070470CF0004C4CEA5020B8
:100BC0007F32C2BFD2F1FF0340EAC250704740F407
:100BD00000004FF00003013A37E792F0000F00F0F9
:100BE000004C02BF400010F4000F013AF9D040EA77
:100BF0000C0093F0000F01F0004C02BF490011F40B
:100C0000000F013BF9D041EA0C0195E70CEAD15302
:100C100092EA0C0F08D142027FF47DAF93EA0C0FE9
:100C20007FF470AF084676E793EA0C0F04D14B02CD
:100C30003FF44CAF08466EE730F0004C18BF31F07F
:100C4000004CCAD130F000427FF45CAF31F0004379
:100C50007FF43CAF5FE700BF53B94AB9002908BF32
:100C600000281CBF4FF0FF314FF0FF3000F06CB98F
:100C7000ADF1080C6DE904CE00F006F8DDF804E0F3
:100C8000DDE9022304B070472DE9F047089E0D46C8
:100C900004468E46002B40F082808A42174646D991
:100CA000B2FA82F24AB1C2F1200105FA02F320FA47
:100CB00001F1974041EA030E94404FEA1748230C94
:100CC000BEFBF8FCB9B208FB1CEE43EA0E430CFB7A
:100CD00001F098420AD9FB180CF1FF3580F016811B
:100CE000984240F21381ACF1020C3B441B1AA4B2AF
:100CF000B3FBF8F008FB103344EA034400FB01F1B6
:100D0000A14209D93C1900F1FF3380F00181A142D1
:100D100040F2FE8002383C44641A40EA0C40002154
:100D20001EB1D4400023C6E90043BDE8F08702B9F4
:100D3000FFDEB2FA82F2002A4FD1CB1B4FEA174EE8
:100D40001FFA87F80121B3FBFEFC250C0EFB1C33B8
:100D500045EA034508FB0CF3AB4207D97D190CF1BA
:100D6000FF3002D2AB4200F2E7808446ED1AA3B214
:100D7000B5FBFEF00EFB105543EA054408FB00F8F6
:100D8000A04507D93C1900F1FF3302D2A04500F27B
:100D9000D7801846A4EB080440EA0C40C0E78B4219
:100DA00008D9002E00F0AF800021C6E900050846F2
:100DB000BDE8F087B3FA83F100294BD1AB4202D3EF
:100DC000824200F2B780841A65EB030301209E463D
:100DD000002EAAD0C6E9004EA7E7C2F1200C01FA06
:100DE00002F3974020FA0CF04FEA174E21FA0CFC60
:100DF0001843BCFBFEF1050C0EFB11CC1FFA87F863
:100E000045EA0C4501FB08F3AB4204FA02F409D9A8
:100E10007D1901F1FF3C80F08B80AB4240F288806D
:100E200002393D44EB1A85B2B3FBFEF00EFB1033E2
:100E300045EA034500FB08F3AB4207D97D1900F1F1
:100E4000FF3C71D2AB426FD902383D44EB1A40EA05
:100E5000014178E7C1F1200C8B4022FA0CF71F43C7
:100E600020FA0CF405FA01F34FEA174E25FA0CF5B7
:100E70001C43230CB5FBFEF91FFA87F80EFB19552E
:100E800043EA054509FB08FAAA4502FA01F200FA0D
:100E900001F308D97D1909F1FF3047D2AA4545D998
:100EA000A9F102093D44A5EB0A05A4B2B5FBFEF089
:100EB0000EFB105544EA054400FB08F8A04507D98D
:100EC0003C1900F1FF352DD2A0452BD902383C4406
:100ED00040EA0940A4EB0804A0FB02894C45C64641
:100EE0004D4619D316D05EB1B3EB0E0264EB050488
:100EF00004FA0CFCCA404CEA0202CC40C6E90024C9
:100F00000021BDE8F087314630460EE7AC46EDE6FD
:100F1000184601E74345E6D2B8EB020E69EB070538
:100F20000138E0E72846D3E760468FE78146BAE715
:100F3000614677E708464BE7ACF1020C3D4415E704
:100F400002383C4426E700BF704700BF00000000A5
:100F50002DE9F04794B06D460024042000F05CF8C1
:100F60000134142C45F8040BF7D117A7D7E9006713
:100F7000DFF860904FF0000AE84613255446D8F891
:100F8000041048F8041B2046FFF70EFC013D044600
:100F9000F5D1042000F040F821461390FFF704FC3F
:100FA0004946FFF7BDFDFFF729FB3B463246FFF7F9
:100FB00097F8FFF77BFB064B1860642005F042FBB7
:100FC000DAE700BFAFF300803333333333E352400B
:100FD0008C0000200000A04137B5054601A800F0B4
:100FE00095FF019B1A0444BF5B420193044601989C
:100FF000FFF78EFCFFF702FB05A3D3E90023FFF701
:101000006FF8FFF77BFB2860204603B030BD00BFC0
:101010007B14AE47E17A743FF0B5012387B083407B
:1010200002930C2300260493294F01960A230546B8
:10103000ADF8143003978DF8166000F091FF254B42
:101040001A78954204460CD0234A1D70167070B968
:1010500000241F480C22002106F07CFAC4B91F4866
:101060002EE00028F4D01C4B1B78002BF1D11C493A
:101070000B7965F3040301350B714D71A3682046AC
:101080001B6898470028E3D1134B01221A70E0E750
:10109000A36801A95B68204698470028DFD1B7F90B
:1010A0000000431CDBD0FFF797FA07A3D3E9002326
:1010B000FFF716F80B4B0022FFF712F8FFF71EFBA5
:1010C00007B0F0BDAFF30080CDCCCCCCCCCC0C4085
:1010D0005CC40020410100206DC40020000080BFDE
:1010E000380100200000503F83B500F02FFA00F0D7
:1010F00087FA00F091FC05F010FE00F013FD00F0FF
:10110000B1FE00F0CDFE174BDFF87880164F174E7A
:1011100001221A60D8F80030FBB1012BFCD1144D2C
:10112000144A154B1049114800F056FD2846FFF7A8
:1011300053FF00F0EFFA114B044618602868FFF7E0
:101140005DFA0B46396801913168009102462146EB
:101150000B4802F0D7FF0A2001E04FF4FA7005F0C7
:1011600071FAD7E7549A0020649A0020589A002018
:101170006C9A002068C4002069C40020689A00208E
:1011800092810000609A002008B500F0BFFD01F0D8
:1011900051FB044C00F01EFE20704FF4FA7005F075
:1011A00051FAF7E74001002008B5064C23783BB917
:1011B000012001F095FB4FF4FA7005F043FAF5E7D2
:1011C0000020F6E74001002008B5054C237813B94C
:1011D000012001F06BFB4FF4FA7005F033FAF5E7EC
:1011E0004001002008B50D480D4C06F034F82546A6
:1011F00023686BB10B4C012641F2883005F022FACE
:10120000042342F2107026602B6005F01BFAF3E70E
:101210004FF47A7005F016FAEAE700BFD0810000BB
:10122000549A0020609A002008B505F01FFF0120A5
:1012300005F008FA01F066FA024B1868BDE80840AC
:1012400005F0DEBE9000002080B588B001F05AFAAB
:10125000FF20814E814D05F0D3FEB0463368FF2B51
:1012600032DDFF2333602B68D8F8002093422FDA59
:101270007B4A126813442B602B68FF2B2DDDFF2364
:101280002B60286805F0BCFE764B1C68012C28D02A
:10129000042C40D0002CE1D1734F74480094962266
:1012A00011464FF6FF7305F07CFF3A68704B53F818
:1012B000220001F04FF93B68032B98BF5C1C6D4B7B
:1012C0003C6000221A60C9E7312BCCDC3223C9E72D
:1012D000D2DD634A12689B1ACDE7312BD1DC322371
:1012E000CEE7644C2368012B01D0FFF79DFF9622C7
:1012F00000271146604800974FF6FF7305F051FF35
:101300004FF6FF735D480097C822822105F049FF20
:1013100001232360A2E7DFF85C91D9F80030042BA9
:101320004DD0FFF781FF3224642300271A4654482A
:101330001F21CDE9004401F077F9524800974FF69C
:10134000FF73A0225A2105F02CFF4F4864234FF46D
:1013500082724FF47841CDE9004401F065F94B48C1
:1013600000974FF6FF73A0224FF4847105F019FF28
:1013700047484FF48C7364224FF4FC61CDE900447C
:1013800001F052F9434800974FF6FF734FF4AA72E9
:101390005E2105F006FF40484FF48C734FF48272D3
:1013A0004FF47841CDE9004401F03EF93B48009705
:1013B0004FF6FF734FF4AA72FA2105F0F2FE384B94
:1013C00038491A6802A8002402F084FE4FF6FF7321
:1013D0000094BE22782102A805F0E3FE324B1B7870
:1013E00073B1324B32491A6806A802F073FE0094BA
:1013F0004FF6FF73BE224FF4877106A805F0D1FEA9
:101400002C4B1868FFF7FAF8002402460B4604A894
:10141000294902F05FFE4FF6FF7300944FF4B97252
:101420005A2104A805F0BDFE244B1B787BB1244B48
:101430001F491A6806A802F04DFE00944FF6FF738C
:101440004FF4B9724FF4827106A805F0AAFE042386
:10145000C9F8003002E700BF8C0000209000002097
:1014600088000020549A00205C9A0020F28100003D
:1014700094000020509A0020FA81000002820000AF
:101480004A8200200D820000021100201382000019
:101490000E8C002017820000867800201C8200003D
:1014A000689A00202182000068C40020589A002019
:1014B000248200006C9A00202982000069C4002068
:1014C000649A002070B5064688B00D4614460D4853
:1014D00004F028FA0DF10702029201220392002281
:1014E0008DF810200222CDE905548DF807608DF8A3
:1014F0001C20836802A95C681923A047C0B208B009
:1015000070BD00BF9C82000070B5064688B00D46D5
:1015100014460D4804F006FA0DF10702029201226A
:10152000039200228DF810200722CDE905548DF892
:1015300007608DF81C20836802225C6802A91923C9
:10154000A047C0B208B070BD9C82000030B58DB01D
:10155000204804F0E7F920B91F4805F07CFE0DB0E3
:1015600030BD1E4B019319221A701D4A08921D4A64
:1015700009921D4A0A920822ADF814200C228DF817
:101580000C20684646228DF8162005F0E0FAE8B9EE
:10159000164805F060FE6946B62005F0C7FA4FF41C
:1015A000A470002104F0AEFD684600F0C3F978B9DC
:1015B0000F48104D6C4605F04EFE0FCC0FC50FCCFA
:1015C0000FC594E80F0085E80F00C8E70A48E0E778
:1015D0000A48EEE79C820000A28200006AC4002054
:1015E00009150000C51400006B660000C1820000F0
:1015F00003830000709A0020DE8200001D8300003B
:1016000070B5374D0FCD8CB06C460FC40FCD0FC4E5
:1016100095E80F0084E80F006946B62005F086FAC9
:10162000044690B92F4805F016FE002140F6CD4043
:1016300004F068FD684605F08AFA044360B284B29B
:101640002CB1294805F007FE15E02848EBE72848AB
:1016500005F001FE6946012005F043FA84B26CB939
:10166000244805F0F8FD684600F064F984B23CB106
:10167000214802F047FD20460CB070BD1F48E1E74D
:101680001F4802F03FFD01216A46084605F087FA2F
:1016900084B20CB11B48ECE71B4802F033FD204636
:1016A0006B460122022105F066FA84B224B121467C
:1016B000164802F027FDDEE76946012005F0E6FA4C
:1016C00084B2002CF3D16D460FCD054E0FC60FCD61
:1016D0000FC695E80F0086E80F000D48B2E700BF7F
:1016E000709A00203E830000A18300006C830000FC
:1016F000CD830000F2830000338400000F840000DB
:101700004D8400006D840000888400009F840000E8
:10171000AF84000030B50C4D0FCD8FB002AC0FC4BC
:101720000FCD0FC495E80F0084E80F00002302A935
:1017300001A8019305F0D6FA10B1044805F08BFD1D
:1017400001980FB030BD00BF709A0020C784000020
:10175000F7B50546294600208DF804008DF80500F0
:1017600005F0ECF8AB6A696804464FF4E1709847FD
:101770004CB92B46012201A9592005F003F9044672
:10178000002800F08780204603B0F0BD73092F6960
:101790008DF806302846C6F3430337448DF80730EA
:1017A00004F065FF002872D1002F70D02B46012273
:1017B0000DF107015B2005F0E5F8044678B92B46EA
:1017C00001220DF106015C2005F0DCF8044630B979
:1017D000AA8A2B4639465E2004F08EFF0446AB8A67
:1017E0001E44B6B2AB8DB342D0D8002CCBD101266B
:1017F0002B46324601A959208DF8046005F0C2F845
:1018000004460028BFD1AB6A69682548984732462C
:101810002B460DF105012A2005F008F89DF805601A
:1018200006F00F068DF8056004460028ABD1012EA6
:1018300032D12946304605F081F804460028A2D16D
:101840008DF806008DF80700284604F010FF0446C6
:10185000002898D12B4632460DF106015B2004F09A
:1018600014FF044600288ED12B4632460DF10701A5
:101870005C2004F00AFF0446002884D19DF806305D
:1018800003F00F03EB759DF807302B767BE74FF0E5
:10189000FF34A4E70646A5E76FF0040473E700BF32
:1018A000F0490200F7B51C46214B16461A889B7872
:1018B0008DF80630074645F2567320460D46ADF8C2
:1018C0000420ADF8003004F0D2FE70BB23460322A2
:1018D00001A9562004F0AAFF38BB02AB012E03EB8E
:1018E00007064FEA152217BF16F8041C06F8045C19
:1018F00021EA050506F8045C16BF9DF806308DF850
:101900000620934301A918BF8DF8063016F8080C7D
:1019100023460122394405F035F830B92346012227
:101920000DF10601582005F02DF803B0F0BD00BF01
:101930004380000090B10378162B12D1838A9A1E3F
:1019400092B241F2FE718A420ED8DA0744BF03F127
:10195000FF338382064B0361FFF7FABE4FF0FF307F
:1019600070476FF0030070476FF00900704700BFC9
:10197000E484000030B5054685B00C460A4803F003
:10198000D1FF02228DF800508DF80140CDF804D02F
:1019900002928DF80C20836801225C6801A957230C
:1019A000A047C0B205B030BD9C82000030B50546EE
:1019B00089B00C460D4803F0B5FF0DF10702029205
:1019C0000122CDE905420392002107228DF807503C
:1019D0008DF810108DF81C20836802225C6802A923
:1019E0005723A047C0B209B030BD00BF9C820000A1
:1019F00008B540210920FFF7BDFF20B9044805F0D4
:101A00002AFC012008BD034805F025FC0020F9E769
:101A1000E49C0000FB9C000013B5FFF7E9FF0021E8
:101A20004FF4004004F06EFB0DF106010020FFF7BB
:101A3000BDFF0DF10701FF20FFF7B8FF044650B9C5
:101A40009DF80730152B0CBF0448054805F003FC32
:101A5000204602B010BD0348F8E700BF199D000002
:101A60003B9D0000649D00002DE9F04190B01822DC
:101A700006460D4604A8002105F06CFD274B002406
:101A8000186802909B882C600DF1060134600420D8
:101A9000ADF80C30FFF78AFF0DF10601062002AF0A
:101AA000FFF784FF1E4803F03DFF07220DEB020104
:101AB0000A9101210B9106218DF807208DF8304005
:101AC0000D970E918DF83C2083680222D3F8048094
:101AD0000AA95723C04704AB013417F8012B43F878
:101AE000042B062CF8D1059B049A1B0203EB02433E
:101AF000069A13442B60089B079A1B0203EB0243D0
:101B0000099A1344C3F3110333602B680020C3F315
:101B100011032B6010B0BDE8F08100BF46800000CB
:101B20009C8200002DE9F04F204D214B214E224F89
:101B3000DFF898802B6000244FF4FA73DFF894B03C
:101B4000346087B03B60C146A2463968A14211DCCF
:101B50001A4B59F824201A60194B0293194B019320
:101B6000194B0093194A1A4B1A4800F0FFF907B0B5
:101B7000BDE8F08F8DF817A00DF117010020FFF7D9
:101B800015FF9DF81730402BF6D10BEB8401404632
:101B9000FFF76AFF58F8043B2A689342326838BF5F
:101BA0002B60934288BF33600134CEE750AA0020F7
:101BB000FFFF03004CAA002044AA002054AA0020E2
:101BC0006BC4002040AA00206CC4002070A200203A
:101BD00048AA0020A09A00202DE9F04F8BB0CDE953
:101BE0000512DFF810913A493A4A079307463A48F6
:101BF000DFF8FCE0026000230B60C8464FF4F57C80
:101C00001C461D46DEF82810D8F828604EF8041B44
:101C100091423CBF0A460125A14284BF0C460123E4
:101C2000BCF1010C48F8046BECD105B102600BB1BA
:101C3000274B1C60DFF8C080DFF8C0A0274D4FF4B1
:101C4000F5644FF0000B58F8043BCAF800308DF8EB
:101C500027B00DF127010020FFF7A8FE9DF82730DF
:101C6000402BF6D10DF127010420FFF79FFE0DF167
:101C700027010620FFF79AFE09EB04014046FFF713
:101C8000F3FE2B683B60164B05991A680A601549EC
:101C900091F90020501E42424241069802701248BB
:101CA00090F90020561E724272410434079EB4F52A
:101CB000FA6F3270C7D1CDE901510C4900900C4A3E
:101CC00009680C4800F052F90BB0BDE8F08F00BF76
:101CD0004CAA0020FFFF030050AA002040AA0020C9
:101CE00048AA00206BC400206CC4002044AA002035
:101CF00070A20020A09A002014AA002054AA00205C
:101D0000014805F0A8BA00BF989D000070B52748AB
:101D100003F008FE044628B9BDE870402349244872
:101D200005F099BA112140F2111205F04DF8014663
:101D300030B11E4A1F481123BDE8704005F08BBA30
:101D400011214FF4A822204605F02AF8014618B1C7
:101D5000164A19481123EFE71849194B4B604FF405
:101D600000338B60A368DB6913B1012220469847DA
:101D70000E4803F0D7FD054640B90C49114805F05F
:101D80006AFA114B1C60114B1D6070BD0A214FF4A3
:101D9000007205F019F801460028F2D0034A0C48F9
:101DA0000A2305F058FA0025EBE700BFA99D0000C3
:101DB000B09D0000CE9D0000F79D000058AA0020B5
:101DC000011D00002D9E000064AA002068AA0020CA
:101DD000489E0000024B1968024B186805F007B8CE
:101DE00068AA002064AA002030B5054689B00C46D8
:101DF0000D4803F097FD0DF1070202920122CDE993
:101E000005420392002107228DF807508DF810102B
:101E10008DF81C20836802225C6802A95023A04729
:101E2000C0B209B030BD00BF9C82000030B505468D
:101E300085B00C460A4803F075FD02228DF800506B
:101E40008DF80140CDF804D002928DF80C20836803
:101E500001225C6801A95023A047C0B205B030BD83
:101E60009C82000013B5FF200DF10701FFF7BCFFB6
:101E7000044650B99DF80730302B0CBF0548064882
:101E800005F0E9F9204602B010BD0146034805F00F
:101E9000E2F9F7E77C9E00009E9E0000C79E0000CE
:101EA00010B500210120FFF7C1FF002104460420E6
:101EB000FFF7BCFF002104430520FFF7B7FFA4B2E2
:101EC000044300210620FFF7B1FFA4B204430F2111
:101ED0000920FFF7ABFFA4B204431A210A20FFF741
:101EE000A5FFA4B20443C1211420FFF79FFFA4B2B1
:101EF0000443A4B224B9034805F0ADF9204610BD4F
:101F00000148F9E7FE9E0000199F0000F7B5002385
:101F100003600446C1211420FFF788FF0DF107017B
:101F200005460820FFF760FF0DF1070108209DF826
:101F30000770FFF759FF9DF8076006EB072626603C
:101F40000DF107010520FFF74FFF266015B103488B
:101F500005F081F9284603B0F0BD00BF3B9F0000AB
:101F6000014803F0DFBC00BF609F00002DE9F04F87
:101F7000BDB090460022069305900D461346AA4236
:101F800047DBB3FBF5F39C4C00222046AA4246DB1C
:101F9000994A0021176852F8043F5068034490683A
:101FA0003B441B1848BF033301319B10B1F5F87F48
:101FB00042F8043CEED191488F4F8446002240F213
:101FC000EF1E3B4679681B680132C91A72454CF80E
:101FD000041B07F10407F4D1884A0021136852F862
:101FE000047F3B44013103EBD3735B10B1F5F77F02
:101FF00042F8043CF2D1814F002140F2E9194B1D17
:10200000DFF804E28B42B4BF01230623BC46002262
:1020100013E0059951F8221001320B44AFE70599FE
:1020200051F82210C91A40F8041B0132AEE75CF8DF
:10203000046B3EF802AB06FB1A22013BF7D10131DB
:10204000494540F27A4692FBF6F247F8042BD6D186
:102050001A4640F2EF1750F8041B01330029B8BFAD
:102060004942BB420A44F6D10821052092FBF3F213
:10207000CDE90110009209A9604A2DA804F079FF6A
:10208000099F012F4FF0000338DD2DAA01201146D2
:10209000D2F804C009680130ACEB0101874202F1BB
:1020A00004020B44F3D17A1E93FBF2F341F27072F7
:1020B00092FBF3F3479A13600123489A0FA9137018
:1020C0002DA800239F421DDC4D4B4B491846002292
:1020D0008E46AA421DDB002005460DF13C090DF19C
:1020E000780AAF4220DC012840DC069A454B136099
:1020F0000023469A13703DB0BDE8F08F4799414ADE
:102100000A60DAE750F82320023241F82320013335
:10211000D8E7059E56F8226041F8046B58F8226013
:1021200040F8046B0132D4E759F82560711DB1F510
:10213000F77F0FDC721F002A0CDD063E9142B4BF10
:1021400001210B2131444FF0807C01268A4203D1CA
:1021500006B901300135C4E75EF82280E045BEBF14
:102160004AF82520C44600260132EFE70025216801
:1021700054F8042F666832441144A2681E688A1815
:1021800048BF0332921044F8042C53F8042F5968C6
:102190000A4499683244521848BF033201359210FC
:1021A000B5F5F87F43F8042CE1D10023CDE90A33DB
:1021B000CDE90C331EAD0E932A4652F8041BB1F53F
:1021C000FA7F92DC01339842F7D100210A4EDFF802
:1021D00030C0884600F1FF3AD5F804E055F8042BEA
:1021E000AEEB0209B9F10A0F08F1010852DD4FF018
:1021F0007F431446184617E02CB200206CAA00203A
:10220000FCB9002019FCFFFF4C81000056F8247037
:102210009F42C8BF3B465CF82470C8BF0794874202
:10222000C4BFA34638460134A645EFDC56F8224029
:1022300056F82E703F1B079CA41A674397FBF9F4CE
:1022400056F82270059456F82B40E41B059FE41BBA
:102250006043C01100281DDD04291BDC5CF82270DE
:102260005CF82E40ABEB0202E41B62435CF82B40AF
:1022700092FBF9F9E41BA4EB09046343DB1109D0D9
:102280003CAA02EB810E64225343013193FBF0F030
:102290004EF8C80CD0459FDB0AA804F0FBFD4A109D
:1022A00003294FEA820314DD3CA901EB820151F8B6
:1022B000CC3C51F8C82C134403EBD3735B10DA1EEB
:1022C000B42A3FF612AF054AD35C069A1360012385
:1022D0000FE73CAA134453F8C83CF0E7669F0000A0
:1022E0002DE9F041284803F01DFB054638B9274881
:1022F000254904F0B0FF4FF0FF30BDE8F081162112
:1023000004F05AFE044638B1162321481E4A2146DD
:1023100004F0A1FF20B2F0E71B4803F003FB0646E0
:102320000028E4D0132104F047FE044608B113232B
:10233000EBE7154803F0F6FA80460028D7D01021C5
:10234000304604F039FE044608B11023DDE70E489C
:1023500003F0E8FA07460028C9D00F21304604F000
:102360002BFE044608B10F23CFE70A4804F073FFA1
:10237000094B1D60094B1E60094BC3F80080094BD7
:1023800020461F60B9E700BFA99D00001EA0000005
:1023900035A0000065A00000D8C10020D0C10020F9
:1023A000D4C10020CCC1002008B5064B024616213E
:1023B000186804F0F1FD18B1034804F04CFF012047
:1023C00008BD00BFD8C1002080A0000008B5064BA2
:1023D00002461321186804F0DFFD18B1034804F029
:1023E0003AFF012008BD00BFD0C1002091A000002D
:1023F00008B5064B02461021186804F0CDFD18B14F
:10240000034804F028FF012008BD00BFD4C100200C
:10241000A5A0000008B5064B02460F21186804F07D
:10242000BBFD18B1034804F016FF012008BD00BF32
:10243000CCC10020B9A000001FB50093069B0193FA
:102440000123CDF808D00393836802AA1C680023F7
:10245000A04720B1034804F0FEFE6FF0040004B072
:1024600010BD00BFCBA00000014803F05BBA00BF65
:10247000E3A0000070B588B00024CDE905448DF8D4
:102480000F000794FFF7F0FF054620B9124804F04B
:10249000E2FE08B070BD4FF48073ADF818300F4BFA
:1024A00020461B6805930126FFF77EFF2046FFF7B5
:1024B000B1FF05A900960DF10F0322462846FFF74C
:1024C000BBFF014618B1064804F0C5FEE1E73046FF
:1024D000FFF76AFFDDE700BFE9A0000058800000B9
:1024E00004A1000070B588B00024CDE905448DF842
:1024F0000F000794FFF7B8FF054620B9124804F013
:10250000AAFE08B070BD4FF48073ADF818300F4BC1
:1025100020461B6805930126FFF746FF0120FFF7C1
:1025200079FF05A900960DF10F0322462846FFF713
:1025300083FF014618B1064804F08DFEE1E73046FE
:10254000FFF732FFDDE700BFE9A000005880000080
:1025500004A100002DE9F0478AB00025CDE9075518
:1025600003900995FFF780FF044628B92B4804F033
:1025700072FE0AB0BDE8F0874FF48073ADF82030EA
:10258000274BDFF8A0801B680793C82240F217137F
:1025900040F25D11322004F03DFD2846FFF704FFB4
:1025A0000120FFF737FF5027B946002609FB06F345
:1025B00018F80350F5B1039B01251B0A8DF818305C
:1025C000002206AB009507A92046FFF735FF0095CE
:1025D00003AB002207A920460136FFF72DFFB6F511
:1025E000967FE3D1013F08F10108DED10120FFF71A
:1025F000DBFEBEE74FF0010A0DF117032A46CDF8C6
:1026000000A007A9204606958DF81750FFF714FF84
:10261000CDF800A006AB2A46DCE700BFE9A0000029
:1026200058800000C61A00202DE9F04F8BB000261C
:10263000DDE91479CDE907660446039190469A4690
:102640000996FFF711FF054628B92C4804F003FE50
:102650000BB0BDE8F08F4FF48073ADF82030284BFD
:102660001B68079309F1FF317B1E534452464144D6
:10267000404604F0CFFC3046FFF796FE0120FFF7FE
:10268000C9FE27444FF0320ABC4233D10120FFF784
:102690008BFEDDE70AFB08F3E65CC6B1039B01266F
:1026A0001B0A8DF81830002206AB009607A92846B1
:1026B000FFF7C2FE009603AB002207A92846FFF7EA
:1026C000BBFE08F10108C145E4D80134DCE74FF056
:1026D000010B0DF117033246CDF800B007A92846CB
:1026E00006968DF81760FFF7A7FECDF800B006AB91
:1026F0003246E2E74FF00008E5E700BFE9A000003E
:102700005880000008B5FFF7EBFD012004F065FCE0
:10271000154804F0A0FD0120FFF76AFE642004F0D4
:102720005CFC0120FFF740FE0120FFF74FFE502028
:1027300004F053FC0020FFF749FE502004F04DFC4C
:102740000120FFF743FE4FF4F07004F046FCFFF762
:102750008BFE20B90548BDE8084004F07CBD04F0BC
:1027600088FC0348F7E700BF2CA10000E9A00000A7
:10277000379D000070B588B0002403900020FFF75B
:1027800013FE0120FFF746FECDE905440794FFF74D
:102790006BFE054620B9114804F05DFD08B070BD20
:1027A0004FF48073ADF818300D4B1B680593039BF5
:1027B00001261B0A8DF8133022460DF1130305A9DB
:1027C0000096FFF739FE009603AB224605A928467E
:1027D000FFF732FE3046FFF7E7FDDFE7E9A0000034
:1027E000588000002DE9F04104461E46084602F1DB
:1027F00014030F3104F00EFC5F2C0D484FF02A0338
:1028000028BF5F2403FB0404E71814F8018B00259C
:1028100008FA05F31B0654BF069830460135FFF74A
:10282000A9FF082DF4D1A742EFD1BDE8F08100BF88
:102830004201002070B5174803F074F8064630B91D
:102840001548144904F007FD4FF0FF3070BD042116
:1028500004F0E1FC044638B1042310480D4A214637
:1028600004F0F9FC20B2F1E70A4803F05BF80546F2
:102870000028E5D0032104F0CEFC044608B1032370
:10288000EBE7074804F0E7FC064B1E60064B2046CA
:102890001D60DBE7A99D00001EA0000035A0000020
:1028A00065A00000DCC10020E0C1002038B50B4D60
:1028B0004FF47A7428680122042104F09CFCFA2069
:1028C00005F07AFA28680022042104F094FCFA202A
:1028D00005F072FA013CEDD1012038BDDCC10020C9
:1028E00010B5094C03460122206803214BB104F0C6
:1028F00082FC00214FF4005003F004FC2068002209
:10290000032104F078FC10BDE0C100200B68013306
:102910000B60014B1B681847A40000202DE9F04F05
:1029200085B09B460E9CDFF89090012CB8BF012427
:10293000012B0CBF30232023154606468A460293FE
:1029400001274FF00A080022B5FBF9F301930AB9F9
:10295000A9451FD8019B514603F13000B04701370C
:102960000122019B08F1FF38B8F1010F09FB135553
:102970004FF00A03B9FBF3F9E6D1514605F13000F7
:10298000B047BBF1030F02D1E41B002C0EDC05B0F5
:10299000BDE8F08F4445E4DBBBF1020FE1D80298BB
:1029A00003925146B0470137039ADAE75146202097
:1029B000B047013CE9E700BF00CA9A3B014B1860F1
:1029C000704700BFA40000202DE9F04F8DB01C46D9
:1029D0000027531E05468B4603934FF0FF39B84638
:1029E000002605E06EB9252800F071815946A847F8
:1029F000039B13F8010F03930028F3D10DB0BDE83A
:102A0000F08F7A280AD8622810D8302854D045D8B8
:102A1000252800F05A812D2800F05F815946252095
:102A2000A847039B18785946A847D9E7A0F1630344
:102A3000172BF3D801A252F823F000BFC32C0000DB
:102A4000072B00001D2A00001D2A00001D2A00007F
:102A5000E92A0000072B00001D2A00001D2A0000A3
:102A6000E92A00001D2A00001D2A00001D2A00007E
:102A7000A92B00001D2A00001D2A0000932C000035
:102A80001D2A0000772B00001D2A00001D2A0000CF
:102A9000A52A00001D2A0000E92A000039281AD9B9
:102AA0005828BBD1039B1B78702B40F0888054F8CA
:102AB000043B0693002290E0B9F1000F0EDAB8F162
:102AC000000F00F00D81A0F13009B8F1000F08BF30
:102AD0004FF002088CE7B9F1000FF4DB0A2303FB87
:102AE0000909A9F13009F0E7682803D1682F06D158
:102AF00048277DE76C2802D16C2F00F0F480002F6E
:102B00008CD1074674E77A2F02D154F8046B21E088
:102B10006C2FFAD04C2FF8D1073424F00704F4E8D6
:102B20000223CDE90423049B13F10041059B089186
:102B300043F100010991DDE9082300214FF0FF3046
:102B4000994208BF904204D25946284604F075FBCA
:102B500046E7049E002E05DA59462D20A847764206
:102B600009F1FF39CDF800904346324659462846D0
:102B7000FFF7D4FE34E77A2F02D154F8042B0FE08C
:102B80006C2FFAD04C2FF8D1073424F00704F4E866
:102B9000022300214FF0FF30994208BF9042D3D367
:102BA000CDF800904346E1E759463020A847594602
:102BB0007820A8474FF008094FF0010872E76C2F02
:102BC0003FF475AF4C2F7FF472AFE31D23F0070382
:102BD0001C4654F8082B06925A68002110230491D1
:102BE00007914FF0400AAAF1040A0699CAF1200E93
:102BF000AAF1200C21FA0AF002FA0EFE40EA0E00B9
:102C000022FA0CFC40EA0C0010F00F0007D10799E3
:102C100011B9BAF1000F25D14FF0300C05E00928A9
:102C20008CBF4FF0570C4FF0300C6044594640B207
:102C30000A920793A847049B0A9A01330493079BBF
:102C4000BAF1000F23D1B8F1030F7FF4C9AE049B92
:102C5000C3EB4906002E7FF7C3AE59462020A84794
:102C6000013EF7E7591E99450A9107DBB8F1010FBC
:102C700006D10B9259463020A8470B9A0A9BB2E71F
:102C8000B8F1020FFAD10B9259462020F4E70796CB
:102C9000A9E754F8046BB24653461AF8010B68B919
:102CA000B8F1030F21D19E1BA9EB0606002E7FF77A
:102CB00097AE59462020A847013EF7E75946A84756
:102CC000EAE754F8040B5946AEE65946ACE63746F7
:102CD000B0464FF0FF3901268AE64FF0030887E639
:102CE0004FF0010884E64C2782E6064680E600BFE6
:102CF00007B50B46002102460191034801A9FFF7E1
:102D000063FE03B05DF804FB0D29000010B5074811
:102D1000074C02F007FE074B1860204601F0CAF985
:102D20002046FFF74BFE002010BD00BF45A100006C
:102D3000392D0000E4C100200A2838B5074D0446AB
:102D400004D1286883680D215B68984728688368E8
:102D5000E1B25B689847204638BD00BFE4C100205F
:102D6000F8B5124EF3680C2404FB00340123054629
:102D700063724FF02003EFF3118183F31188BFF3E7
:102D80006F8F23682BB160681A682260834208BF86
:102D9000626081F31188BFF36F8F03B9F8BDD3E987
:102DA000017229463046B847E3E700BFD4950020BA
:102DB0002DE9F8434668D0F80CE00C46CFB24AB192
:102DC0000C237B435EF803309A425ED013B11B683C
:102DD000002BF9D14FF02003EFF3118C83F311880E
:102DE000BFF36F8F0C2179430EEB01031D7A013580
:102DF000EDB21D728CF31188BFF36F8F62B34FF089
:102E0000804C4FF00308CCF8088393F809C0BCF15C
:102E1000000F15D14FF02008EFF3118988F31188C6
:102E2000BFF36F8FC2F800C0D3F80480B8F1000F71
:102E300027D15A604EF8012089F31188BFF36F8FB4
:102E40004FF080430321C3F80413BCF1000F03D0FB
:102E5000D2E9013221469847012D10D1012C07D12A
:102E60000C4D2B7823B94FF4A57004F0A5FF2C70FE
:102E700006EB87060122B37803F180431A60002035
:102E800005E0C8F800205A60D6E76FF00F00BDE8F3
:102E9000F88300BF6EC40020154B07B51A6882B1D5
:102EA0004FF08042D2F80423D1070AD500221A60DD
:102EB0001B680093009B0F4BDB68587A08B9FFF73B
:102EC0004FFF0D4B1A6882B14FF08042D2F80423B5
:102ED00092070AD500221A601B680193019B01200A
:102EE00003B05DF804EBFFF73BBF03B05DF804FBF4
:102EF00000010040D495002004010040821C084BD2
:102F000022F07F42C3F84025D3F80425904200D137
:102F10007047D3F80405821C22F07F42F2E700BF1D
:102F200000100140044B002282B01A601B6801931C
:102F3000019B02B0704700BF4011014008B5FFF788
:102F4000F1FF074B074AD3F840051368C01A20F079
:102F50007F4003441360BDE8084003F07FBA00BF20
:102F60000010014000C2002038B5144802F0DAFC1D
:102F700000B38368124D1B68012100249847C5F8EF
:102F80000845FFF7CFFF0F4B4FF40032C3F8802105
:102F90004FF48033C5F8043322460121112000F09C
:102FA000E7F8112000F0D4F8074A01231360204607
:102FB0002B6038BD4FF0FF30FBE700BF4CA1000095
:102FC0000010014000E100E00810014070B52A4BFC
:102FD0002A4C1968D4F80425294D521AB0F1FF3F44
:102FE00008BF284622F07F43120234D4013820EA79
:102FF000E070A842A8BF284601334FF48036184439
:10300000C4F80863A84294BF0D184D19D4F80405FC
:10301000D4F84015FFF786FF091A21F07F4120F010
:103020007F430129C4F84035C4F8446304D10F201C
:1030300004F0C2FEFFF776FF124B4FF40032C3F8E4
:103040008021D4F804052B1A23F07F43012B04D1EF
:10305000FFF754FF0BE00020CEE725F07F43C4F8D4
:103060004035D4F804052D1A023D2B02F0D44FF45C
:103070008033C4F8043370BD00C20020001001404A
:10308000FFFF7F0000E100E04FF02002EFF311832B
:1030900082F31188BFF36F8F064AD2F80405064AFF
:1030A0001268801A20F07F4083F31188BFF36F8F7E
:1030B000704700BF0010014000C2002010B5114C45
:1030C000114AA2610323C4E90433104BE361226671
:1030D0004FF480630E4A0F49236262660023102278
:1030E000E01DA3626362E3622367E3666367A2662F
:1030F00004F0E1F90849204604F0DDF92023A3712A
:1031000010BD00BF04C200205CA100007FC40020ED
:103110006FC4002065A1000069A10000094A0A49A6
:103120009368096819670949D8664B6843F080536A
:103130004B60002383F31188BFF36F8F9368186F80
:10314000704700BF1CC400204881000000ED00E073
:1031500043B2002B08DB012200F01F0002FA00F04E
:103160005B09024A42F82300704700BF00E100E01B
:1031700043B2002BA8BF03F1604301F10101B8BFC6
:10318000064B4FEA4111ACBF03F5614300F00F005D
:10319000C9B2B4BF195483F80013704714ED00E0AE
:1031A000C0E918120A44203A22F0070208491360C5
:1031B000009B5360019B9360029BD3604FF0807330
:1031C000D36121F00101002391610265C36670475C
:1031D00071720000F8B506460C4617461D4600F011
:1031E000CDF9094B3C4424F007049E60284684F343
:1031F0000988002163B681F31188BFF36F8F002225
:10320000002304F035F800BF1CC400200E4A08B5A6
:103210000E4B22F07F029A60BFF34F8FBFF36F8F88
:10322000D3F8882022F47002C3F88820EFF31483C7
:1032300023F0040383F3148802F0B2FB02F0BAFB1C
:1032400000F06AF902F0F4FB0000000000ED00E07D
:103250000F498A684FF030001044EFF3098C80E882
:10326000F01F202080F31188BFF36F8F094F4FF0BC
:1032700000664A6A8A603E60D06E0023D36680F39F
:10328000118802F1300090E8F01F8CF30988704734
:103290001CC4002004ED00E01EF0040F0CBFEFF38F
:1032A0000880EFF30980816911F8021C0229FFD020
:1032B00001B504F0F5F801BD014910220A6070471C
:1032C00010ED00E072B6404080F31188BFF36F8FBD
:1032D000BFF34F8F30BF62B6BFF36F8F704700BF31
:1032E00030BFFFF7FDBF00BF01B572B60B4A106AD1
:1032F00000281EBF0021116204F05FFC62B6EFF3EC
:103300000580A0F110004FEAC0000549014409C939
:103310009847BDE801400349084700001CC400204D
:10332000047F00006D33000004F0BFF9202080F31B
:10333000118808484FF40061401880F30988EFF3C2
:1033400014800221084380F31488BFF36F8FFFF7C6
:103350005DFF000018D60020EFF30880EFF309812D
:10336000724601B500F05CF801BD00BF044B9968DE
:10337000586A884203D003494FF080520A60704770
:103380001CC4002004ED00E00C4B9A6A9A6A9A6A09
:10339000920708D55A6B9A6A120604D518B19A6A30
:1033A00022F080029A62054B9A6A9A6A9A6A9A6A2D
:1033B000002042F0FF029A620870704700ED00E0C2
:1033C0000D4B9A6A9A6A9A6A920508D59A6B9A6A1C
:1033D000120404D518B19A6A22F400429A62064B8C
:1033E0009A6A9A6AD20558BF9A6A9A6A002042F489
:1033F0007F429A620870704700ED00E0074B9A6ABE
:103400009A6A9A6A9A6A9A6A9A6A9A6A6FEA024207
:103410006FEA12429A620020704700BF00ED00E0A0
:1034200070B5364B5B688AB00E46C3F308030025BF
:1034300085F31188BFF36F8F02F07F41B1F17F4FA9
:1034400011D102F00C0108290DD0110701D4064654
:1034500001250022033B8DF80720032B47D8DFE826
:1034600003F0043E423B2E46F3E7244BDA6A920710
:103470003DD4DC6A14F0804408D028331B78EBB1CB
:103480000DF107010120FFF77FFF04469DF807308B
:1034900093B92022314602A804F031F8099B45B3C4
:1034A000C3F3080222B96FEA53236FEA4323099357
:1034B00002A9204603F0F2FF0AB070BD104B1B7842
:1034C0002BB10DF107010120FFF77AFFDDE70D4B6E
:1034D000188884B2002CD9D0FFF790FFD5E70DF102
:1034E00007010020CFE70DF107010020ECE70024E1
:1034F000CCE723F4FF7323F00103D8E700ED00E0ED
:1035000029ED00E02AED00E0024A536943F0100380
:103510005361704700ED00E0044800232021C218E9
:103520000133272B82F80013F9D1704700E100E046
:1035300038B504464FF02003EFF3118583F311886B
:10354000BFF36F8F02F0A6FC0A4B9B68A3420BD11E
:10355000094B5A68C2F3080212B92846FFF7DEFD8C
:103560005A6842F080525A602846BDE8384004F05C
:103570005ABB00BF1CC4002000ED00E01FB5084B83
:103580000193084B0293084B039301AB0093074A46
:10359000074B0121684600F093F805B05DF804FB85
:1035A000000000200000000000000B0600000020CA
:1035B00000000120DFF884C0F0B506460027104661
:1035C0008F4200DBF0BD56F827E0DEF8044094B3EC
:1035D00043B1651E2C4219D11F2C17D9DEF80020EB
:1035E000154213D1202CC2B2DEF80050DEF80800DC
:1035F0000FD9B4F1004F0ED8013CB4FA84F4C4F1F1
:103600001F046400072A44EA000406D96FF015007D
:10361000D8E70824F6E73E24F4E725F01F05154314
:1036200045F0100544F00104CCF80820501CCCF8FB
:103630000C50CCF810400137C2E700BF90ED00E01D
:10364000034B05225A60BFF34F8FBFF36F8F704754
:1036500090ED00E0BFF35F8F014B00225A6070478E
:1036600090ED00E013490868082810B51ED8FFF750
:10367000F1FF114C49680022904201F10C0105D183
:103680000E4B1870FFF7DCFF002010BDA26051F850
:103690000C3C23F01F03134343F01003E36051F885
:1036A000043C43F0010323610132E5E74FF0FF30B2
:1036B000EBE700BF7080000090ED00E07FC80020C5
:1036C00010B5034C01232278FFF774FF207010BD62
:1036D0007FC800202DE9F04FA1B01E4600230390C3
:1036E00089460293134613F8010B069358B1252817
:1036F00000F081804946039B9847013040F04A849E
:103700004FF0FF330293029821B0BDE8F08F2B2DCC
:1037100065D05CD8202D65D0232D66D0002DF2D049
:10372000CDF81880DDF81880A44818F8015B294608
:1037300003F0CBFE0028EAD12A2D63D156F8043BD2
:103740000793002BBFBF5B42079301230D93069B9A
:1037500098F8005003F102082E2D78D198F8003027
:103760002A2B71D156F8044B08F1010818F8015BB7
:10377000934829462F4603F0A8FE00286AD0434606
:10378000682F13F8015B069307D1682D05D108F166
:10379000020398F8015006934827782D08D8572D32
:1037A0005CD8252D00F0F28300F2A280002DAAD073
:1037B000039B4946252098470130A1D0039B4946E9
:1037C0002846984701309BD0029B0233E4E32D2D1D
:1037D0000ED0302D089B08BF01230893A0E70123DA
:1037E00009939DE701230C939AE74FF0010A97E7AD
:1037F00001230D9394E7002308930C9309930D93F1
:103800009A468FE7A5F13003092B0790A4D80A2226
:10381000DDF8188018F8015BA5F13003092B9BD85F
:10382000079B02FB0355A5F13003CDE90683EFE7C3
:1038300001FB0434303C9046424612F8013BA3F1B0
:1038400030000928F4D991E700240A21F4E74FF069
:10385000FF348DE7CDF8188007469EE7A5F15803A1
:10386000202BA5D801A252F823F000BFF13E0000A2
:10387000B1370000B1370000B1370000B1370000A8
:10388000B1370000B1370000B1370000B137000098
:10389000B1370000B1370000C53900009B3A000085
:1038A000FD380000FD380000FD380000B137000091
:1038B0009B3A0000B1370000B1370000B13700007B
:1038C000B13700007D3E0000F13E0000A73E000041
:1038D000B1370000B1370000C93E0000B137000029
:1038E000F13E0000B1370000B1370000F13E0000AA
:1038F000A5F14503DBB2022B3FF65AAF073626F09F
:1039000007031946F1E80223D80240EA5250D602D2
:1039100020F0004004960590DDE90467002A01913B
:10392000C3F30A5173F10003CDE9146780F2E58017
:103930002D238DF864300DF1650740F2FF73994235
:1039400040F0F680DDE904120A43A5F1410507F1D4
:10395000030340F0E280192D00F2D98049223A7029
:103960004E227A704622002419AEBA70FC709B1B5E
:10397000A246A346099A002A40F07D820C9A002AAA
:1039800040F079829DF86480A8F12D02D2F1000800
:1039900048EB02080BEB0A0633441E1920AB4344E4
:1039A00013F81C3C303B092B00F2FE82089B002BD5
:1039B00000F0FD82079B19AF9B1B14E070A1000073
:1039C00076A1000032464FF0000852F8043B019205
:1039D0008DF864300126444619AF04EB0803002437
:1039E0009B1BA246A34623EAE3739A190892079AFF
:1039F0009919551A0D9A12B9002D00F3ED8207EBB3
:103A00000802BA4240F0EA82013B80F0F582A6EB60
:103A10000806BBF1000F10D0387807EB0608A0F1BC
:103A20003003092BA8EB070640F2F182D846B8F123
:103A3000010880F0F582A6EB0B06BAF1000F16D054
:103A400007EB060817F801BB039B49465846984701
:103A500001303FF455AEBBF12E0FA8EB0706F1D1B4
:103A6000D046B8F1000F00F3E482A6EB0A0694B149
:103A7000387807EB0608A0F13003092BA8EB0706FE
:103A800040F2E2822E2800F0DF82A046B8F1000F5B
:103A900000F3E382361B3E44F2E23568331D002D0D
:103AA00001931CDA2D238DF8643069420DF165060F
:103AB00030460A2203F071FD099B064419A8361A04
:103AC000002B40F06C820C9B002B40F068824FEA88
:103AD000D578002C80DA0024A246A34666E7099B2D
:103AE00023B12B238DF864302946DFE70C9B0BB103
:103AF0002023F7E7294619AEDAE7099B0BB12B2300
:103B000017E70C9B0BB1202313E719AF15E76922C8
:103B10003A706E227A70662225E7192D99BF4E22DF
:103B200041216E22612194BF3A703A7079701AE790
:103B3000049B05980B430E93CB1703430F93DDE9CA
:103B40000E23462D08BF6625134300F00781002988
:103B500000F09F80159B43F00043A1F2FE381593BF
:103B6000002618F1020FC0F2A880B8F1000F00F390
:103B7000D48014A808F1010803F033FDB8F1040F54
:103B8000F7D1002C05F0DF03B8BF0624472B40F027
:103B9000EE80F11C02DBB44280F2E380023DEDB224
:103BA000002C00F0EA80013CBAF1000F40F0E58003
:103BB000002CD4BF4FF000084FF00108662D40F0F4
:103BC000DE8014EB060B4FF0660500F1DB80BBF1E5
:103BD000100FA8BF4FF0100B1023139300224FF0CB
:103BE0000063CDE91623BBF1010B80F0CE80149B5E
:103BF000169A17999B18159A41EB0202CDE91432D7
:103C000002F07043109300231193DDE91023134356
:103C100006D014A803F0F7FC14A803F0E2FC013668
:103C2000662D40F0CF80002E40F3B680139B002B12
:103C300007DD13A914A803F00FFD013E07F8010BDF
:103C4000F4D1B3463B460026BAF1000F01D1002C57
:103C500015DD2E2203F8012B002E00F0AE80002C83
:103C600040F3AD80C6F1000AA245A8BFA246A4EB6E
:103C70000A04002C03DD139A002A00F39480B8F1A3
:103C8000000F40F0B480002219AE1A709B1B71E641
:103C90000139049BDB180493059B5B410593DDE927
:103CA0000423002A73F10003F2DADDE90423CDE9ED
:103CB00014234FE714A803F094FCDDE9142C00232F
:103CC000CDF828C00B93DDE90A01002908BFB0F147
:103CD000333F08F10108EDD20520A2FB002300FBD1
:103CE0000C33CDE91423013E4FF0000E00214FF0BC
:103CF000000C6FF0004B8C4508BF9B4506D2BEF10F
:103D0000000F3FF42EAFCDE914232AE792185B4150
:103D100008F1FF384FF0010EE8E714A803F073FC38
:103D2000DDE9141008F1FF3801364FF0000E0023D2
:103D30004FF0000C6FF0004B9C4508BF834506D246
:103D4000BEF1000F3FF411AFCDE914100DE7491893
:103D5000404108F1FF384FF0010EE8E70026B04679
:103D600007E7A41BBAF1000F04D1662520E74FF046
:103D7000000823E74FF0000823E74FF0000804F1A4
:103D8000010B24E74FF0000B26E716A803F03BFCDD
:103D900016A803F026FC26E73B46302203F8012B49
:103DA0004FF0000B50E713A914A80A9303F054FC3A
:103DB0000A9B013C03F8010B5BE7B24659E74FF061
:103DC000000A5CE713A914A803F046FC30283870F9
:103DD00018BF06F1FF36BAF1000F37D1002C35DCE1
:103DE0007B1CB8F1000F43D04FF0000BDA461946A8
:103DF00013F8012D302AFAD02E2A18BF0B460024C2
:103E000005F0DF02452A7FF43EAF002E1946BABF07
:103E100076422D222B22632E01F8025B5A7008DDB8
:103E2000642096FBF0F202F13005D91C9D7000FB76
:103E300012660A200B4696FBF0F200FB126602F1B6
:103E40003005303603F8025B4E701CE72E22BB1C97
:103E50007A70002CC5DD139A002AC2DD13A914A8BC
:103E60000A9303F0F9FB0A9B013C03F8010BF0E70E
:103E7000C346C246C4E74FF001088BE53246682FBF
:103E800052F8043B019206D06C2F09D0482F07D17D
:103E9000029A1A7001E0029A1A80019E069A21E4A1
:103EA000029A1A60F9E747F63003ADF864303346FA
:103EB000102253F8041B01930DF1660003F06DFB13
:103EC0004FF00208861C04E63346002C53F8047BAE
:103ED0000193B8BF6FF000440026B44203D12646D8
:103EE0000024A04679E5BB5D002B5BD00136F4E7EA
:103EF000331D6F2D3168019319D1BAF1000F08D02D
:103F000030238DF8643079B98DF865108846012624
:103F1000DFE519AD2846082203F03FFB19AEAD1BC3
:103F20002E184FF00008D4E50DF16505F2E7752D68
:103F300005D10A2219A803F030FB0646F1E7BAF1D1
:103F4000000F11D047F63003ADF864300DF166076D
:103F50001022384603F021FB582D07D019AEBF1BA5
:103F60003E184FEA4A08B4E519AFF1E719AA12F86A
:103F7000013BA3F16101192903D8203B02F8013C60
:103F8000F5E712F8013C002BF1D1E7E74946284656
:103F9000FFF7B1BB029B0133CDE901637DE74FF031
:103FA000010896E51C469CE719AF00231DE5089B18
:103FB00019AF1AE509934946039B079220209847B9
:103FC0000130079A099B3FF49BAB013AF2D2029968
:103FD00029440291154612E52A46F6E7099317F897
:103FE000010B039B0792494698470130079A099BAA
:103FF0007FF407ADFFF784BB07934946039B30204E
:1040000098470130079B7FF4FFACFFF779BB039B18
:104010004946984701303FF473AB17F8010FFEE4AF
:10402000039B49463020984701307FF400ADFFF7ED
:1040300067BB039B494630209847013008F1FF38A1
:104040007FF40FADFFF75CBB039B494698470130F7
:104050003FF456AB17F8010F0DE5039B494630209E
:104060009847013008F1FF387FF410ADFFF748BBE7
:1040700017F8010B039B4946984701303FF440ABCA
:10408000F31B002BF4DC029B089A002D13440293CF
:104090007FF703AF2C4606E0039B49462020984754
:1040A00001303FF42DAB013CF6D2029B2B4402932E
:1040B000F3E600BF014B1860704700BFA800002066
:1040C000022902D1024B1B6818474FF0FF3070479E
:1040D000A80000200EB40FB505AB6FF0004153F8F7
:1040E000042B029003910648019302A9FFF7F2FA0C
:1040F000029B00221A7004B05DF804EB03B0704715
:10410000917600000FB407B504AB022153F8042BDD
:1041100004480193FFF7DEFA03B05DF804EB04B046
:10412000704700BF8D7600004FF02003EFF311823F
:1041300083F31188BFF36F8F06490123C1F840351F
:104140004FF08041C1F8783582F31188BFF36F8F4B
:104150000020704700E001404FF08043C0B2C3F838
:104160001C05BFF34F8F0549054BCA6802F4E06296
:104170001343CB60BFF34F8F00BFFDE700ED00E0BE
:104180000400FA0520B1034B800143F001031847F6
:10419000704700BF50800000054A0123C2F8003577
:1041A00008B1D36070471360024A1360704700BFC4
:1041B0000070004004700040087970B500F01F04E2
:1041C000072C1FD80B78092B1CD8DFE803F0060654
:1041D0000606061B051E1B2005234A78032A18D055
:1041E000042A0FD100254A8844F20A06B24244D07C
:1041F00011D844F20306B2423BD044F20506B24263
:1042000039D0D2B36FF0150032E00623E5E707237B
:10421000E3E70125E7E744F21406B2422FD044F267
:104220002806B2422DD044F20F06B242EAD1032250
:10423000C0F340101B0243EA005343EA053343EA4C
:104240000243220102F1804202F5E0420020C2F85E
:104250001835230103F1804303F5E0438A79C3F85D
:104260001425C3F81005084B1C444B7984F88030A2
:1042700070BD0022DCE70122DAE70222D8E704223F
:10428000D6E70522D4E700BF00000020314B1A68B2
:1042900013B5002A4ED000221A601B680093009BC1
:1042A0002D4C2E4B01211960C3F8F824E36D002B2F
:1042B0003AD0636F43B1B4F87C2004F15C019847B5
:1042C000012814D002282AD0B4F87C30B4F8782021
:1042D0009A4224D90133A4F87C30214BD3F82C2600
:1042E000D3F8341689B202EB4102C3F82C26236FAF
:1042F00033B994F86E0002B0BDE81040FFF74CBF30
:10430000BFF35B8F54E8003F5A1E44E800210029A8
:10431000F8D1BFF35B8F012BEBDC02B010BD236F34
:1043200013B1104803F08EFD0F4802B0BDE81040F5
:1043300001F00EBF0D4B19680029EED01A601B6802
:104340000193064A019B0123136042F8083C42F89E
:10435000043CE2E7047100400000002008700040C7
:10436000007000400800002048000020107100404C
:10437000F7B50D4662484FF0FF324FF0FF3301F0C2
:1043800007FF686810B96FF01504A2E030F0FF0372
:10439000F9D15C4C5C4F1A4620FA03F111F001018F
:1043A00032D0F91891F880C0BCF1000FEBD004EBCB
:1043B000031E6E7CDEF81815003E18BF012621F0A2
:1043C000807141EA0661CEF8181503F15101090127
:1043D000013244F801C0D2B20133082BDCD12B7C6E
:1043E000083B062BCFD801A151F823F0E744000089
:1043F000874300001344000087430000DF440000AF
:1044000087430000E344000003F151063601A15147
:10441000E2E701213B4B012AC3F8F015697C64D91E
:104420000029B0D1C3F8F4152968530011B10989E6
:1044300001FB0333E96899425FD3324BA968C3F8A3
:104440002C162F46C3F830260FCF2F4C04F15C06F4
:104450000FC63B6833602A680026A665002A47D04D
:1044600007CA04F1700383E80700E365A4F87C60E1
:1044700000283DD0BFF35B8F54E8003F44E8006262
:10448000002AF9D1BFF35B8F236F4FF4004040F255
:10449000E736002703F2E7334FF47A71B3FBF1F10B
:1044A000E0FB01674FF47A72002330463946FCF78F
:1044B000D3FB0022CDE90001002304F1080002F043
:1044C00061F812484FF0FF324FF0FF3301F060FE09
:1044D000A46D0B4801F03CFE204603B0F0BD022164
:1044E00098E7032196E7002194E708299AD94AE73B
:1044F00094F86E00FFF750FEE3E76FF00B04E8E777
:10450000380000200070004000000020480000201B
:1045100013B5104B00241C601B680193019B0E4BCC
:104520001C601B680093009B0C4B1222C3F80423F1
:104530000720FEF70DFE224601210720FEF718FE98
:104540000748036C13B9383001F002FE002002B0B6
:1045500010BD00BF047100401071004000700040A9
:104560000000002008B5094B1A786AB901211970BA
:1045700006200521FEF7FCFD0620FEF7E9FD044BB1
:104580004FF00042C3F80423002008BD80C800207B
:10459000006000402B4BF0B546682B481340834227
:1045A00040D00DD8062B15D005D89BB1022B3BD09F
:1045B0006FF0150035E0B3F5801FF9D1012309E054
:1045C0002248834232D0B3F5A00F31D0B3F5800F2B
:1045D000EED10223D00654BFC2F34015032582F466
:1045E00080749705C2F34020C4F3002407D512F469
:1045F000006F77681ED001228A40C7F80825327AFA
:1046000001F01F0141EA421140EA440242EA032359
:1046100001F5E0714FF0A04243EA850342F82130F2
:104620000020F0BD0723D5E70423D3E70523D1E716
:104630000323CFE7520542BF01228A40C7F80C2569
:10464000DDE700BF0600F000060010000200400099
:1046500073B543684F4C1A7AC568D4F8040301F067
:104660001F0343EA4213C0B2002202F5A27654F8B7
:104670002660C6F30426B34272D120FA02F6F6078A
:104680006ED5900000F1804000F5C040D0F8106574
:1046900026F00106C0F81065012000FA02F2C4F805
:1046A00008239C0004F1A044E868D4F80027C8401F
:1046B00022F4403210F00100C4F800274ED02869DF
:1046C000C84010F0010049D0A869C84010F00100AE
:1046D00050D0EA69CA40D20758BF6A692D4D5FBF02
:1046E000CA4002F00102C2F10202D2B248BF032264
:1046F000002404F5A27155F8210010F0030033D115
:10470000A10001F1804101F5C0411B02D1F8106503
:1047100003F4F85343EA024226F4473604F1400317
:1047200026F440769B00C1F810659BB2D1F8106565
:1047300003F1804303F5C0433243C1F810251860EC
:104740001B680193019BD1F8103543F00103C1F8B8
:104750001035012303FA04F4C5F8044302B070BD18
:104760000132082A81D19CE70134082CC1D16FF0B5
:104770001200F3E76A69D4F80037CA4002F0010278
:10478000C2F1030223F4403141EA0242C4F8002797
:10479000E4E700BF006000402DE9F34153490D6894
:1047A000002D66D0524BDA68D3F804C0D2E9030377
:1047B0000340D2E90604204323EA0003DCF80400A6
:1047C0005269D0F81045544023EA04040120002621
:1047D000002B38D10B600B680093009B45480023E9
:1047E00001261F46D0F8042306FA03F1114213D024
:1047F0009A0002F1804202F5C242116861B103F5EC
:10480000A27150F82110176012680192C1F30421BF
:1048100006FA01F1019A0C430133082BE2D154BB93
:1048200075B1334BD8685E68D0E903231340D0E9F3
:1048300006210A4323EA020301240025002B37D175
:1048400002B0BDE8F081034210D09CF8087006F079
:104850001F0242EA4712920002F1A04223EA00033B
:10486000D2F8007727F44037C2F8007701364000CD
:10487000AEE72C46B2E71E4FD7F80C80D8F80410EC
:104880000029CDD00E68002E38BF00268A68D8F8DF
:10489000103022401A4202D04B6838469847002E0A
:1048A000BED03368002B38BF002331461E46EDE7EB
:1048B0001C4217D0317A05F01F0242EA41129200E1
:1048C000416902F1A042E940D2F8007701F001010C
:1048D000C1F1030127F4403747EA0141C2F800174C
:1048E00023EA040301356400A8E700BF7C610040AF
:1048F000049600200060004010B50446002201210B
:104900000320FEF735FC6068064A234600F10801E3
:1049100000F0BAFE044B984214BF6FF00F00002065
:1049200010BD00BF054A00000000AD0B2DE9F04F9F
:10493000054687B00C4617469946C0684FF0FF32CF
:104940004FF0FF3301F024FC6868DFF8B4A000F0FA
:10495000DFFE4FF00008B84501D3002429E094F8A9
:1049600008B01BF0080643D11422314601A802F01A
:10497000F1FD626802920BF0010322688DF80430A9
:104980001BF0020F8DF8059004921CD17A1E42454F
:1049900002D9227D520718D553BB2022686801A98D
:1049A00000F0E0FE504512D0144B984223D06FF037
:1049B0000404686800F0BCFEE86801F0C9FB20460A
:1049C00007B0BDE8F08F3246E8E74022E6E7E86846
:1049D00010304FF0FF334FF0FF3201F0D9FBEB689E
:1049E0001B6A534504F10C04E1D108F10108B2E758
:1049F0006FF02204DDE76FF00F04DAE70B00AD0B78
:104A00000000AD0B0278CB68012A08D0022A08D03A
:104A10004AB9064A1A6203F1100001F099BB044A30
:104A2000F8E7044AF6E7044AF4E700BF0000AD0BDC
:104A30000100AE0B0200AE0B0100AD0B10B5044639
:104A4000002201212320FEF793FB6068084A2346D9
:104A500000F1080100F0E2FB064B984204D1E06847
:104A600002F03FFF002010BD6FF00F00FBE700BF1A
:104A7000237900000000AD0B30B5C568EA6B6B6CA4
:104A800085B082B973BB1C4600221146284602F04D
:104A9000FEFE6C6205F1140001F05AFB002385F85C
:104AA0004C3005B030BD114613B19A4228BF1946AB
:104AB000AC6BA9640094BCB1002A18BF0A460192ED
:104AC0002A6C029292B1002B18BF0B4640680393E8
:104AD0000022694600F03EFC054B9842E1D06FF0A1
:104AE0000404D1E71946E3E72246E8E71346EDE779
:104AF0000000AD0B2DE9F74FC46880460F461646FF
:104B00001D4604F1040A4FF0FF334FF0FF325046C8
:104B100001F03EFBD8F80C90D9F800309F4268D0E5
:104B2000BB8841F60902134240F0B680C3F3451337
:104B3000082B40F0B1803A68594B9A4240F2AC8061
:104B4000D8F804300093BB68C9F800700BB318683C
:104B5000F8B15968D0F80CB08368C9B21B680191EC
:104B60004FF40072984748B90199012303FA01F103
:104B7000DBF8003023EA0103CBF80030D9F800203D
:104B80009368B2F9042019791868D243D20F02F061
:104B90006EFE009B1968BB88980703F0040258D585
:104BA000002A14BF03220222022AC3F3001354D0A6
:104BB000032A55D0012A01D143F00203394AC1F832
:104BC00054353B6893424ED9374A93424ED9374ABF
:104BD00093424ED9364A93424ED9364A93424ED9E1
:104BE000354A934234BF4FF080434FF00043C1F841
:104BF0002435012384F84C30002E43D0336872688A
:104C0000A362E2621A685B68A263E363002D3ED090
:104C10002B686A68236362631A685B682264636452
:104C2000002262620121204602F031FE4046FFF779
:104C300023FF4FF0FF3204F114004FF0FF3301F077
:104C4000A7FA646A504601F083FA204603B0BDE833
:104C5000F08F003A18BF0122A6E743F00403ADE746
:104C600043F00603AAE74FF00073C0E74FF08063FC
:104C7000BDE74FF00063BAE74FF08053B7E74FF05E
:104C80000053B4E7C4E90A66C4E90E66BEE7C4E9A6
:104C90000C55C4E91055C3E76FF01504D2E700BF07
:104CA00047E801008FD003001FA107003F420F001B
:104CB0007F841E00FF083D0000127A00024BD3F8EB
:104CC0008004C3F8800470470020004030B54B7961
:104CD000012B21D18B79032B1ED1CA7922B1012A54
:104CE0001AD143681B78BBB10C7914B1022C13D1D3
:104CF0000E240B68B3F5164F5FD02BD8B3F5165FB3
:104D00005DD014D8B3F5966F5BD008D8B3F5967F15
:104D10005AD0B3F5167F5AD06FF022004CE0B3F5AD
:104D2000166F57D0B3F5965FF6D1344B39E0B3F533
:104D3000E14F52D007D8B3F5615F50D0B3F5964F2D
:104D4000EAD12F4B2DE047F61225AB42E4D14FF4C8
:104D5000000326E0B3F5613F44D011D8B3F5963F88
:104D600042D008D84DF6C025AB423FD0B3F5614FD5
:104D7000D2D1244B15E0B3F5E13FCDD1224B10E069
:104D8000B3F5612F35D007D8204DAB4233D0B3F502
:104D9000E12FC1D11E4B04E01E4DAB42BCD14FF000
:104DA00080531D4D2243C5F82435C5F86C25C368D2
:104DB00003C983E80300002030BD184BF1E7184B0E
:104DC000EFE74FF49E23ECE74FF4A033E9E74FF40D
:104DD0001C33E6E74FF41D23E3E7124BE1E74FF402
:104DE0006C13DEE7104BDCE7104BDAE74FF465039A
:104DF000D7E70F4BD5E74FF08063D2E700B0130041
:104E000000A04E0000F0EB0000E0D70190D00300BE
:104E100000705F0740420F000020004000509D00DE
:104E20000050270000F0750000B0AF0300903A0179
:104E300000D0BE0E084B1A6882B052B10020186034
:104E40001B680193019B054BD3F818350B7002B01A
:104E500070474FF0FF30FAE7082100400020004083
:104E6000F7B50E4602F0A2FF1B4DC0B9642401271E
:104E7000BFF35B8F55E8003F002B03D145E800727C
:104E8000002AF7D1BFF35B8F0BD021200021013C1A
:104E900001F038F914F0FF04EAD103B0F0BD0123AA
:104EA0002B600E4C0022226022680192019A0C4A6B
:104EB00001211160C2F814654FF47A76236823B992
:104EC000012002F07BFD013EF8D1064B01221A6061
:104ED00000232B60E1E700BFCCC200201C21004072
:104EE000082000400C2000404FF0A04337B5164C7E
:104EF0004022C3F80825032100220825C3F818170B
:104F0000C3F82027C4F814550625C4F80C552025ED
:104F1000C3F80855C3F81417C3F81C270523C4F8B1
:104F200008350723C168C4F81035FFF7CFFE48B92C
:104F30000423C4F80035054B18601B680193019BDE
:104F40000123236003B030BD002000400821004051
:104F50000B4B1B685A1C05BF0A4B0B4A0B4A1068C7
:104F60000ABF1B781068C0F30310062B05D1033865
:104F700003288CBF0020012070470020704700BF2D
:104F800030010010E00F00F0E80F00F034010010D5
:104F9000074B1B78062B09D1064B1B68C3F3031381
:104FA000033B032B02D8044AD05C704700207047B3
:104FB000E00F00F0E80F00F092A1000008B5FFF745
:104FC000C7FF28B17E4B7F4A1B68C3F304231360DD
:104FD000FFF7DEFF10B17C4B7C4A1A60FFF7B8FF89
:104FE00028B17B4B7B4A1B68C3F342331360FFF746
:104FF000CFFF20B1784AD36823F08073D360FFF7E6
:10500000A7FF40B14FF080430022C3F80C21C3F842
:105010001021C3F83825FFF7BBFF10B16F4B0322F7
:105020001A60FFF7B5FF40B16D4B05221A600122EF
:105030009A6700229A603F225A606A4B1A68511C94
:105040000BBF694B694B1A781B6802BF08331B689A
:10505000C3F30313062A4DD1033B032B4AD8644AFA
:10506000D35C002B46D04FF08052624BD2F8041430
:10507000C3F82015D2F80814C3F82415D2F80C147C
:10508000C3F82815D2F81014C3F82C15D2F814144C
:10509000C3F83015D2F81814C3F83415D2F81C141C
:1050A000C3F84015D2F82014C3F84415D2F82414DC
:1050B000C3F84815D2F82814C3F84C15D2F82C14AC
:1050C000C3F85015D2F83014C3F85415D2F834147C
:1050D000C3F86015D2F83814C3F86415D2F83C143C
:1050E000C3F86815D2F84014C3F86C15D2F84424FC
:1050F000C3F87025FFF72CFF28B13F4B3F4A1B68D0
:1051000003F04F031360FFF723FF48B14FF08043D4
:10511000D3F80024D20744BF6FF00102C3F8002483
:10512000304B1B68062B0CD1304B1B68033B032B09
:1051300007D8334AD35C23B1324A136843F48063FF
:1051400013604FF01023D3F80022002A03DBD3F8BA
:105150000432002B2FDA2C4B0122C3F80425D3F89C
:105160000024002AFBD04FF010221521C2F80012B3
:10517000D3F80024002AFBD04FF010231522C3F8E7
:105180000422214B1A46D3F800140029FBD0002139
:10519000C3F80415D2F80034002BFBD0BFF34F8FB7
:1051A0001A491B4BCA6802F4E0621343CB60BFF399
:1051B0004F8F00BFFDE7174B174A1A6008BD00BFAD
:1051C000240300104035014074C007400DF0ADBA13
:1051D000440200103C050040F0ED00E0A005004056
:1051E0001056004030010010E00F00F034010010B4
:1051F0008AA1000000C0004058020010E40E0040E8
:105200008EA100003C17004000E0014000ED00E0EE
:105210000400FA052C0100200090D0032DE9F0478E
:105220000479494D28266643AF1997F81CC0BCF194
:10523000000F40F08680AA517B6091F800E00F7B60
:105240004FF0A046012303FA0EF3012F94BFC6F8D6
:105250000C35C6F808350EF5E0734FF0010C46F832
:1052600023C04B78FF2B1FBF0CFA03FCC6F80CC5FC
:1052700003F5E07C4FF0030818BF46F82C808E78C9
:1052800008BF4FF0FF33FF2E1FBF91F80EC006F589
:10529000E0794FF0A0484FEA8C0C18BF48F829C0BD
:1052A00091F803C008BF4FF0FF36BCF1FF0F0DD0DF
:1052B0004FF0A0494FF0010808FA0CF8C9F808852A
:1052C0000CF5E0784FF0030A49F828A04FF02808C1
:1052D00008FB045888F81EC00068C0F808E5C0F84C
:1052E0000C358B68C0F81065C0F824354B7B003B4B
:1052F00018BF0123022F1ED0032F1FD0012F01D171
:1053000043F00203C0F85435282303FB04534979C2
:10531000D9770123C0F800351AB140F30730FDF703
:1053200017FF282303FB0454002363770748012356
:105330002377BDE8F08743F00403E3E743F0060377
:10534000E0E70348F5E700BFD0C200200000AD0B46
:105350000500AD0B2DE9F7430579414E28236B433A
:105360009646F2180F46517F8046002975D156F8AF
:1053700003C0BCF1000F01D00123537797E80F0061
:10538000282404FB056404F10C0989E80F00A27FBE
:105390000023FF2A84F824301FBF012393404FF0DD
:1053A000A042C2F80C352823BEF1000F07D003FB42
:1053B00005652C4800236B7703B0BDE8F083D8F86F
:1053C00000400422C4F8082303FB0563C4F808E185
:1053D000D4F80821C3F820E00092009A7A688AB1D4
:1053E0003B681B78C4F81C35012A0DD93B685B78F3
:1053F000C4F81C35BCF1000F0ED00423C4F80433EC
:105400001948D9E7DB7FEDE7FB68012BF2D92823A8
:1054100003FB0563DB7FEBE705EB850106EBC101D1
:105420006746D4F80831002BFBD0C4F80871D4F8D3
:10543000083101932046019B02F0C2FA0028F0D106
:10544000282303FB0565AA7FFF2AD9D001239340B7
:105450004FF0A042C2F80835D2E70448ACE700BFDD
:10546000D0C200200300AD0B0000AD0B0B00AD0B54
:1054700007B5104B1049114800221A601B680193B0
:10548000019B02F09DFA90B98A7F0D48FF2A1FBF49
:10549000012393404FF0A042C2F8083500234B7718
:1054A0000B72D1E9003103B05DF804EB184703B08B
:1054B0005DF804FB08310240D0C2002000300240F9
:1054C000D8C2002037B5344B01930D464FF482719A
:1054D000044602F0A8FA4FF4927102F0A4FA4FF4D5
:1054E0008E7102F0A0FA4FF4847102F09CFA00234E
:1054F0006B6385F82F30AB6A012B17D12B6A5B06E3
:1055000014D40223C4F800320123236295F82D201D
:10551000022A18BF23602B6893B140F28623AB6048
:10552000AB681E48C4F8043303B030BD0123E9E77B
:105530002946204602F09CFA28B1019B013B0193C9
:10554000019B002BF4DC95F82F305BB91348019BCD
:10555000002BE9DC0023C4F8003505231048C4F80B
:105560000035E1E7D4F8C434C4F8C4348BB10D4A33
:105570000B4813F0010F18BF104613F0020F02F191
:10558000010218BF104613F0040F074B18BF18464E
:10559000DDE70348DBE700BFA08601000000AD0B9C
:1055A0000100AD0B0000AE0B0200AE0B37B5314B66
:1055B00001930D464FF48271044602F034FA4FF421
:1055C000927102F030FA4FF48E7102F02CFA4FF41F
:1055D000847102F028FA0023C0F800326B6385F86A
:1055E0002F300123036295F82D209A4218BF836063
:1055F000294602F020FA2B6883B140F28623AB6083
:10560000AB681D48C4F8043303B030BD29462046BA
:1056100002F02EFA28B1019B013B0193019B002B64
:10562000F4DC95F82F305BB91348019B002BEBDCC1
:105630000023C4F8003505231048C4F80035E3E71B
:10564000D4F8C434C4F8C4348BB10D4A0B4813F0F9
:10565000010F18BF104613F0020F02F1010218BF2C
:10566000104613F0040F074B18BF1846DDE7034838
:10567000DBE700BFA08601000000AD0B0100AD0B11
:105680000000AE0B0200AE0BF8B507791D4D4FF0D0
:105690003C0C0CFB07FC05EB0C0494F82E607EBB65
:1056A00063604B7BA66084F82D6084F8306084F8DA
:1056B000316084F838300C6845F80C204FF0A04673
:1056C00004F5E07340F20C6C46F823C04B680068A8
:1056D00003F5E07E46F82EC0C0F80845C0F80C354A
:1056E0008B68C0F824351AB140F30730FDF730FD60
:1056F0003C2303FB07550448012385F82E30F8BDF1
:105700000248FCE7F8C200200000AD0B0500AD0B1D
:10571000026803790521C2F80015044A3C2101FB07
:105720000323022283F82E20704700BFF8C2002016
:1057300003680A490279C3F80813D3F8001221F06C
:105740000301C3F800120021C3F80015044B3C21EB
:1057500001FB0233012283F82E20704786420400A9
:10576000F8C200202DE9F047324E90F80480D0F8BE
:1057700000903C2303FB08630C4693F82D30012B6B
:10578000174604D10B78012B06D12B4811E0022BD0
:1057900002D10B78012BF8D13C25284BC9F80833EE
:1057A00005FB086595F830302BB1AB682448C9F883
:1057B0000433BDE8F08787F00403C3F3800385F862
:1057C00030302F62A646BEE80F0005F10C0CACE8A5
:1057D0000F00DEF80030CCF800306368AB62E3689D
:1057E0006B626378C9F888352378C8EB081A012BF7
:1057F00006EB8A0A19D0B3B9C7F340173C2303FB61
:105800000863514683F82C704846FFF7CFFE3C23CF
:1058100003FB08F806EB080256F80830002BC8D145
:1058200082F83030C5E70127E8E751464846FFF7E0
:1058300049FEECE7F8C200200500AD0B86420400EB
:105840000B00AD0BF0B5294C294887B0214602F07A
:105850000FF9A446D8B994F82F60276AE6B9237BDC
:105860009A1E012A18D8616AA269914214D1E2698C
:105870006262C7F3401762691D48A262032B84F875
:105880002C7084F82D60214603D1FFF78FFE07B0FE
:10589000F0BDFFF717FEFAE7164D0FCD01AC0FC4B0
:1058A0002B682360F6B1124AD2F8C434C2F8C4346B
:1058B00098070ED501238DF8003000238CF8303086
:1058C0007B0701D5002EE2D0DCE90031684698471D
:1058D000DDE7590701D50223EDE7DA074CBF0323C3
:1058E0000423E8E78DF80060E7E700BFF8C2002076
:1058F0000030004004C30020F8B5094B53F82040A5
:105900000130002753F82060A64200D8F8BDD4E942
:1059100000352846984708B105B1AF600834F3E771
:10592000348100000F4B70B50F4C05461E469C425B
:1059300004D10D4CB44208D1002410E0A26812B189
:105940002268AA420BD01034F1E7A3680BB91034D7
:10595000F0E72168284601F0C6FD0028F7D120466F
:1059600070BD00BF44960020D495002008B50B4DB3
:105970004FF02002EFF3118382F31188BFF36F8F92
:1059800002F032FA012102280446D8BF084602F08C
:105990003BFA2C62FDF796FCEAE700BF1CC400202E
:1059A0000248034A0021121A01F0D4BD909700204A
:1059B00084C8002008B50648064A0749121A01F0B3
:1059C0009EFDBDE80840054A0549064801F097BD1F
:1059D000000000208C970020D4A1000000000000EF
:1059E000D4A100000000002008B50C4B01220220C9
:1059F0001A70FFF781FF0A4A0A490B4801F02BFC95
:105A00000320FFF779FF00F013FCFBF7EBFB074ADD
:105A1000137B23F00103137308BD00BF81C800206E
:105A2000F181000096A10000A6A10000A8C30020FB
:105A30002DE98048DFF8F490A5B089F30888344D4B
:105A4000344E6B69DFF8E8A0DFF8E880324F43F4AA
:105A5000007300246B61E02385F82230EC772C760C
:105A60006C76AC766B6A43F4E0236B62FDF74CFD19
:105A7000FDF722FC4FF0FF33AB62EB62274D40F2A3
:105A80000113ADF8283007ABAB602046CDE91F44C9
:105A9000FFF732FF0120FFF72FFF4FF0010B00F05F
:105AA000D7FA1F4B6E624FF4806241460593304631
:105AB0005346CDE9034BCDE90144009400F092FB3D
:105AC000737B304623F00403737302F0CCF80F238A
:105AD000CDE902431349144B4FF4A0723846CDE987
